{
  "contractName": "Accounts",
  "abi": [
    {
      "anonymous": false,
      "inputs": [
        {
          "indexed": true,
          "internalType": "address",
          "name": "previousOwner",
          "type": "address"
        },
        {
          "indexed": true,
          "internalType": "address",
          "name": "newOwner",
          "type": "address"
        }
      ],
      "name": "OwnershipTransferred",
      "type": "event"
    },
    {
      "inputs": [],
      "name": "isOwner",
      "outputs": [
        {
          "internalType": "bool",
          "name": "",
          "type": "bool"
        }
      ],
      "stateMutability": "view",
      "type": "function",
      "constant": true
    },
    {
      "inputs": [],
      "name": "naturalRightsAddress",
      "outputs": [
        {
          "internalType": "address",
          "name": "",
          "type": "address"
        }
      ],
      "stateMutability": "view",
      "type": "function",
      "constant": true
    },
    {
      "inputs": [],
      "name": "owner",
      "outputs": [
        {
          "internalType": "address",
          "name": "",
          "type": "address"
        }
      ],
      "stateMutability": "view",
      "type": "function",
      "constant": true
    },
    {
      "inputs": [],
      "name": "renounceOwnership",
      "outputs": [],
      "stateMutability": "nonpayable",
      "type": "function"
    },
    {
      "inputs": [
        {
          "internalType": "address",
          "name": "newOwner",
          "type": "address"
        }
      ],
      "name": "transferOwnership",
      "outputs": [],
      "stateMutability": "nonpayable",
      "type": "function"
    },
    {
      "inputs": [
        {
          "internalType": "uint256",
          "name": "",
          "type": "uint256"
        }
      ],
      "name": "userList",
      "outputs": [
        {
          "internalType": "address",
          "name": "",
          "type": "address"
        }
      ],
      "stateMutability": "view",
      "type": "function",
      "constant": true
    },
    {
      "inputs": [
        {
          "internalType": "uint256",
          "name": "",
          "type": "uint256"
        }
      ],
      "name": "userNameTransferList",
      "outputs": [
        {
          "internalType": "address",
          "name": "",
          "type": "address"
        }
      ],
      "stateMutability": "view",
      "type": "function",
      "constant": true
    },
    {
      "inputs": [
        {
          "internalType": "address",
          "name": "_newNaturalRights",
          "type": "address"
        }
      ],
      "name": "setNaturalRightsServer",
      "outputs": [
        {
          "internalType": "bool",
          "name": "success",
          "type": "bool"
        }
      ],
      "stateMutability": "nonpayable",
      "type": "function"
    },
    {
      "inputs": [
        {
          "internalType": "string",
          "name": "_naturalRightsId",
          "type": "string"
        },
        {
          "internalType": "address",
          "name": "_loomAddr",
          "type": "address"
        }
      ],
      "name": "addUser",
      "outputs": [
        {
          "internalType": "bool",
          "name": "success",
          "type": "bool"
        }
      ],
      "stateMutability": "nonpayable",
      "type": "function"
    },
    {
      "inputs": [
        {
          "internalType": "string",
          "name": "_naturalRightsId",
          "type": "string"
        }
      ],
      "name": "isHavenUser",
      "outputs": [
        {
          "internalType": "bool",
          "name": "isIndeed",
          "type": "bool"
        }
      ],
      "stateMutability": "view",
      "type": "function",
      "constant": true
    },
    {
      "inputs": [
        {
          "internalType": "address",
          "name": "_loomAddr",
          "type": "address"
        }
      ],
      "name": "isUserPub",
      "outputs": [
        {
          "internalType": "bool",
          "name": "isIndeed",
          "type": "bool"
        }
      ],
      "stateMutability": "view",
      "type": "function",
      "constant": true
    },
    {
      "inputs": [],
      "name": "isUserPriv",
      "outputs": [
        {
          "internalType": "bool",
          "name": "isIndeed",
          "type": "bool"
        }
      ],
      "stateMutability": "view",
      "type": "function",
      "constant": true
    },
    {
      "inputs": [
        {
          "internalType": "string",
          "name": "_naturalRightsId",
          "type": "string"
        }
      ],
      "name": "havenUserAddress",
      "outputs": [
        {
          "internalType": "address",
          "name": "loomAddress",
          "type": "address"
        }
      ],
      "stateMutability": "view",
      "type": "function",
      "constant": true
    },
    {
      "inputs": [],
      "name": "getUserCount",
      "outputs": [
        {
          "internalType": "uint256",
          "name": "userCount",
          "type": "uint256"
        }
      ],
      "stateMutability": "view",
      "type": "function",
      "constant": true
    },
    {
      "inputs": [
        {
          "internalType": "string",
          "name": "_userName",
          "type": "string"
        }
      ],
      "name": "isUserName",
      "outputs": [
        {
          "internalType": "bool",
          "name": "isIndeed",
          "type": "bool"
        }
      ],
      "stateMutability": "view",
      "type": "function",
      "constant": true
    },
    {
      "inputs": [
        {
          "internalType": "string",
          "name": "_naturalRightsId",
          "type": "string"
        }
      ],
      "name": "getUserName",
      "outputs": [
        {
          "internalType": "string",
          "name": "",
          "type": "string"
        }
      ],
      "stateMutability": "view",
      "type": "function",
      "constant": true
    },
    {
      "inputs": [
        {
          "internalType": "address",
          "name": "_acctAddr",
          "type": "address"
        }
      ],
      "name": "isAuthorized",
      "outputs": [
        {
          "internalType": "bool",
          "name": "isIndeed",
          "type": "bool"
        }
      ],
      "stateMutability": "view",
      "type": "function",
      "constant": true
    },
    {
      "inputs": [
        {
          "internalType": "address",
          "name": "_acctAddr",
          "type": "address"
        },
        {
          "internalType": "address",
          "name": "_devAddr",
          "type": "address"
        }
      ],
      "name": "isDevAuthorized",
      "outputs": [
        {
          "internalType": "bool",
          "name": "isIndeed",
          "type": "bool"
        }
      ],
      "stateMutability": "view",
      "type": "function",
      "constant": true
    },
    {
      "inputs": [
        {
          "internalType": "address",
          "name": "_acctAddr",
          "type": "address"
        },
        {
          "internalType": "address",
          "name": "_deviceAddr",
          "type": "address"
        }
      ],
      "name": "addDelegate",
      "outputs": [
        {
          "internalType": "bool",
          "name": "Success",
          "type": "bool"
        }
      ],
      "stateMutability": "nonpayable",
      "type": "function"
    },
    {
      "inputs": [
        {
          "internalType": "address",
          "name": "_acctAddr",
          "type": "address"
        },
        {
          "internalType": "address",
          "name": "_deviceAddr",
          "type": "address"
        }
      ],
      "name": "removeDelegate",
      "outputs": [
        {
          "internalType": "bool",
          "name": "Success",
          "type": "bool"
        }
      ],
      "stateMutability": "nonpayable",
      "type": "function"
    },
    {
      "inputs": [
        {
          "internalType": "address",
          "name": "_acctAddr",
          "type": "address"
        }
      ],
      "name": "listDelegates",
      "outputs": [
        {
          "internalType": "address[]",
          "name": "",
          "type": "address[]"
        }
      ],
      "stateMutability": "view",
      "type": "function",
      "constant": true
    },
    {
      "inputs": [
        {
          "internalType": "address",
          "name": "_acctAddr",
          "type": "address"
        },
        {
          "internalType": "string",
          "name": "_naturalRightsId",
          "type": "string"
        },
        {
          "internalType": "string",
          "name": "_userName",
          "type": "string"
        }
      ],
      "name": "initUserPub",
      "outputs": [
        {
          "internalType": "bool",
          "name": "success",
          "type": "bool"
        }
      ],
      "stateMutability": "nonpayable",
      "type": "function"
    },
    {
      "inputs": [
        {
          "internalType": "string",
          "name": "_naturalRightsId",
          "type": "string"
        },
        {
          "internalType": "string",
          "name": "_cryptPubKey",
          "type": "string"
        },
        {
          "internalType": "string",
          "name": "_encCryptPrivKey",
          "type": "string"
        },
        {
          "internalType": "string",
          "name": "_encSignPrivKey",
          "type": "string"
        }
      ],
      "name": "initUserPriv",
      "outputs": [
        {
          "internalType": "bool",
          "name": "success",
          "type": "bool"
        }
      ],
      "stateMutability": "nonpayable",
      "type": "function"
    },
    {
      "inputs": [
        {
          "internalType": "string",
          "name": "_cryptPubKey",
          "type": "string"
        },
        {
          "internalType": "string",
          "name": "_encCryptPrivKey",
          "type": "string"
        },
        {
          "internalType": "string",
          "name": "_encSignPrivKey",
          "type": "string"
        }
      ],
      "name": "updateUserPriv",
      "outputs": [
        {
          "internalType": "bool",
          "name": "success",
          "type": "bool"
        }
      ],
      "stateMutability": "nonpayable",
      "type": "function"
    },
    {
      "inputs": [
        {
          "internalType": "string",
          "name": "_newUserName",
          "type": "string"
        }
      ],
      "name": "updateUserName",
      "outputs": [
        {
          "internalType": "bool",
          "name": "success",
          "type": "bool"
        }
      ],
      "stateMutability": "nonpayable",
      "type": "function"
    },
    {
      "inputs": [
        {
          "internalType": "address",
          "name": "confirmAddr",
          "type": "address"
        },
        {
          "internalType": "string",
          "name": "expectedUserName",
          "type": "string"
        }
      ],
      "name": "initTransferUsername",
      "outputs": [
        {
          "internalType": "bool",
          "name": "success",
          "type": "bool"
        }
      ],
      "stateMutability": "nonpayable",
      "type": "function"
    },
    {
      "inputs": [
        {
          "internalType": "string",
          "name": "expectedUserName",
          "type": "string"
        }
      ],
      "name": "confirmTransferUsername",
      "outputs": [
        {
          "internalType": "bool",
          "name": "success",
          "type": "bool"
        }
      ],
      "stateMutability": "nonpayable",
      "type": "function"
    },
    {
      "inputs": [],
      "name": "deleteUser",
      "outputs": [
        {
          "internalType": "bool",
          "name": "success",
          "type": "bool"
        }
      ],
      "stateMutability": "nonpayable",
      "type": "function"
    },
    {
      "inputs": [],
      "name": "recoverUserPriv",
      "outputs": [
        {
          "internalType": "string",
          "name": "",
          "type": "string"
        },
        {
          "internalType": "string",
          "name": "",
          "type": "string"
        },
        {
          "internalType": "string",
          "name": "",
          "type": "string"
        }
      ],
      "stateMutability": "view",
      "type": "function",
      "constant": true
    },
    {
      "inputs": [],
      "name": "recoverUserPub",
      "outputs": [
        {
          "internalType": "string",
          "name": "",
          "type": "string"
        },
        {
          "internalType": "string",
          "name": "",
          "type": "string"
        }
      ],
      "stateMutability": "view",
      "type": "function",
      "constant": true
    },
    {
      "inputs": [
        {
          "internalType": "string",
          "name": "userName",
          "type": "string"
        }
      ],
      "name": "restoreUser",
      "outputs": [
        {
          "internalType": "bool",
          "name": "success",
          "type": "bool"
        }
      ],
      "stateMutability": "nonpayable",
      "type": "function"
    }
  ],
  "bytecode": "0x6080604052600062000016620000ba60201b60201c565b9050806000806101000a81548173ffffffffffffffffffffffffffffffffffffffff021916908373ffffffffffffffffffffffffffffffffffffffff1602179055508073ffffffffffffffffffffffffffffffffffffffff16600073ffffffffffffffffffffffffffffffffffffffff167f8be0079c531659141344cd1fd0a4f28419497f9722a3daafe3b4186f6b6457e060405160405180910390a350620000c2565b600033905090565b614da480620000d26000396000f3fe608060405234801561001057600080fd5b50600436106101e55760003560e01c806385ccd0351161010f578063c3d08357116100a2578063f2c0308511610071578063f2c030851461160d578063f2fde38b146116e0578063fa5e7fa214611724578063fe9fbb8014611792576101e5565b8063c3d08357146111aa578063ce7f48f51461127d578063e56f9af814611515578063e909ebfa14611591576101e5565b80639f4216e8116100de5780639f4216e814610f5c578063ab0d9fb514610fca578063af9036a1146110b9578063b5cb15f71461118c576101e5565b806385ccd03514610da1578063864a0d0a14610dfd5780638da5cb5b14610ef05780638f32d59b14610f3a576101e5565b80634044af56116101875780634fb4a8c8116101565780634fb4a8c814610bf7578063703a302a14610c41578063715018a614610c635780637228c6e014610c6d576101e5565b80634044af56146106a65780634409041314610779578063480ed0f214610903578063499d6f0314610b04576101e5565b80630aa3156b116101c35780630aa3156b146103835780630ad6bfb1146103df5780631802489a1461047857806330b9760e1461054b576101e5565b8063020d308d146101ea578063026ff05e1461026657806305ba7cbc14610288575b600080fd5b61024c6004803603604081101561020057600080fd5b81019080803573ffffffffffffffffffffffffffffffffffffffff169060200190929190803573ffffffffffffffffffffffffffffffffffffffff1690602001909291905050506117ee565b604051808215151515815260200191505060405180910390f35b61026e611b4b565b604051808215151515815260200191505060405180910390f35b6103416004803603602081101561029e57600080fd5b81019080803590602001906401000000008111156102bb57600080fd5b8201836020820111156102cd57600080fd5b803590602001918460018302840111640100000000831117156102ef57600080fd5b91908080601f016020809104026020016040519081016040528093929190818152602001838380828437600081840152601f19601f820116905080830192505050505050509192919290505050611e6f565b604051808273ffffffffffffffffffffffffffffffffffffffff1673ffffffffffffffffffffffffffffffffffffffff16815260200191505060405180910390f35b6103c56004803603602081101561039957600080fd5b81019080803573ffffffffffffffffffffffffffffffffffffffff169060200190929190505050611ebb565b604051808215151515815260200191505060405180910390f35b610421600480360360208110156103f557600080fd5b81019080803573ffffffffffffffffffffffffffffffffffffffff169060200190929190505050611f83565b6040518080602001828103825283818151815260200191508051906020019060200280838360005b83811015610464578082015181840152602081019050610449565b505050509050019250505060405180910390f35b6105316004803603602081101561048e57600080fd5b81019080803590602001906401000000008111156104ab57600080fd5b8201836020820111156104bd57600080fd5b803590602001918460018302840111640100000000831117156104df57600080fd5b91908080601f016020809104026020016040519081016040528093929190818152602001838380828437600081840152601f19601f820116905080830192505050505050509192919290505050612055565b604051808215151515815260200191505060405180910390f35b6105536120e1565b60405180806020018060200180602001848103845287818151815260200191508051906020019080838360005b8381101561059b578082015181840152602081019050610580565b50505050905090810190601f1680156105c85780820380516001836020036101000a031916815260200191505b50848103835286818151815260200191508051906020019080838360005b838110156106015780820151818401526020810190506105e6565b50505050905090810190601f16801561062e5780820380516001836020036101000a031916815260200191505b50848103825285818151815260200191508051906020019080838360005b8381101561066757808201518184015260208101905061064c565b50505050905090810190601f1680156106945780820380516001836020036101000a031916815260200191505b50965050505050505060405180910390f35b61075f600480360360208110156106bc57600080fd5b81019080803590602001906401000000008111156106d957600080fd5b8201836020820111156106eb57600080fd5b8035906020019184600183028401116401000000008311171561070d57600080fd5b91908080601f016020809104026020016040519081016040528093929190818152602001838380828437600081840152601f19601f82011690508083019250505050505050919291929050505061240f565b604051808215151515815260200191505060405180910390f35b6108e96004803603606081101561078f57600080fd5b81019080803573ffffffffffffffffffffffffffffffffffffffff169060200190929190803590602001906401000000008111156107cc57600080fd5b8201836020820111156107de57600080fd5b8035906020019184600183028401116401000000008311171561080057600080fd5b91908080601f016020809104026020016040519081016040528093929190818152602001838380828437600081840152601f19601f8201169050808301925050505050505091929192908035906020019064010000000081111561086357600080fd5b82018360208201111561087557600080fd5b8035906020019184600183028401116401000000008311171561089757600080fd5b91908080601f016020809104026020016040519081016040528093929190818152602001838380828437600081840152601f19601f82011690508083019250505050505050919291929050505061249b565b604051808215151515815260200191505060405180910390f35b610aea6004803603606081101561091957600080fd5b810190808035906020019064010000000081111561093657600080fd5b82018360208201111561094857600080fd5b8035906020019184600183028401116401000000008311171561096a57600080fd5b91908080601f016020809104026020016040519081016040528093929190818152602001838380828437600081840152601f19601f820116905080830192505050505050509192919290803590602001906401000000008111156109cd57600080fd5b8201836020820111156109df57600080fd5b80359060200191846001830284011164010000000083111715610a0157600080fd5b91908080601f016020809104026020016040519081016040528093929190818152602001838380828437600081840152601f19601f82011690508083019250505050505050919291929080359060200190640100000000811115610a6457600080fd5b820183602082011115610a7657600080fd5b80359060200191846001830284011164010000000083111715610a9857600080fd5b91908080601f016020809104026020016040519081016040528093929190818152602001838380828437600081840152601f19601f82011690508083019250505050505050919291929050505061285b565b604051808215151515815260200191505060405180910390f35b610bdd60048036036040811015610b1a57600080fd5b81019080803573ffffffffffffffffffffffffffffffffffffffff16906020019092919080359060200190640100000000811115610b5757600080fd5b820183602082011115610b6957600080fd5b80359060200191846001830284011164010000000083111715610b8b57600080fd5b91908080601f016020809104026020016040519081016040528093929190818152602001838380828437600081840152601f19601f8201169050808301925050505050505091929192905050506129e8565b604051808215151515815260200191505060405180910390f35b610bff612cd3565b604051808273ffffffffffffffffffffffffffffffffffffffff1673ffffffffffffffffffffffffffffffffffffffff16815260200191505060405180910390f35b610c49612cf9565b604051808215151515815260200191505060405180910390f35b610c6b612d50565b005b610d2660048036036020811015610c8357600080fd5b8101908080359060200190640100000000811115610ca057600080fd5b820183602082011115610cb257600080fd5b80359060200191846001830284011164010000000083111715610cd457600080fd5b91908080601f016020809104026020016040519081016040528093929190818152602001838380828437600081840152601f19601f820116905080830192505050505050509192919290505050612e89565b6040518080602001828103825283818151815260200191508051906020019080838360005b83811015610d66578082015181840152602081019050610d4b565b50505050905090810190601f168015610d935780820380516001836020036101000a031916815260200191505b509250505060405180910390f35b610de360048036036020811015610db757600080fd5b81019080803573ffffffffffffffffffffffffffffffffffffffff169060200190929190505050613046565b604051808215151515815260200191505060405180910390f35b610ed660048036036040811015610e1357600080fd5b8101908080359060200190640100000000811115610e3057600080fd5b820183602082011115610e4257600080fd5b80359060200191846001830284011164010000000083111715610e6457600080fd5b91908080601f016020809104026020016040519081016040528093929190818152602001838380828437600081840152601f19601f820116905080830192505050505050509192919290803573ffffffffffffffffffffffffffffffffffffffff1690602001909291905050506131af565b604051808215151515815260200191505060405180910390f35b610ef8613277565b604051808273ffffffffffffffffffffffffffffffffffffffff1673ffffffffffffffffffffffffffffffffffffffff16815260200191505060405180910390f35b610f426132a0565b604051808215151515815260200191505060405180910390f35b610f8860048036036020811015610f7257600080fd5b81019080803590602001909291905050506132fe565b604051808273ffffffffffffffffffffffffffffffffffffffff1673ffffffffffffffffffffffffffffffffffffffff16815260200191505060405180910390f35b610fd261333a565b604051808060200180602001838103835285818151815260200191508051906020019080838360005b83811015611016578082015181840152602081019050610ffb565b50505050905090810190601f1680156110435780820380516001836020036101000a031916815260200191505b50838103825284818151815260200191508051906020019080838360005b8381101561107c578082015181840152602081019050611061565b50505050905090810190601f1680156110a95780820380516001836020036101000a031916815260200191505b5094505050505060405180910390f35b611172600480360360208110156110cf57600080fd5b81019080803590602001906401000000008111156110ec57600080fd5b8201836020820111156110fe57600080fd5b8035906020019184600183028401116401000000008311171561112057600080fd5b91908080601f016020809104026020016040519081016040528093929190818152602001838380828437600081840152601f19601f820116905080830192505050505050509192919290505050613582565b604051808215151515815260200191505060405180910390f35b6111946137df565b6040518082815260200191505060405180910390f35b611263600480360360208110156111c057600080fd5b81019080803590602001906401000000008111156111dd57600080fd5b8201836020820111156111ef57600080fd5b8035906020019184600183028401116401000000008311171561121157600080fd5b91908080601f016020809104026020016040519081016040528093929190818152602001838380828437600081840152601f19601f8201169050808301925050505050505091929192905050506137ec565b604051808215151515815260200191505060405180910390f35b6114fb6004803603608081101561129357600080fd5b81019080803590602001906401000000008111156112b057600080fd5b8201836020820111156112c257600080fd5b803590602001918460018302840111640100000000831117156112e457600080fd5b91908080601f016020809104026020016040519081016040528093929190818152602001838380828437600081840152601f19601f8201169050808301925050505050505091929192908035906020019064010000000081111561134757600080fd5b82018360208201111561135957600080fd5b8035906020019184600183028401116401000000008311171561137b57600080fd5b91908080601f016020809104026020016040519081016040528093929190818152602001838380828437600081840152601f19601f820116905080830192505050505050509192919290803590602001906401000000008111156113de57600080fd5b8201836020820111156113f057600080fd5b8035906020019184600183028401116401000000008311171561141257600080fd5b91908080601f016020809104026020016040519081016040528093929190818152602001838380828437600081840152601f19601f8201169050808301925050505050505091929192908035906020019064010000000081111561147557600080fd5b82018360208201111561148757600080fd5b803590602001918460018302840111640100000000831117156114a957600080fd5b91908080601f016020809104026020016040519081016040528093929190818152602001838380828437600081840152601f19601f82011690508083019250505050505050919291929050505061392c565b604051808215151515815260200191505060405180910390f35b6115776004803603604081101561152b57600080fd5b81019080803573ffffffffffffffffffffffffffffffffffffffff169060200190929190803573ffffffffffffffffffffffffffffffffffffffff169060200190929190505050613b7f565b604051808215151515815260200191505060405180910390f35b6115f3600480360360408110156115a757600080fd5b81019080803573ffffffffffffffffffffffffffffffffffffffff169060200190929190803573ffffffffffffffffffffffffffffffffffffffff169060200190929190505050613cd9565b604051808215151515815260200191505060405180910390f35b6116c66004803603602081101561162357600080fd5b810190808035906020019064010000000081111561164057600080fd5b82018360208201111561165257600080fd5b8035906020019184600183028401116401000000008311171561167457600080fd5b91908080601f016020809104026020016040519081016040528093929190818152602001838380828437600081840152601f19601f820116905080830192505050505050509192919290505050613df0565b604051808215151515815260200191505060405180910390f35b611722600480360360208110156116f657600080fd5b81019080803573ffffffffffffffffffffffffffffffffffffffff16906020019092919050505061465d565b005b6117506004803603602081101561173a57600080fd5b81019080803590602001909291905050506146e3565b604051808273ffffffffffffffffffffffffffffffffffffffff1673ffffffffffffffffffffffffffffffffffffffff16815260200191505060405180910390f35b6117d4600480360360208110156117a857600080fd5b81019080803573ffffffffffffffffffffffffffffffffffffffff16906020019092919050505061471f565b604051808215151515815260200191505060405180910390f35b6000600115156117fd8461471f565b15151415611af457600080600090505b600460008673ffffffffffffffffffffffffffffffffffffffff1673ffffffffffffffffffffffffffffffffffffffff16815260200190815260200160002080549050811015611910578373ffffffffffffffffffffffffffffffffffffffff16600460008773ffffffffffffffffffffffffffffffffffffffff1673ffffffffffffffffffffffffffffffffffffffff16815260200190815260200160002082815481106118b857fe5b9060005260206000200160009054906101000a900473ffffffffffffffffffffffffffffffffffffffff1673ffffffffffffffffffffffffffffffffffffffff161415611903578091505b808060010191505061180d565b506000600460008673ffffffffffffffffffffffffffffffffffffffff1673ffffffffffffffffffffffffffffffffffffffff1681526020019081526020016000208054905090506001811115611a6c57600460008673ffffffffffffffffffffffffffffffffffffffff1673ffffffffffffffffffffffffffffffffffffffff16815260200190815260200160002060018203815481106119ae57fe5b9060005260206000200160009054906101000a900473ffffffffffffffffffffffffffffffffffffffff16600460008773ffffffffffffffffffffffffffffffffffffffff1673ffffffffffffffffffffffffffffffffffffffff1681526020019081526020016000208381548110611a2357fe5b9060005260206000200160006101000a81548173ffffffffffffffffffffffffffffffffffffffff021916908373ffffffffffffffffffffffffffffffffffffffff1602179055505b600460008673ffffffffffffffffffffffffffffffffffffffff1673ffffffffffffffffffffffffffffffffffffffff168152602001908152602001600020805480611ab457fe5b6001900381819060005260206000200160006101000a81549073ffffffffffffffffffffffffffffffffffffffff02191690559055600192505050611b45565b6040517f08c379a000000000000000000000000000000000000000000000000000000000815260040180806020018281038252602c815260200180614cbe602c913960400191505060405180910390fd5b92915050565b6000611b5633611ebb565b611bc8576040517f08c379a00000000000000000000000000000000000000000000000000000000081526004018080602001828103825260138152602001807f5573657220646f6573206e6f742065786973740000000000000000000000000081525060200191505060405180910390fd5b6000600360003373ffffffffffffffffffffffffffffffffffffffff1673ffffffffffffffffffffffffffffffffffffffff1681526020019081526020016000206002015490506000600560016005805490500381548110611c2657fe5b9060005260206000200160009054906101000a900473ffffffffffffffffffffffffffffffffffffffff1690508060058381548110611c6157fe5b9060005260206000200160006101000a81548173ffffffffffffffffffffffffffffffffffffffff021916908373ffffffffffffffffffffffffffffffffffffffff16021790555081600360008373ffffffffffffffffffffffffffffffffffffffff1673ffffffffffffffffffffffffffffffffffffffff168152602001908152602001600020600201819055506005805480611cfb57fe5b6001900381819060005260206000200160006101000a81549073ffffffffffffffffffffffffffffffffffffffff021916905590556000600360003373ffffffffffffffffffffffffffffffffffffffff1673ffffffffffffffffffffffffffffffffffffffff1681526020019081526020016000206001016040518082805460018160011615610100020316600290048015611dcf5780601f10611dad576101008083540402835291820191611dcf565b820191906000526020600020905b815481529060010190602001808311611dbb575b5050915050604051809103902060001c90506006600082815260200190815260200160002060006101000a81549073ffffffffffffffffffffffffffffffffffffffff0219169055600360003373ffffffffffffffffffffffffffffffffffffffff1673ffffffffffffffffffffffffffffffffffffffff1681526020019081526020016000206001016000611e659190614a81565b6001935050505090565b600080828051906020012060001c90506009600082815260200190815260200160002060009054906101000a900473ffffffffffffffffffffffffffffffffffffffff16915050919050565b6000806005805490501415611ed35760009050611f7e565b8173ffffffffffffffffffffffffffffffffffffffff166005600360008573ffffffffffffffffffffffffffffffffffffffff1673ffffffffffffffffffffffffffffffffffffffff1681526020019081526020016000206002015481548110611f3957fe5b9060005260206000200160009054906101000a900473ffffffffffffffffffffffffffffffffffffffff1673ffffffffffffffffffffffffffffffffffffffff161490505b919050565b606080600460008473ffffffffffffffffffffffffffffffffffffffff1673ffffffffffffffffffffffffffffffffffffffff16815260200190815260200160002080548060200260200160405190810160405280929190818152602001828054801561204557602002820191906000526020600020905b8160009054906101000a900473ffffffffffffffffffffffffffffffffffffffff1673ffffffffffffffffffffffffffffffffffffffff1681526020019060010190808311611ffb575b5050505050905080915050919050565b600080828051906020012060001c9050600073ffffffffffffffffffffffffffffffffffffffff166009600083815260200190815260200160002060009054906101000a900473ffffffffffffffffffffffffffffffffffffffff1673ffffffffffffffffffffffffffffffffffffffff16146120d65760019150506120dc565b60009150505b919050565b60608060606120ef33611ebb565b612161576040517f08c379a00000000000000000000000000000000000000000000000000000000081526004018080602001828103825260138152602001807f5573657220646f6573206e6f742065786973740000000000000000000000000081525060200191505060405180910390fd5b6060600260003373ffffffffffffffffffffffffffffffffffffffff1673ffffffffffffffffffffffffffffffffffffffff1681526020019081526020016000206000018054600181600116156101000203166002900480601f0160208091040260200160405190810160405280929190818152602001828054600181600116156101000203166002900480156122395780601f1061220e57610100808354040283529160200191612239565b820191906000526020600020905b81548152906001019060200180831161221c57829003601f168201915b505050505090506060600260003373ffffffffffffffffffffffffffffffffffffffff1673ffffffffffffffffffffffffffffffffffffffff1681526020019081526020016000206001018054600181600116156101000203166002900480601f0160208091040260200160405190810160405280929190818152602001828054600181600116156101000203166002900480156123185780601f106122ed57610100808354040283529160200191612318565b820191906000526020600020905b8154815290600101906020018083116122fb57829003601f168201915b505050505090506060600260003373ffffffffffffffffffffffffffffffffffffffff1673ffffffffffffffffffffffffffffffffffffffff1681526020019081526020016000206002018054600181600116156101000203166002900480601f0160208091040260200160405190810160405280929190818152602001828054600181600116156101000203166002900480156123f75780601f106123cc576101008083540402835291602001916123f7565b820191906000526020600020905b8154815290600101906020018083116123da57829003601f168201915b50505050509050828282955095509550505050909192565b600080828051906020012060001c9050600073ffffffffffffffffffffffffffffffffffffffff166006600083815260200190815260200160002060009054906101000a900473ffffffffffffffffffffffffffffffffffffffff1673ffffffffffffffffffffffffffffffffffffffff1614612490576001915050612496565b60009150505b919050565b6000600115156124aa8561471f565b15151415612853576124bb83612055565b15612802576124c984611ebb565b1561253c576040517f08c379a000000000000000000000000000000000000000000000000000000000815260040180806020018281038252601a8152602001807f5573657220697320616c7265616479207265676973746572656400000000000081525060200191505060405180910390fd5b6000828051906020012060001c9050600073ffffffffffffffffffffffffffffffffffffffff166006600083815260200190815260200160002060009054906101000a900473ffffffffffffffffffffffffffffffffffffffff1673ffffffffffffffffffffffffffffffffffffffff1614612620576040517f08c379a00000000000000000000000000000000000000000000000000000000081526004018080602001828103825260168152602001807f557365726e616d6520616c72656164792074616b656e0000000000000000000081525060200191505060405180910390fd5b6000848051906020012060001c90508573ffffffffffffffffffffffffffffffffffffffff166009600083815260200190815260200160002060009054906101000a900473ffffffffffffffffffffffffffffffffffffffff1673ffffffffffffffffffffffffffffffffffffffff1614156127b15784600360008873ffffffffffffffffffffffffffffffffffffffff1673ffffffffffffffffffffffffffffffffffffffff16815260200190815260200160002060000190805190602001906126ec929190614ac9565b50600580549050600360008873ffffffffffffffffffffffffffffffffffffffff1673ffffffffffffffffffffffffffffffffffffffff168152602001908152602001600020600201819055506127438685614878565b6005869080600181540180825580915050600190039060005260206000200160009091909190916101000a81548173ffffffffffffffffffffffffffffffffffffffff021916908373ffffffffffffffffffffffffffffffffffffffff160217905550600192505050612854565b6040517f08c379a000000000000000000000000000000000000000000000000000000000815260040180806020018281038252602d815260200180614c1c602d913960400191505060405180910390fd5b6040517f08c379a0000000000000000000000000000000000000000000000000000000008152600401808060200182810382526025815260200180614c996025913960400191505060405180910390fd5b5b9392505050565b600061286633611ebb565b6128d8576040517f08c379a00000000000000000000000000000000000000000000000000000000081526004018080602001828103825260138152602001807f5573657220646f6573206e6f742065786973740000000000000000000000000081525060200191505060405180910390fd5b83600260003373ffffffffffffffffffffffffffffffffffffffff1673ffffffffffffffffffffffffffffffffffffffff168152602001908152602001600020600001908051906020019061292e929190614ac9565b5082600260003373ffffffffffffffffffffffffffffffffffffffff1673ffffffffffffffffffffffffffffffffffffffff1681526020019081526020016000206001019080519060200190612985929190614ac9565b5081600260003373ffffffffffffffffffffffffffffffffffffffff1673ffffffffffffffffffffffffffffffffffffffff16815260200190815260200160002060020190805190602001906129dc929190614ac9565b50600190509392505050565b60006129f333611ebb565b612a65576040517f08c379a000000000000000000000000000000000000000000000000000000000815260040180806020018281038252601e8152602001807f496e6974696174696e67205573657220646f6573206e6f74206578697374000081525060200191505060405180910390fd5b612a6e83611ebb565b612ae0576040517f08c379a000000000000000000000000000000000000000000000000000000000815260040180806020018281038252601e8152602001807f436f6e6669726d696e67205573657220646f6573206e6f74206578697374000081525060200191505060405180910390fd5b8180519060200120600360008573ffffffffffffffffffffffffffffffffffffffff1673ffffffffffffffffffffffffffffffffffffffff1681526020019081526020016000206001016040518082805460018160011615610100020316600290048015612b855780601f10612b63576101008083540402835291820191612b85565b820191906000526020600020905b815481529060010190602001808311612b71575b505091505060405180910390201415612cc95733600760008573ffffffffffffffffffffffffffffffffffffffff1673ffffffffffffffffffffffffffffffffffffffff16815260200190815260200160002060000160006101000a81548173ffffffffffffffffffffffffffffffffffffffff021916908373ffffffffffffffffffffffffffffffffffffffff160217905550600880549050600760008573ffffffffffffffffffffffffffffffffffffffff1673ffffffffffffffffffffffffffffffffffffffff168152602001908152602001600020600201819055506008839080600181540180825580915050600190039060005260206000200160009091909190916101000a81548173ffffffffffffffffffffffffffffffffffffffff021916908373ffffffffffffffffffffffffffffffffffffffff1602179055505b6001905092915050565b600160009054906101000a900473ffffffffffffffffffffffffffffffffffffffff1681565b6000600260003373ffffffffffffffffffffffffffffffffffffffff1673ffffffffffffffffffffffffffffffffffffffff16815260200190815260200160002060030160009054906101000a900460ff16905090565b612d586132a0565b612dca576040517f08c379a00000000000000000000000000000000000000000000000000000000081526004018080602001828103825260208152602001807f4f776e61626c653a2063616c6c6572206973206e6f7420746865206f776e657281525060200191505060405180910390fd5b600073ffffffffffffffffffffffffffffffffffffffff166000809054906101000a900473ffffffffffffffffffffffffffffffffffffffff1673ffffffffffffffffffffffffffffffffffffffff167f8be0079c531659141344cd1fd0a4f28419497f9722a3daafe3b4186f6b6457e060405160405180910390a360008060006101000a81548173ffffffffffffffffffffffffffffffffffffffff021916908373ffffffffffffffffffffffffffffffffffffffff160217905550565b60606000828051906020012060001c905060006009600083815260200190815260200160002060009054906101000a900473ffffffffffffffffffffffffffffffffffffffff169050600073ffffffffffffffffffffffffffffffffffffffff168173ffffffffffffffffffffffffffffffffffffffff1614612ff0576060600360008373ffffffffffffffffffffffffffffffffffffffff1673ffffffffffffffffffffffffffffffffffffffff1681526020019081526020016000206001018054600181600116156101000203166002900480601f016020809104026020016040519081016040528092919081815260200182805460018160011615610100020316600290048015612fde5780601f10612fb357610100808354040283529160200191612fde565b820191906000526020600020905b815481529060010190602001808311612fc157829003601f168201915b50505050509050809350505050613041565b6040517f08c379a0000000000000000000000000000000000000000000000000000000008152600401808060200182810382526034815260200180614d3b6034913960400191505060405180910390fd5b919050565b60006130506132a0565b6130c2576040517f08c379a00000000000000000000000000000000000000000000000000000000081526004018080602001828103825260208152602001807f4f776e61626c653a2063616c6c6572206973206e6f7420746865206f776e657281525060200191505060405180910390fd5b600073ffffffffffffffffffffffffffffffffffffffff168273ffffffffffffffffffffffffffffffffffffffff161415613165576040517f08c379a00000000000000000000000000000000000000000000000000000000081526004018080602001828103825260118152602001807f41646472657373203020656e746572656400000000000000000000000000000081525060200191505060405180910390fd5b81600160006101000a81548173ffffffffffffffffffffffffffffffffffffffff021916908373ffffffffffffffffffffffffffffffffffffffff16021790555060019050919050565b6000600160009054906101000a900473ffffffffffffffffffffffffffffffffffffffff1673ffffffffffffffffffffffffffffffffffffffff163373ffffffffffffffffffffffffffffffffffffffff161461320b57600080fd5b6000838051906020012060001c9050826009600083815260200190815260200160002060006101000a81548173ffffffffffffffffffffffffffffffffffffffff021916908373ffffffffffffffffffffffffffffffffffffffff160217905550600191505092915050565b60008060009054906101000a900473ffffffffffffffffffffffffffffffffffffffff16905090565b60008060009054906101000a900473ffffffffffffffffffffffffffffffffffffffff1673ffffffffffffffffffffffffffffffffffffffff166132e2614935565b73ffffffffffffffffffffffffffffffffffffffff1614905090565b6005818154811061330b57fe5b906000526020600020016000915054906101000a900473ffffffffffffffffffffffffffffffffffffffff1681565b60608061334633611ebb565b6133b8576040517f08c379a00000000000000000000000000000000000000000000000000000000081526004018080602001828103825260138152602001807f5573657220646f6573206e6f742065786973740000000000000000000000000081525060200191505060405180910390fd5b6060600360003373ffffffffffffffffffffffffffffffffffffffff1673ffffffffffffffffffffffffffffffffffffffff1681526020019081526020016000206000018054600181600116156101000203166002900480601f0160208091040260200160405190810160405280929190818152602001828054600181600116156101000203166002900480156134905780601f1061346557610100808354040283529160200191613490565b820191906000526020600020905b81548152906001019060200180831161347357829003601f168201915b505050505090506060600360003373ffffffffffffffffffffffffffffffffffffffff1673ffffffffffffffffffffffffffffffffffffffff1681526020019081526020016000206001018054600181600116156101000203166002900480601f01602080910402602001604051908101604052809291908181526020018280546001816001161561010002031660029004801561356f5780601f106135445761010080835404028352916020019161356f565b820191906000526020600020905b81548152906001019060200180831161355257829003601f168201915b5050505050905081819350935050509091565b600061358d33611ebb565b6135ff576040517f08c379a00000000000000000000000000000000000000000000000000000000081526004018080602001828103825260138152602001807f5573657220646f6573206e6f742065786973740000000000000000000000000081525060200191505060405180910390fd5b6000828051906020012060001c9050600073ffffffffffffffffffffffffffffffffffffffff166006600083815260200190815260200160002060009054906101000a900473ffffffffffffffffffffffffffffffffffffffff1673ffffffffffffffffffffffffffffffffffffffff16146136e3576040517f08c379a00000000000000000000000000000000000000000000000000000000081526004018080602001828103825260168152602001807f557365726e616d6520616c72656164792074616b656e0000000000000000000081525060200191505060405180910390fd5b6000600360003373ffffffffffffffffffffffffffffffffffffffff1673ffffffffffffffffffffffffffffffffffffffff16815260200190815260200160002060010160405180828054600181600116156101000203166002900480156137825780601f10613760576101008083540402835291820191613782565b820191906000526020600020905b81548152906001019060200180831161376e575b5050915050604051809103902060001c90506006600082815260200190815260200160002060006101000a81549073ffffffffffffffffffffffffffffffffffffffff02191690556137d43385614878565b600192505050919050565b6000600580549050905090565b60006137f733611ebb565b1561386a576040517f08c379a000000000000000000000000000000000000000000000000000000000815260040180806020018281038252600b8152602001807f557365722065786973747300000000000000000000000000000000000000000081525060200191505060405180910390fd5b6138743383614878565b600580549050600360003373ffffffffffffffffffffffffffffffffffffffff1673ffffffffffffffffffffffffffffffffffffffff168152602001908152602001600020600201819055506005339080600181540180825580915050600190039060005260206000200160009091909190916101000a81548173ffffffffffffffffffffffffffffffffffffffff021916908373ffffffffffffffffffffffffffffffffffffffff16021790555060019050919050565b600061393785612055565b15613b225761394533611ebb565b15613aaf5783600260003373ffffffffffffffffffffffffffffffffffffffff1673ffffffffffffffffffffffffffffffffffffffff16815260200190815260200160002060000190805190602001906139a0929190614ac9565b5082600260003373ffffffffffffffffffffffffffffffffffffffff1673ffffffffffffffffffffffffffffffffffffffff16815260200190815260200160002060010190805190602001906139f7929190614ac9565b5081600260003373ffffffffffffffffffffffffffffffffffffffff1673ffffffffffffffffffffffffffffffffffffffff1681526020019081526020016000206002019080519060200190613a4e929190614ac9565b506001600260003373ffffffffffffffffffffffffffffffffffffffff1673ffffffffffffffffffffffffffffffffffffffff16815260200190815260200160002060030160006101000a81548160ff021916908315150217905550613b1d565b6040517f08c379a000000000000000000000000000000000000000000000000000000000815260040180806020018281038252601e8152602001807f4c6f6f6d206163636f756e74206973206e6f742072656769737465726564000081525060200191505060405180910390fd5b613b73565b6040517f08c379a0000000000000000000000000000000000000000000000000000000008152600401808060200182810382526025815260200180614c996025913960400191505060405180910390fd5b60019050949350505050565b60008173ffffffffffffffffffffffffffffffffffffffff168373ffffffffffffffffffffffffffffffffffffffff161415613bbe5760019050613cd3565b60008090505b600460008573ffffffffffffffffffffffffffffffffffffffff1673ffffffffffffffffffffffffffffffffffffffff16815260200190815260200160002080549050811015613ccd578273ffffffffffffffffffffffffffffffffffffffff16600460008673ffffffffffffffffffffffffffffffffffffffff1673ffffffffffffffffffffffffffffffffffffffff1681526020019081526020016000208281548110613c6f57fe5b9060005260206000200160009054906101000a900473ffffffffffffffffffffffffffffffffffffffff1673ffffffffffffffffffffffffffffffffffffffff161415613cc0576001915050613cd3565b8080600101915050613bc4565b50600090505b92915050565b600060011515613ce88461471f565b15151415613d9957600460008473ffffffffffffffffffffffffffffffffffffffff1673ffffffffffffffffffffffffffffffffffffffff168152602001908152602001600020829080600181540180825580915050600190039060005260206000200160009091909190916101000a81548173ffffffffffffffffffffffffffffffffffffffff021916908373ffffffffffffffffffffffffffffffffffffffff16021790555060019050613dea565b6040517f08c379a000000000000000000000000000000000000000000000000000000000815260040180806020018281038252602c815260200180614cbe602c913960400191505060405180910390fd5b92915050565b600080600760003373ffffffffffffffffffffffffffffffffffffffff1673ffffffffffffffffffffffffffffffffffffffff16815260200190815260200160002060000160009054906101000a900473ffffffffffffffffffffffffffffffffffffffff169050613e6181611ebb565b613ed3576040517f08c379a000000000000000000000000000000000000000000000000000000000815260040180806020018281038252601e8152602001807f496e6974696174696e67205573657220646f6573206e6f74206578697374000081525060200191505060405180910390fd5b613edc33611ebb565b613f4e576040517f08c379a000000000000000000000000000000000000000000000000000000000815260040180806020018281038252601e8152602001807f436f6e6669726d696e67205573657220646f6573206e6f74206578697374000081525060200191505060405180910390fd5b8280519060200120600360008373ffffffffffffffffffffffffffffffffffffffff1673ffffffffffffffffffffffffffffffffffffffff1681526020019081526020016000206001016040518082805460018160011615610100020316600290048015613ff35780601f10613fd1576101008083540402835291820191613ff3565b820191906000526020600020905b815481529060010190602001808311613fdf575b50509150506040518091039020141561460757600360003373ffffffffffffffffffffffffffffffffffffffff1673ffffffffffffffffffffffffffffffffffffffff16815260200190815260200160002060010160405180828054600181600116156101000203166002900480156140a35780601f106140815761010080835404028352918201916140a3565b820191906000526020600020905b81548152906001019060200180831161408f575b50509150506040518091039020600760003373ffffffffffffffffffffffffffffffffffffffff1673ffffffffffffffffffffffffffffffffffffffff168152602001908152602001600020600101604051808280546001816001161561010002031660029004801561414d5780601f1061412b57610100808354040283529182019161414d565b820191906000526020600020905b815481529060010190602001808311614139575b5050915050604051809103902014156145b6576000838051906020012060001c90506000600360003373ffffffffffffffffffffffffffffffffffffffff1673ffffffffffffffffffffffffffffffffffffffff168152602001908152602001600020600101604051808280546001816001161561010002031660029004801561420e5780601f106141ec57610100808354040283529182019161420e565b820191906000526020600020905b8154815290600101906020018083116141fa575b5050915050604051809103902060001c9050826006600084815260200190815260200160002060006101000a81548173ffffffffffffffffffffffffffffffffffffffff021916908373ffffffffffffffffffffffffffffffffffffffff160217905550336006600083815260200190815260200160002060006101000a81548173ffffffffffffffffffffffffffffffffffffffff021916908373ffffffffffffffffffffffffffffffffffffffff160217905550600360003373ffffffffffffffffffffffffffffffffffffffff1673ffffffffffffffffffffffffffffffffffffffff168152602001908152602001600020600101600360008573ffffffffffffffffffffffffffffffffffffffff1673ffffffffffffffffffffffffffffffffffffffff1681526020019081526020016000206001019080546001816001161561010002031660029004614367929190614b49565b5084600360003373ffffffffffffffffffffffffffffffffffffffff1673ffffffffffffffffffffffffffffffffffffffff16815260200190815260200160002060010190805190602001906143be929190614ac9565b50600760003373ffffffffffffffffffffffffffffffffffffffff1673ffffffffffffffffffffffffffffffffffffffff168152602001908152602001600020600080820160006101000a81549073ffffffffffffffffffffffffffffffffffffffff02191690556001820160006144369190614a81565b600282016000905550506000600760003373ffffffffffffffffffffffffffffffffffffffff1673ffffffffffffffffffffffffffffffffffffffff168152602001908152602001600020600201549050600060086001600880549050038154811061449e57fe5b9060005260206000200160009054906101000a900473ffffffffffffffffffffffffffffffffffffffff16905080600883815481106144d957fe5b9060005260206000200160006101000a81548173ffffffffffffffffffffffffffffffffffffffff021916908373ffffffffffffffffffffffffffffffffffffffff16021790555081600760008373ffffffffffffffffffffffffffffffffffffffff1673ffffffffffffffffffffffffffffffffffffffff16815260200190815260200160002060020181905550600880548061457357fe5b6001900381819060005260206000200160006101000a81549073ffffffffffffffffffffffffffffffffffffffff02191690559055600195505050505050614658565b6040517f08c379a0000000000000000000000000000000000000000000000000000000008152600401808060200182810382526051815260200180614cea6051913960600191505060405180910390fd5b6040517f08c379a0000000000000000000000000000000000000000000000000000000008152600401808060200182810382526050815260200180614c496050913960600191505060405180910390fd5b919050565b6146656132a0565b6146d7576040517f08c379a00000000000000000000000000000000000000000000000000000000081526004018080602001828103825260208152602001807f4f776e61626c653a2063616c6c6572206973206e6f7420746865206f776e657281525060200191505060405180910390fd5b6146e08161493d565b50565b600881815481106146f057fe5b906000526020600020016000915054906101000a900473ffffffffffffffffffffffffffffffffffffffff1681565b60003373ffffffffffffffffffffffffffffffffffffffff168273ffffffffffffffffffffffffffffffffffffffff16141561475e5760019050614873565b60008090505b600460008473ffffffffffffffffffffffffffffffffffffffff1673ffffffffffffffffffffffffffffffffffffffff1681526020019081526020016000208054905081101561486d573373ffffffffffffffffffffffffffffffffffffffff16600460008573ffffffffffffffffffffffffffffffffffffffff1673ffffffffffffffffffffffffffffffffffffffff168152602001908152602001600020828154811061480f57fe5b9060005260206000200160009054906101000a900473ffffffffffffffffffffffffffffffffffffffff1673ffffffffffffffffffffffffffffffffffffffff161415614860576001915050614873565b8080600101915050614764565b50600090505b919050565b6000818051906020012060001c9050336006600083815260200190815260200160002060006101000a81548173ffffffffffffffffffffffffffffffffffffffff021916908373ffffffffffffffffffffffffffffffffffffffff16021790555081600360008573ffffffffffffffffffffffffffffffffffffffff1673ffffffffffffffffffffffffffffffffffffffff168152602001908152602001600020600101908051906020019061492f929190614ac9565b50505050565b600033905090565b600073ffffffffffffffffffffffffffffffffffffffff168173ffffffffffffffffffffffffffffffffffffffff1614156149c3576040517f08c379a0000000000000000000000000000000000000000000000000000000008152600401808060200182810382526026815260200180614bf66026913960400191505060405180910390fd5b8073ffffffffffffffffffffffffffffffffffffffff166000809054906101000a900473ffffffffffffffffffffffffffffffffffffffff1673ffffffffffffffffffffffffffffffffffffffff167f8be0079c531659141344cd1fd0a4f28419497f9722a3daafe3b4186f6b6457e060405160405180910390a3806000806101000a81548173ffffffffffffffffffffffffffffffffffffffff021916908373ffffffffffffffffffffffffffffffffffffffff16021790555050565b50805460018160011615610100020316600290046000825580601f10614aa75750614ac6565b601f016020900490600052602060002090810190614ac59190614bd0565b5b50565b828054600181600116156101000203166002900490600052602060002090601f016020900481019282601f10614b0a57805160ff1916838001178555614b38565b82800160010185558215614b38579182015b82811115614b37578251825591602001919060010190614b1c565b5b509050614b459190614bd0565b5090565b828054600181600116156101000203166002900490600052602060002090601f016020900481019282601f10614b825780548555614bbf565b82800160010185558215614bbf57600052602060002091601f016020900482015b82811115614bbe578254825591600101919060010190614ba3565b5b509050614bcc9190614bd0565b5090565b614bf291905b80821115614bee576000816000905550600101614bd6565b5090565b9056fe4f776e61626c653a206e6577206f776e657220697320746865207a65726f20616464726573734e61747572616c20526967687473204944206973206e6f74206d617070656420746f206d73672e73656e646572557365726e616d65206d69736d617463683a20636f6e6669726d6572206578706563746564557365724e616d6520646f6573206e6f74206d6174636820696e69746961746f7220757365724e616d65204e61747572616c20526967687473206163636f756e7420646f6573206e6f742065786973744d73672e73656e646572206973206e6f7420617574686f72697a6564206f6e2074686973206163636f756e74557365726e616d65206d69736d617463683a20636f6e6669726d657220757365724e616d6520646f6573206e6f74206d6174636820696e69746961746f727320657870656374656420757365724e616d654e61747572616c20526967687473206163636f756e7420496420646f6573206e6f74206d6174636820612055736572204e616d65a2646970667358221220b416173b7c5f2ac4e51c7350dca282ad4a16978067e4e8f7af08ae11bfe5765464736f6c63430006030033",
  "source": "pragma solidity ^0.6.3;\n\nimport \"../node_modules/openzeppelin-solidity/contracts/ownership/Ownable.sol\";\n// import \"openzeppelin-solidity/contracts/ownership/Ownable.sol\";\n\ncontract Accounts is Ownable {\n\n    // The address of the Natural Rights Server Testing\n    address public naturalRightsAddress;\n\n    /// @dev Access modifier for NR-only functionality\n    modifier onlyNR() {\n        require(msg.sender == naturalRightsAddress);\n        _;\n    }\n\n    struct privUserStruct {\n        string cryptPubKey;\n        string encCryptPrivKey;\n        string encSignPrivKey;\n        bool recordExists;\n    }\n    struct pubUserStruct {\n        string naturalRightsId;\n        string userName;\n        uint listPointer;\n    }\n    \n    struct userNameTransfer {\n        address initiator;\n        string initExpectedUserName;\n        uint listPointer;\n        // bool paymentMade\n    }\n\n    mapping (address => privUserStruct) userPriv; // private account backup\n    mapping (address => pubUserStruct) userPub; // Loom address to public identifiers\n    mapping (address => address[]) delegatedSigner; // delegated signers for account address\n    address[] public userList; // user index\n    mapping (uint256 => address) userNameOwner; // maps userName to Loom address\n    mapping (address => userNameTransfer) userNameTransferQueue; // Queues userName transfer from initiator (value) to comfirmer (key)\n    address[] public userNameTransferList; // List of username confirmers\n    mapping (uint256 => address) naturalRightsOwner; // maps NR ID to Loom address\n    \n    // Only contract owner may change Natural Rights Server\n    function setNaturalRightsServer(address _newNaturalRights) public onlyOwner returns(bool success) {\n        require(_newNaturalRights != address(0), \"Address 0 entered\");\n        naturalRightsAddress = _newNaturalRights;\n        return true;\n    }\n    \n    // Only Natural Rights server may add users\n    function addUser(string memory _naturalRightsId, address _loomAddr) public onlyNR returns(bool success) {\n        uint256 naturalRightsIdHash = uint256(keccak256(bytes(_naturalRightsId)));\n        naturalRightsOwner[naturalRightsIdHash] = _loomAddr;\n        return true;\n    }\n    \n    // Is user added by NR\n    function isHavenUser(string memory _naturalRightsId) public view returns(bool isIndeed) {\n        uint256 naturalRightsIdHash = uint256(keccak256(bytes(_naturalRightsId)));\n        if(naturalRightsOwner[naturalRightsIdHash] != address(0)) {\n            return true;\n        }\n        return false;\n    }\n    \n    // Is user active\n    function isUserPub(address _loomAddr) public view returns(bool isIndeed) {\n        if(userList.length == 0) return false;\n        return (userList[userPub[_loomAddr].listPointer] == _loomAddr);\n    }\n\n    // Is user priv stored for account\n    function isUserPriv() public view returns(bool isIndeed) {\n        return(userPriv[msg.sender].recordExists);\n    }\n    \n    // Loom address of Haven User\n    function havenUserAddress(string memory _naturalRightsId) public view returns(address loomAddress) {\n        uint256 naturalRightsIdHash = uint256(keccak256(bytes(_naturalRightsId)));\n        return naturalRightsOwner[naturalRightsIdHash];\n    }\n\n    // Number of active users\n    function getUserCount() public view returns(uint userCount) {\n        return userList.length;\n    }\n    \n    function isUserName(string memory _userName) public view returns(bool isIndeed) {\n        uint256 userNameHash = uint256(keccak256(bytes(_userName)));\n        if(userNameOwner[userNameHash] != address(0)) {\n            return true;\n        } else {\n            return false;\n        }\n    }\n    \n    function getUserName(string memory _naturalRightsId) public view returns(string memory) {\n        uint256 naturalRightsIdHash = uint256(keccak256(bytes(_naturalRightsId)));\n        address loomAcctAddr = naturalRightsOwner[naturalRightsIdHash];\n        if(loomAcctAddr != address(0)) {\n            string memory loomUserName = userPub[loomAcctAddr].userName;\n            return loomUserName;\n        }\n            revert('Natural Rights account Id does not match a User Name');\n    }\n    \n    // Is msg.sender authorized to sign for the account?\n    function isAuthorized(address _acctAddr) public view returns(bool isIndeed) {\n        if(_acctAddr == msg.sender) {\n            return true;\n        }\n        for(uint i = 0; i<delegatedSigner[_acctAddr].length; i++) {\n            if(delegatedSigner[_acctAddr][i] == msg.sender) {\n                return true;\n            }\n        }\n        return false;\n    }\n\n    // Is address authorized to sign for the account address?  Used for delegate checks on external contracts.\n    function isDevAuthorized(address _acctAddr, address _devAddr) external view returns(bool isIndeed) {\n        if(_acctAddr == _devAddr) {\n            return true;\n        }\n        for(uint i = 0; i<delegatedSigner[_acctAddr].length; i++) {\n            if(delegatedSigner[_acctAddr][i] == _devAddr) {\n                return true;\n            }\n        }\n        return false;\n    }\n    \n    // Add delegate signer for account \n    function addDelegate(address _acctAddr, address _deviceAddr) public returns(bool Success) {\n        if(isAuthorized(_acctAddr) == true) {\n            delegatedSigner[_acctAddr].push(_deviceAddr);\n            return true;\n        } else {\n            revert('Msg.sender is not authorized on this account');\n        }\n    }\n    \n    // Remove delegate signer for account\n    function removeDelegate(address _acctAddr, address _deviceAddr) public returns(bool Success) {\n        if(isAuthorized(_acctAddr) == true) {\n            uint delegateIndex;\n            for(uint i = 0; i<delegatedSigner[_acctAddr].length; i++) {\n                if(delegatedSigner[_acctAddr][i] == _deviceAddr) {\n                    delegateIndex = i;\n                }\n            }\n            uint delegateLength = delegatedSigner[_acctAddr].length;\n            if (delegateLength > 1) {\n                delegatedSigner[_acctAddr][delegateIndex] = delegatedSigner[_acctAddr][delegateLength-1];\n            }\n            delegatedSigner[_acctAddr].pop();\n            return true;\n        } else {\n            revert('Msg.sender is not authorized on this account');\n        }\n    }\n    \n    // List delegate signers for account\n    function listDelegates(address _acctAddr) public view returns(address[] memory) {\n        address[] memory addrArray = delegatedSigner[_acctAddr];\n        return addrArray;\n    }\n    \n    function setUserName(address _acctAddr, string memory _userName) private {\n        uint256 userNameHash = uint256(keccak256(bytes(_userName)));\n        userNameOwner[userNameHash] = msg.sender;\n        userPub[_acctAddr].userName = _userName;\n    }\n    \n    // user initializes the public users structs to become active\n    function initUserPub(address _acctAddr, string memory _naturalRightsId, string memory _userName) public returns(bool success) {\n        if(isAuthorized(_acctAddr) == true) {\n            if(isHavenUser(_naturalRightsId)) {\n                if(isUserPub(_acctAddr)) {\n                    revert (\"User is already registered\");\n                } else {\n                    uint256 userNameHash = uint256(keccak256(bytes(_userName)));\n                    if(userNameOwner[userNameHash] != address(0)) {\n                        revert (\"Username already taken\");\n                    } else {\n                        uint256 naturalRightsIdHash = uint256(keccak256(bytes(_naturalRightsId)));\n                        if(naturalRightsOwner[naturalRightsIdHash] == _acctAddr) {\n                            userPub[_acctAddr].naturalRightsId = _naturalRightsId;\n                            userPub[_acctAddr].listPointer = userList.length;\n                            setUserName(_acctAddr, _userName);\n                            userList.push(_acctAddr);\n                            return true;\n                        } else {\n                            revert(\"Natural Rights ID is not mapped to msg.sender\");\n                        }\n                    }\n                }\n            } else {\n                revert(\"Natural Rights account does not exist\");\n            }\n        }\n    }\n\n    // user initializes the private users structs to become active\n    function initUserPriv(string memory _naturalRightsId, string memory _cryptPubKey, string memory _encCryptPrivKey, string memory _encSignPrivKey) public returns(bool success) {\n        if(isHavenUser(_naturalRightsId)) {\n            if(isUserPub(msg.sender)) {\n                userPriv[msg.sender].cryptPubKey = _cryptPubKey;\n                userPriv[msg.sender].encCryptPrivKey = _encCryptPrivKey;\n                userPriv[msg.sender].encSignPrivKey = _encSignPrivKey;\n                userPriv[msg.sender].recordExists = true;\n            } else {\n                revert (\"Loom account is not registered\");\n            }\n        } else {\n            revert(\"Natural Rights account does not exist\");\n        }\n        return true;\n    }\n\n    function updateUserPriv(string memory _cryptPubKey, string memory _encCryptPrivKey, string memory _encSignPrivKey) public returns(bool success) {\n        if(!isUserPub(msg.sender)) {\n            revert('User does not exist');\n        }\n        userPriv[msg.sender].cryptPubKey = _cryptPubKey;\n        userPriv[msg.sender].encCryptPrivKey = _encCryptPrivKey;\n        userPriv[msg.sender].encSignPrivKey = _encSignPrivKey;\n        return true;\n    }\n\n    function updateUserName(string memory _newUserName) public returns(bool success) {\n        if(!isUserPub(msg.sender)) {\n            revert('User does not exist');\n        }\n        uint256 userNameHash = uint256(keccak256(bytes(_newUserName)));\n        if(userNameOwner[userNameHash] != address(0)) {\n            revert (\"Username already taken\");\n        } else {\n        uint256 oldUserNameHash = uint256(keccak256(bytes(userPub[msg.sender].userName)));\n        delete userNameOwner[oldUserNameHash];\n        setUserName(msg.sender, _newUserName);\n        return true;\n        }\n    }\n\n    function initTransferUsername(address confirmAddr, string memory expectedUserName) public returns(bool success) {\n        if(!isUserPub(msg.sender)) {\n            revert('Initiating User does not exist');\n        }\n        if(!isUserPub(confirmAddr)) {\n            revert('Confirming User does not exist');\n        }\n        if(keccak256(bytes(userPub[confirmAddr].userName)) == keccak256(bytes(expectedUserName))) {\n            userNameTransferQueue[confirmAddr].initiator = msg.sender;\n            userNameTransferQueue[confirmAddr].listPointer = userNameTransferList.length;\n            userNameTransferList.push(confirmAddr);\n        }\n        return true;\n    }\n\n    function confirmTransferUsername(string memory expectedUserName) public returns(bool success) {\n        address initiator = userNameTransferQueue[msg.sender].initiator;\n        if(!isUserPub(initiator)) {\n            revert('Initiating User does not exist');\n        }\n        if(!isUserPub(msg.sender)) {\n            revert('Confirming User does not exist');\n        }\n        if(keccak256(bytes(userPub[initiator].userName)) == keccak256(bytes(expectedUserName))) {\n            if(keccak256(bytes(userNameTransferQueue[msg.sender].initExpectedUserName)) == keccak256(bytes(userPub[msg.sender].userName))) {\n                uint256 expectedUserNameHash = uint256(keccak256(bytes(expectedUserName)));\n                uint256 confirmUserNameHash = uint256(keccak256(bytes(userPub[msg.sender].userName)));\n                userNameOwner[expectedUserNameHash] = initiator;\n                userNameOwner[confirmUserNameHash] = msg.sender;\n                userPub[initiator].userName = userPub[msg.sender].userName;\n                userPub[msg.sender].userName = expectedUserName;\n                // Remove the userName transfer queue and row in list\n                delete userNameTransferQueue[msg.sender];\n                uint rowToDelete = userNameTransferQueue[msg.sender].listPointer;\n                address keyToMove = userNameTransferList[userNameTransferList.length-1];\n                userNameTransferList[rowToDelete] = keyToMove;\n                userNameTransferQueue[keyToMove].listPointer = rowToDelete;\n                userNameTransferList.pop();\n                return true;\n            } else {\n                revert('Username mismatch: confirmer userName does not match initiators expected userName');\n            }\n        } else {\n            revert('Username mismatch: confirmer expectedUserName does not match initiator userName ');\n        }\n    }\n\n    // deletes the user from the userList and also deletes the userName. userPriv and NR account mapping left for recovery\n    function deleteUser() public returns(bool success) {\n        if(!isUserPub(msg.sender)) {\n            revert('User does not exist');\n        }\n        uint rowToDelete = userPub[msg.sender].listPointer;\n        address keyToMove = userList[userList.length-1];\n        userList[rowToDelete] = keyToMove;\n        userPub[keyToMove].listPointer = rowToDelete;\n        userList.pop();\n        uint256 userNameHash = uint256(keccak256(bytes(userPub[msg.sender].userName)));\n        delete userNameOwner[userNameHash];\n        delete userPub[msg.sender].userName; \n        return true;\n    }\n\n    // Used to recover the natural rights encrypted private keys\n    function recoverUserPriv() public view returns(string memory, string memory, string memory) {\n        if(!isUserPub(msg.sender)) {\n            revert('User does not exist');\n        }\n        string memory cryptPubKey = userPriv[msg.sender].cryptPubKey;\n        string memory encCryptPrivKey = userPriv[msg.sender].encCryptPrivKey;\n        string memory encSignPrivKey = userPriv[msg.sender].encSignPrivKey;\n        return (cryptPubKey, encCryptPrivKey, encSignPrivKey);\n    }\n\n    // Used to recover the user public identifiers\n    function recoverUserPub() public view returns(string memory, string memory) {\n        if(!isUserPub(msg.sender)) {\n            revert('User does not exist');\n        }\n        string memory naturalRightsId =  userPub[msg.sender].naturalRightsId;\n        string memory userName = userPub[msg.sender].userName;\n        return (naturalRightsId, userName);\n    }\n    \n    // Reactivate previously deleted user\n    function restoreUser(string memory userName) public returns(bool success) {\n        if(isUserPub(msg.sender)) {\n            revert('User exists');\n        }\n        setUserName(msg.sender, userName);\n        userPub[msg.sender].listPointer = userList.length; \n        userList.push(msg.sender);\n        return true;\n    }\n}\n",
  "sourcePath": "/home/charles/Projects/gitlab/haven-truffle/contracts/Accounts.sol",
  "compiler": {
    "name": "solc",
    "version": "0.6.3+commit.8dda9521.Emscripten.clang"
  },
  "schemaVersion": "3.0.23",
  "updatedAt": "2020-03-02T01:23:41.211Z",
  "networkType": "ethereum",
  "devdoc": {
    "methods": {
      "isOwner()": {
        "details": "Returns true if the caller is the current owner."
      },
      "owner()": {
        "details": "Returns the address of the current owner."
      },
      "renounceOwnership()": {
        "details": "Leaves the contract without owner. It will not be possible to call `onlyOwner` functions anymore. Can only be called by the current owner.     * NOTE: Renouncing ownership will leave the contract without an owner, thereby removing any functionality that is only available to the owner."
      },
      "transferOwnership(address)": {
        "details": "Transfers ownership of the contract to a new account (`newOwner`). Can only be called by the current owner."
      }
    }
  },
  "userdoc": {
    "methods": {}
  }
}