{
  "contractName": "Documents",
  "abi": [
    {
      "inputs": [
        {
          "internalType": "address",
          "name": "acctContAddr",
          "type": "address"
        },
        {
          "internalType": "address",
          "name": "walletContAddr",
          "type": "address"
        }
      ],
      "stateMutability": "nonpayable",
      "type": "constructor"
    },
    {
      "anonymous": false,
      "inputs": [
        {
          "indexed": false,
          "internalType": "string",
          "name": "naturalRightsId",
          "type": "string"
        },
        {
          "indexed": false,
          "internalType": "string",
          "name": "parentNrId",
          "type": "string"
        },
        {
          "indexed": false,
          "internalType": "uint256",
          "name": "timestamp",
          "type": "uint256"
        }
      ],
      "name": "AddDocument",
      "type": "event"
    },
    {
      "anonymous": false,
      "inputs": [
        {
          "indexed": true,
          "internalType": "address",
          "name": "previousOwner",
          "type": "address"
        },
        {
          "indexed": true,
          "internalType": "address",
          "name": "newOwner",
          "type": "address"
        }
      ],
      "name": "OwnershipTransferred",
      "type": "event"
    },
    {
      "anonymous": false,
      "inputs": [
        {
          "indexed": false,
          "internalType": "string",
          "name": "naturalRightsId",
          "type": "string"
        },
        {
          "indexed": false,
          "internalType": "uint256",
          "name": "value",
          "type": "uint256"
        }
      ],
      "name": "TipDocument",
      "type": "event"
    },
    {
      "inputs": [],
      "name": "accountContractAddress",
      "outputs": [
        {
          "internalType": "address",
          "name": "",
          "type": "address"
        }
      ],
      "stateMutability": "view",
      "type": "function",
      "constant": true
    },
    {
      "inputs": [],
      "name": "isOwner",
      "outputs": [
        {
          "internalType": "bool",
          "name": "",
          "type": "bool"
        }
      ],
      "stateMutability": "view",
      "type": "function",
      "constant": true
    },
    {
      "inputs": [],
      "name": "owner",
      "outputs": [
        {
          "internalType": "address",
          "name": "",
          "type": "address"
        }
      ],
      "stateMutability": "view",
      "type": "function",
      "constant": true
    },
    {
      "inputs": [],
      "name": "renounceOwnership",
      "outputs": [],
      "stateMutability": "nonpayable",
      "type": "function"
    },
    {
      "inputs": [
        {
          "internalType": "address",
          "name": "newOwner",
          "type": "address"
        }
      ],
      "name": "transferOwnership",
      "outputs": [],
      "stateMutability": "nonpayable",
      "type": "function"
    },
    {
      "inputs": [],
      "name": "walletContractAddress",
      "outputs": [
        {
          "internalType": "address",
          "name": "",
          "type": "address"
        }
      ],
      "stateMutability": "view",
      "type": "function",
      "constant": true
    },
    {
      "inputs": [
        {
          "internalType": "address",
          "name": "_newAcctContAddr",
          "type": "address"
        }
      ],
      "name": "setAccountContract",
      "outputs": [
        {
          "internalType": "bool",
          "name": "success",
          "type": "bool"
        }
      ],
      "stateMutability": "nonpayable",
      "type": "function"
    },
    {
      "inputs": [
        {
          "internalType": "address",
          "name": "_newAcctContAddr",
          "type": "address"
        }
      ],
      "name": "setWalletContract",
      "outputs": [
        {
          "internalType": "bool",
          "name": "success",
          "type": "bool"
        }
      ],
      "stateMutability": "nonpayable",
      "type": "function"
    },
    {
      "inputs": [
        {
          "internalType": "address",
          "name": "_acctAddr",
          "type": "address"
        }
      ],
      "name": "isDevAuthorized",
      "outputs": [
        {
          "internalType": "bool",
          "name": "isIndeed",
          "type": "bool"
        }
      ],
      "stateMutability": "nonpayable",
      "type": "function"
    },
    {
      "inputs": [
        {
          "internalType": "string",
          "name": "_naturalRightsId",
          "type": "string"
        },
        {
          "internalType": "string",
          "name": "_parentNrId",
          "type": "string"
        },
        {
          "internalType": "address",
          "name": "_acctAddr",
          "type": "address"
        }
      ],
      "name": "addDocument",
      "outputs": [
        {
          "internalType": "bool",
          "name": "success",
          "type": "bool"
        }
      ],
      "stateMutability": "nonpayable",
      "type": "function"
    },
    {
      "inputs": [
        {
          "internalType": "string",
          "name": "_naturalRightsId",
          "type": "string"
        },
        {
          "internalType": "address",
          "name": "_acctAddr",
          "type": "address"
        },
        {
          "internalType": "uint256",
          "name": "value",
          "type": "uint256"
        }
      ],
      "name": "tipDocument",
      "outputs": [
        {
          "internalType": "bool",
          "name": "success",
          "type": "bool"
        }
      ],
      "stateMutability": "nonpayable",
      "type": "function"
    },
    {
      "inputs": [
        {
          "internalType": "string",
          "name": "_naturalRightsId",
          "type": "string"
        }
      ],
      "name": "getKudosEarned",
      "outputs": [
        {
          "internalType": "uint256",
          "name": "value",
          "type": "uint256"
        }
      ],
      "stateMutability": "view",
      "type": "function",
      "constant": true
    }
  ],
  "bytecode": "0x608060405234801561001057600080fd5b50604051611e1a380380611e1a8339818101604052604081101561003357600080fd5b810190808051906020019092919080519060200190929190505050600061005e61018560201b60201c565b9050806000806101000a81548173ffffffffffffffffffffffffffffffffffffffff021916908373ffffffffffffffffffffffffffffffffffffffff1602179055508073ffffffffffffffffffffffffffffffffffffffff16600073ffffffffffffffffffffffffffffffffffffffff167f8be0079c531659141344cd1fd0a4f28419497f9722a3daafe3b4186f6b6457e060405160405180910390a35081600160006101000a81548173ffffffffffffffffffffffffffffffffffffffff021916908373ffffffffffffffffffffffffffffffffffffffff16021790555080600260006101000a81548173ffffffffffffffffffffffffffffffffffffffff021916908373ffffffffffffffffffffffffffffffffffffffff160217905550505061018d565b600033905090565b611c7e8061019c6000396000f3fe608060405234801561001057600080fd5b50600436106100b45760003560e01c80638da5cb5b116100715780638da5cb5b146103915780638f32d59b146103db5780639903c339146103fd578063c3d8b22814610587578063f2fde38b146105d1578063faeac1fb14610615576100b4565b806327ccdbc5146100b95780633f7a0dfe1461011557806347d94e5514610212578063589c1bb41461026e578063715018a6146102b85780638364c948146102c2575b600080fd5b6100fb600480360360208110156100cf57600080fd5b81019080803573ffffffffffffffffffffffffffffffffffffffff169060200190929190505050610671565b604051808215151515815260200191505060405180910390f35b6101f86004803603606081101561012b57600080fd5b810190808035906020019064010000000081111561014857600080fd5b82018360208201111561015a57600080fd5b8035906020019184600183028401116401000000008311171561017c57600080fd5b91908080601f016020809104026020016040519081016040528093929190818152602001838380828437600081840152601f19601f820116905080830192505050505050509192919290803573ffffffffffffffffffffffffffffffffffffffff169060200190929190803590602001909291905050506107da565b604051808215151515815260200191505060405180910390f35b6102546004803603602081101561022857600080fd5b81019080803573ffffffffffffffffffffffffffffffffffffffff1690602001909291905050506110d5565b604051808215151515815260200191505060405180910390f35b61027661123e565b604051808273ffffffffffffffffffffffffffffffffffffffff1673ffffffffffffffffffffffffffffffffffffffff16815260200191505060405180910390f35b6102c0611264565b005b61037b600480360360208110156102d857600080fd5b81019080803590602001906401000000008111156102f557600080fd5b82018360208201111561030757600080fd5b8035906020019184600183028401116401000000008311171561032957600080fd5b91908080601f016020809104026020016040519081016040528093929190818152602001838380828437600081840152601f19601f82011690508083019250505050505050919291929050505061139d565b6040518082815260200191505060405180910390f35b6103996114a5565b604051808273ffffffffffffffffffffffffffffffffffffffff1673ffffffffffffffffffffffffffffffffffffffff16815260200191505060405180910390f35b6103e36114ce565b604051808215151515815260200191505060405180910390f35b61056d6004803603606081101561041357600080fd5b810190808035906020019064010000000081111561043057600080fd5b82018360208201111561044257600080fd5b8035906020019184600183028401116401000000008311171561046457600080fd5b91908080601f016020809104026020016040519081016040528093929190818152602001838380828437600081840152601f19601f820116905080830192505050505050509192919290803590602001906401000000008111156104c757600080fd5b8201836020820111156104d957600080fd5b803590602001918460018302840111640100000000831117156104fb57600080fd5b91908080601f016020809104026020016040519081016040528093929190818152602001838380828437600081840152601f19601f820116905080830192505050505050509192919290803573ffffffffffffffffffffffffffffffffffffffff16906020019092919050505061152c565b604051808215151515815260200191505060405180910390f35b61058f611847565b604051808273ffffffffffffffffffffffffffffffffffffffff1673ffffffffffffffffffffffffffffffffffffffff16815260200191505060405180910390f35b610613600480360360208110156105e757600080fd5b81019080803573ffffffffffffffffffffffffffffffffffffffff16906020019092919050505061186d565b005b6106576004803603602081101561062b57600080fd5b81019080803573ffffffffffffffffffffffffffffffffffffffff1690602001909291905050506118f3565b604051808215151515815260200191505060405180910390f35b600061067b6114ce565b6106ed576040517f08c379a00000000000000000000000000000000000000000000000000000000081526004018080602001828103825260208152602001807f4f776e61626c653a2063616c6c6572206973206e6f7420746865206f776e657281525060200191505060405180910390fd5b600073ffffffffffffffffffffffffffffffffffffffff168273ffffffffffffffffffffffffffffffffffffffff161415610790576040517f08c379a00000000000000000000000000000000000000000000000000000000081526004018080602001828103825260188152602001807f61646472657373206d757374206e6f7420657175616c2030000000000000000081525060200191505060405180910390fd5b81600160006101000a81548173ffffffffffffffffffffffffffffffffffffffff021916908373ffffffffffffffffffffffffffffffffffffffff16021790555060019050919050565b60006107e5836118f3565b61083a576040517f08c379a0000000000000000000000000000000000000000000000000000000008152600401808060200182810382526025815260200180611c246025913960400191505060405180910390fd5b81600260009054906101000a900473ffffffffffffffffffffffffffffffffffffffff1673ffffffffffffffffffffffffffffffffffffffff1663de59f79c856040518263ffffffff1660e01b8152600401808273ffffffffffffffffffffffffffffffffffffffff1673ffffffffffffffffffffffffffffffffffffffff168152602001915050602060405180830381600087803b1580156108dc57600080fd5b505af11580156108f0573d6000803e3d6000fd5b505050506040513d602081101561090657600080fd5b8101908080519060200190929190505050101561098b576040517f08c379a00000000000000000000000000000000000000000000000000000000081526004018080602001828103825260178152602001807f6163636f756e742062616c616e636520746f6f206c6f7700000000000000000081525060200191505060405180910390fd5b6000848051906020012060001c9050600073ffffffffffffffffffffffffffffffffffffffff166005600083815260200190815260200160002060020160009054906101000a900473ffffffffffffffffffffffffffffffffffffffff1673ffffffffffffffffffffffffffffffffffffffff161415610a73576040517f08c379a000000000000000000000000000000000000000000000000000000000815260040180806020018281038252601c8152602001807f646f63756d656e7420646f6573206e6f742068617665206f776e65720000000081525060200191505060405180910390fd5b60606040518060400160405280600381526020017f746f7000000000000000000000000000000000000000000000000000000000008152509050806040516020018082805190602001908083835b60208310610ae45780518252602082019150602081019050602083039250610ac1565b6001836020036101000a03801982511681845116808217855250505050505090500191505060405160208183030381529060405280519060200120600560008481526020019081526020016000206001016040516020018082805460018160011615610100020316600290048015610b935780601f10610b71576101008083540402835291820191610b93565b820191906000526020600020905b815481529060010190602001808311610b7f575b5050915050604051602081830303815290604052805190602001201415610dd057836005600084815260200190815260200160002060040160008282540192505081905550600260009054906101000a900473ffffffffffffffffffffffffffffffffffffffff1673ffffffffffffffffffffffffffffffffffffffff16634a9a0ae9866005600086815260200190815260200160002060020160009054906101000a900473ffffffffffffffffffffffffffffffffffffffff16876040518463ffffffff1660e01b8152600401808473ffffffffffffffffffffffffffffffffffffffff1673ffffffffffffffffffffffffffffffffffffffff1681526020018373ffffffffffffffffffffffffffffffffffffffff1673ffffffffffffffffffffffffffffffffffffffff1681526020018281526020019350505050602060405180830381600087803b158015610ceb57600080fd5b505af1158015610cff573d6000803e3d6000fd5b505050506040513d6020811015610d1557600080fd5b8101908080519060200190929190505050507f3dce480fbf049ba9c7b39c5494e9b4a7d540aad5f98bcd9e1e54aff81143ceb886856040518080602001838152602001828103825284818151815260200191508051906020019080838360005b83811015610d90578082015181840152602081019050610d75565b50505050905090810190601f168015610dbd5780820380516001836020036101000a031916815260200191505b50935050505060405180910390a16110c8565b6000600a6009860281610ddf57fe5b0490506000600a6001870281610df157fe5b049050816005600086815260200190815260200160002060040160008282540192505081905550600260009054906101000a900473ffffffffffffffffffffffffffffffffffffffff1673ffffffffffffffffffffffffffffffffffffffff16634a9a0ae9886005600088815260200190815260200160002060020160009054906101000a900473ffffffffffffffffffffffffffffffffffffffff16856040518463ffffffff1660e01b8152600401808473ffffffffffffffffffffffffffffffffffffffff1673ffffffffffffffffffffffffffffffffffffffff1681526020018373ffffffffffffffffffffffffffffffffffffffff1673ffffffffffffffffffffffffffffffffffffffff1681526020018281526020019350505050602060405180830381600087803b158015610f2b57600080fd5b505af1158015610f3f573d6000803e3d6000fd5b505050506040513d6020811015610f5557600080fd5b810190808051906020019092919050505050611020600560008681526020019081526020016000206001018054600181600116156101000203166002900480601f0160208091040260200160405190810160405280929190818152602001828054600181600116156101000203166002900480156110145780601f10610fe957610100808354040283529160200191611014565b820191906000526020600020905b815481529060010190602001808311610ff757829003601f168201915b505050505088836107da565b507f3dce480fbf049ba9c7b39c5494e9b4a7d540aad5f98bcd9e1e54aff81143ceb888836040518080602001838152602001828103825284818151815260200191508051906020019080838360005b8381101561108a57808201518184015260208101905061106f565b50505050905090810190601f1680156110b75780820380516001836020036101000a031916815260200191505b50935050505060405180910390a150505b6001925050509392505050565b60006110df6114ce565b611151576040517f08c379a00000000000000000000000000000000000000000000000000000000081526004018080602001828103825260208152602001807f4f776e61626c653a2063616c6c6572206973206e6f7420746865206f776e657281525060200191505060405180910390fd5b600073ffffffffffffffffffffffffffffffffffffffff168273ffffffffffffffffffffffffffffffffffffffff1614156111f4576040517f08c379a00000000000000000000000000000000000000000000000000000000081526004018080602001828103825260188152602001807f61646472657373206d757374206e6f7420657175616c2030000000000000000081525060200191505060405180910390fd5b81600160006101000a81548173ffffffffffffffffffffffffffffffffffffffff021916908373ffffffffffffffffffffffffffffffffffffffff16021790555060019050919050565b600360009054906101000a900473ffffffffffffffffffffffffffffffffffffffff1681565b61126c6114ce565b6112de576040517f08c379a00000000000000000000000000000000000000000000000000000000081526004018080602001828103825260208152602001807f4f776e61626c653a2063616c6c6572206973206e6f7420746865206f776e657281525060200191505060405180910390fd5b600073ffffffffffffffffffffffffffffffffffffffff166000809054906101000a900473ffffffffffffffffffffffffffffffffffffffff1673ffffffffffffffffffffffffffffffffffffffff167f8be0079c531659141344cd1fd0a4f28419497f9722a3daafe3b4186f6b6457e060405160405180910390a360008060006101000a81548173ffffffffffffffffffffffffffffffffffffffff021916908373ffffffffffffffffffffffffffffffffffffffff160217905550565b600080828051906020012060001c9050600073ffffffffffffffffffffffffffffffffffffffff166005600083815260200190815260200160002060020160009054906101000a900473ffffffffffffffffffffffffffffffffffffffff1673ffffffffffffffffffffffffffffffffffffffff161415611486576040517f08c379a000000000000000000000000000000000000000000000000000000000815260040180806020018281038252601c8152602001807f646f63756d656e7420646f6573206e6f742068617665206f776e65720000000081525060200191505060405180910390fd5b6005600082815260200190815260200160002060040154915050919050565b60008060009054906101000a900473ffffffffffffffffffffffffffffffffffffffff16905090565b60008060009054906101000a900473ffffffffffffffffffffffffffffffffffffffff1673ffffffffffffffffffffffffffffffffffffffff16611510611a0c565b73ffffffffffffffffffffffffffffffffffffffff1614905090565b6000611537826118f3565b61158c576040517f08c379a0000000000000000000000000000000000000000000000000000000008152600401808060200182810382526025815260200180611c246025913960400191505060405180910390fd5b6000848051906020012060001c9050600073ffffffffffffffffffffffffffffffffffffffff166005600083815260200190815260200160002060020160009054906101000a900473ffffffffffffffffffffffffffffffffffffffff1673ffffffffffffffffffffffffffffffffffffffff1614611673576040517f08c379a00000000000000000000000000000000000000000000000000000000081526004018080602001828103825260178152602001807f646f63756d656e7420616c72656164792065786973747300000000000000000081525060200191505060405180910390fd5b8360056000838152602001908152602001600020600101908051906020019061169d929190611b58565b50826005600083815260200190815260200160002060020160006101000a81548173ffffffffffffffffffffffffffffffffffffffff021916908373ffffffffffffffffffffffffffffffffffffffff160217905550426005600083815260200190815260200160002060030181905550600060056000838152602001908152602001600020600401819055507f445743ed1e17a52efe34598556f840edf5c03d97387ff137fe40fe470f25ba8d858542604051808060200180602001848152602001838103835286818151815260200191508051906020019080838360005b8381101561179857808201518184015260208101905061177d565b50505050905090810190601f1680156117c55780820380516001836020036101000a031916815260200191505b50838103825285818151815260200191508051906020019080838360005b838110156117fe5780820151818401526020810190506117e3565b50505050905090810190601f16801561182b5780820380516001836020036101000a031916815260200191505b509550505050505060405180910390a160019150509392505050565b600460009054906101000a900473ffffffffffffffffffffffffffffffffffffffff1681565b6118756114ce565b6118e7576040517f08c379a00000000000000000000000000000000000000000000000000000000081526004018080602001828103825260208152602001807f4f776e61626c653a2063616c6c6572206973206e6f7420746865206f776e657281525060200191505060405180910390fd5b6118f081611a14565b50565b6000600160009054906101000a900473ffffffffffffffffffffffffffffffffffffffff1673ffffffffffffffffffffffffffffffffffffffff1663e56f9af883336040518363ffffffff1660e01b8152600401808373ffffffffffffffffffffffffffffffffffffffff1673ffffffffffffffffffffffffffffffffffffffff1681526020018273ffffffffffffffffffffffffffffffffffffffff1673ffffffffffffffffffffffffffffffffffffffff16815260200192505050602060405180830381600087803b1580156119ca57600080fd5b505af11580156119de573d6000803e3d6000fd5b505050506040513d60208110156119f457600080fd5b81019080805190602001909291905050509050919050565b600033905090565b600073ffffffffffffffffffffffffffffffffffffffff168173ffffffffffffffffffffffffffffffffffffffff161415611a9a576040517f08c379a0000000000000000000000000000000000000000000000000000000008152600401808060200182810382526026815260200180611bfe6026913960400191505060405180910390fd5b8073ffffffffffffffffffffffffffffffffffffffff166000809054906101000a900473ffffffffffffffffffffffffffffffffffffffff1673ffffffffffffffffffffffffffffffffffffffff167f8be0079c531659141344cd1fd0a4f28419497f9722a3daafe3b4186f6b6457e060405160405180910390a3806000806101000a81548173ffffffffffffffffffffffffffffffffffffffff021916908373ffffffffffffffffffffffffffffffffffffffff16021790555050565b828054600181600116156101000203166002900490600052602060002090601f016020900481019282601f10611b9957805160ff1916838001178555611bc7565b82800160010185558215611bc7579182015b82811115611bc6578251825591602001919060010190611bab565b5b509050611bd49190611bd8565b5090565b611bfa91905b80821115611bf6576000816000905550600101611bde565b5090565b9056fe4f776e61626c653a206e6577206f776e657220697320746865207a65726f20616464726573736d73672e73656e646572206e6f7420617574686f72697a656420666f72206163636f756e74a264697066735822122089e4bfb48a434920baf7e73ae1f68774750c68d47bb4a947c07178a08d18703a64736f6c63430006030033",
  "source": "pragma solidity ^0.6.3;\n\n// import \"openzeppelin-solidity/contracts/ownership/Ownable.sol\";\nimport \"../node_modules/openzeppelin-solidity/contracts/ownership/Ownable.sol\";\n\ninterface AcctCont {\n    function isDevAuthorized(address, address) external returns (bool);\n}\n\ninterface WalletCont {\n    function getAcctBal(address) external returns(uint256 value);\n    function transferKudosDoc(address, address, uint256) external returns(bool success);\n}\n\ncontract Documents is Ownable {\n\n    AcctCont ac;\n    WalletCont wc;\n\n    // The address of the Account Contract\n    address public accountContractAddress;\n\n    // The address of the Wallet Contract\n    address public walletContractAddress;\n\n    constructor(address acctContAddr, address walletContAddr) public {\n        ac = AcctCont(acctContAddr);\n        wc = WalletCont(walletContAddr);\n    }\n\n    struct documentStruct {\n        string naturalRightsId; // Document Natural Rights Id\n        string parentNrId; // Parent Nr ID\n        address acctAddr; // document Nr owner\n        uint timestamp; // timestamp of document\n        uint256 kudosEarned; // kudosEarned by document\n    }\n\n    mapping (uint256 => documentStruct) document; // natural rights Haven ID hash to document\n\n    // Only contract owner may change Account Contract Address\n    function setAccountContract(address _newAcctContAddr) public onlyOwner returns(bool success) {\n        require(_newAcctContAddr != address(0), \"address must not equal 0\");\n        ac = AcctCont(_newAcctContAddr);\n        return true;\n    }\n\n    // Only contract owner may change Account Contract Address\n    function setWalletContract(address _newAcctContAddr) public onlyOwner returns(bool success) {\n        require(_newAcctContAddr != address(0),\"address must not equal 0\");\n        ac = AcctCont(_newAcctContAddr);\n        return true;\n    }\n\n    // Is msg.sender authorized to sign for the account?\n    function isDevAuthorized(address _acctAddr) public returns(bool isIndeed) {\n        return ac.isDevAuthorized(_acctAddr, msg.sender);\n    }\n    \n    // Add document event\n    event AddDocument(\n        string naturalRightsId,\n        string parentNrId,\n        uint timestamp\n    );\n\n    // Add document\n    function addDocument(string memory _naturalRightsId, string memory _parentNrId, address _acctAddr) public returns(bool success) {\n        require(isDevAuthorized(_acctAddr), \"msg.sender not authorized for account\");\n        uint256 naturalRightsIdHash = uint256(keccak256(bytes(_naturalRightsId)));\n        require(document[naturalRightsIdHash].acctAddr == address(0), \"document already exists\");\n        document[naturalRightsIdHash].parentNrId = _parentNrId;\n        document[naturalRightsIdHash].acctAddr = _acctAddr;\n        document[naturalRightsIdHash].timestamp = now;\n        document[naturalRightsIdHash].kudosEarned = uint256(0);\n        emit AddDocument(_naturalRightsId, _parentNrId, now);\n        return true;\n    }\n\n    // Tip document event\n    event TipDocument(\n        string naturalRightsId,\n        uint256 value\n    );\n\n    // Tip Document\n    function tipDocument(string memory _naturalRightsId, address _acctAddr, uint256 value) public returns(bool success) {\n        require(isDevAuthorized(_acctAddr), \"msg.sender not authorized for account\");\n        require(wc.getAcctBal(_acctAddr)>=value, \"account balance too low\");\n        uint256 naturalRightsIdHash = uint256(keccak256(bytes(_naturalRightsId)));\n        require(document[naturalRightsIdHash].acctAddr != address(0), \"document does not have owner\");\n        string memory top = 'top';\n        if(keccak256(abi.encodePacked(document[naturalRightsIdHash].parentNrId)) == keccak256(abi.encodePacked((top)))) {\n            document[naturalRightsIdHash].kudosEarned += value;\n            wc.transferKudosDoc(_acctAddr, document[naturalRightsIdHash].acctAddr, value);\n            emit TipDocument(_naturalRightsId, value);\n        } else {\n            uint256 netValue = value * 9 / 10;\n            uint256 rake = value * 1 / 10;\n            document[naturalRightsIdHash].kudosEarned += netValue;\n            wc.transferKudosDoc(_acctAddr, document[naturalRightsIdHash].acctAddr, netValue);\n            tipDocument(document[naturalRightsIdHash].parentNrId, _acctAddr, rake);\n            emit TipDocument(_naturalRightsId, netValue);\n        }\n        return true;\n    }\n\n    // Get document earnings\n    function getKudosEarned(string memory _naturalRightsId) public view returns(uint256 value) {\n        uint256 naturalRightsIdHash = uint256(keccak256(bytes(_naturalRightsId)));\n        require(document[naturalRightsIdHash].acctAddr != address(0), \"document does not have owner\");\n        return document[naturalRightsIdHash].kudosEarned;\n    }\n}\n",
  "sourcePath": "/home/charles/Projects/gitlab/haven-truffle/contracts/Documents.sol",
  "compiler": {
    "name": "solc",
    "version": "0.6.3+commit.8dda9521.Emscripten.clang"
  },
  "schemaVersion": "3.0.23",
  "updatedAt": "2020-03-02T03:26:58.633Z",
  "networkType": "ethereum",
  "devdoc": {
    "methods": {
      "isOwner()": {
        "details": "Returns true if the caller is the current owner."
      },
      "owner()": {
        "details": "Returns the address of the current owner."
      },
      "renounceOwnership()": {
        "details": "Leaves the contract without owner. It will not be possible to call `onlyOwner` functions anymore. Can only be called by the current owner.     * NOTE: Renouncing ownership will leave the contract without an owner, thereby removing any functionality that is only available to the owner."
      },
      "transferOwnership(address)": {
        "details": "Transfers ownership of the contract to a new account (`newOwner`). Can only be called by the current owner."
      }
    }
  },
  "userdoc": {
    "methods": {}
  }
}