{
  "contractName": "Havens",
  "abi": [
    {
      "inputs": [
        {
          "internalType": "address",
          "name": "acctContAddr",
          "type": "address"
        }
      ],
      "stateMutability": "nonpayable",
      "type": "constructor"
    },
    {
      "anonymous": false,
      "inputs": [
        {
          "indexed": true,
          "internalType": "address",
          "name": "previousOwner",
          "type": "address"
        },
        {
          "indexed": true,
          "internalType": "address",
          "name": "newOwner",
          "type": "address"
        }
      ],
      "name": "OwnershipTransferred",
      "type": "event"
    },
    {
      "inputs": [],
      "name": "accountContractAddress",
      "outputs": [
        {
          "internalType": "address",
          "name": "",
          "type": "address"
        }
      ],
      "stateMutability": "view",
      "type": "function",
      "constant": true
    },
    {
      "inputs": [
        {
          "internalType": "uint256",
          "name": "",
          "type": "uint256"
        }
      ],
      "name": "havenList",
      "outputs": [
        {
          "internalType": "uint256",
          "name": "",
          "type": "uint256"
        }
      ],
      "stateMutability": "view",
      "type": "function",
      "constant": true
    },
    {
      "inputs": [
        {
          "internalType": "uint256",
          "name": "",
          "type": "uint256"
        }
      ],
      "name": "havenNameTransferList",
      "outputs": [
        {
          "internalType": "uint256",
          "name": "",
          "type": "uint256"
        }
      ],
      "stateMutability": "view",
      "type": "function",
      "constant": true
    },
    {
      "inputs": [],
      "name": "isOwner",
      "outputs": [
        {
          "internalType": "bool",
          "name": "",
          "type": "bool"
        }
      ],
      "stateMutability": "view",
      "type": "function",
      "constant": true
    },
    {
      "inputs": [],
      "name": "naturalRightsAddress",
      "outputs": [
        {
          "internalType": "address",
          "name": "",
          "type": "address"
        }
      ],
      "stateMutability": "view",
      "type": "function",
      "constant": true
    },
    {
      "inputs": [],
      "name": "owner",
      "outputs": [
        {
          "internalType": "address",
          "name": "",
          "type": "address"
        }
      ],
      "stateMutability": "view",
      "type": "function",
      "constant": true
    },
    {
      "inputs": [],
      "name": "renounceOwnership",
      "outputs": [],
      "stateMutability": "nonpayable",
      "type": "function"
    },
    {
      "inputs": [
        {
          "internalType": "address",
          "name": "newOwner",
          "type": "address"
        }
      ],
      "name": "transferOwnership",
      "outputs": [],
      "stateMutability": "nonpayable",
      "type": "function"
    },
    {
      "inputs": [
        {
          "internalType": "address",
          "name": "_newNaturalRights",
          "type": "address"
        }
      ],
      "name": "setNaturalRightsServer",
      "outputs": [
        {
          "internalType": "bool",
          "name": "success",
          "type": "bool"
        }
      ],
      "stateMutability": "nonpayable",
      "type": "function"
    },
    {
      "inputs": [
        {
          "internalType": "address",
          "name": "_newAcctContAddr",
          "type": "address"
        }
      ],
      "name": "setAccountContract",
      "outputs": [
        {
          "internalType": "bool",
          "name": "success",
          "type": "bool"
        }
      ],
      "stateMutability": "nonpayable",
      "type": "function"
    },
    {
      "inputs": [
        {
          "internalType": "string",
          "name": "_naturalRightsId",
          "type": "string"
        },
        {
          "internalType": "address",
          "name": "_acctAddr",
          "type": "address"
        }
      ],
      "name": "addHaven",
      "outputs": [
        {
          "internalType": "bool",
          "name": "success",
          "type": "bool"
        }
      ],
      "stateMutability": "nonpayable",
      "type": "function"
    },
    {
      "inputs": [
        {
          "internalType": "string",
          "name": "_naturalRightsId",
          "type": "string"
        }
      ],
      "name": "isHavenOwned",
      "outputs": [
        {
          "internalType": "bool",
          "name": "isIndeed",
          "type": "bool"
        }
      ],
      "stateMutability": "view",
      "type": "function",
      "constant": true
    },
    {
      "inputs": [
        {
          "internalType": "string",
          "name": "_naturalRightsId",
          "type": "string"
        }
      ],
      "name": "isHavenSet",
      "outputs": [
        {
          "internalType": "bool",
          "name": "isIndeed",
          "type": "bool"
        }
      ],
      "stateMutability": "view",
      "type": "function",
      "constant": true
    },
    {
      "inputs": [
        {
          "internalType": "string",
          "name": "_naturalRightsId",
          "type": "string"
        }
      ],
      "name": "havenOwnerAddress",
      "outputs": [
        {
          "internalType": "address",
          "name": "loomAddress",
          "type": "address"
        }
      ],
      "stateMutability": "view",
      "type": "function",
      "constant": true
    },
    {
      "inputs": [],
      "name": "getHavenCount",
      "outputs": [
        {
          "internalType": "uint256",
          "name": "havenCount",
          "type": "uint256"
        }
      ],
      "stateMutability": "view",
      "type": "function",
      "constant": true
    },
    {
      "inputs": [
        {
          "internalType": "string",
          "name": "_havenName",
          "type": "string"
        }
      ],
      "name": "isHavenName",
      "outputs": [
        {
          "internalType": "bool",
          "name": "isIndeed",
          "type": "bool"
        }
      ],
      "stateMutability": "view",
      "type": "function",
      "constant": true
    },
    {
      "inputs": [
        {
          "internalType": "string",
          "name": "_naturalRightsId",
          "type": "string"
        }
      ],
      "name": "getHavenName",
      "outputs": [
        {
          "internalType": "string",
          "name": "",
          "type": "string"
        }
      ],
      "stateMutability": "view",
      "type": "function",
      "constant": true
    },
    {
      "inputs": [
        {
          "internalType": "string",
          "name": "_havenName",
          "type": "string"
        }
      ],
      "name": "getHavenIdFromName",
      "outputs": [
        {
          "internalType": "string",
          "name": "",
          "type": "string"
        }
      ],
      "stateMutability": "view",
      "type": "function",
      "constant": true
    },
    {
      "inputs": [
        {
          "internalType": "address",
          "name": "_acctAddr",
          "type": "address"
        }
      ],
      "name": "isDevAuthorized",
      "outputs": [
        {
          "internalType": "bool",
          "name": "isIndeed",
          "type": "bool"
        }
      ],
      "stateMutability": "nonpayable",
      "type": "function"
    },
    {
      "inputs": [
        {
          "internalType": "string",
          "name": "_naturalRightsId",
          "type": "string"
        }
      ],
      "name": "isDevHavenAuthorized",
      "outputs": [
        {
          "internalType": "bool",
          "name": "isIndeed",
          "type": "bool"
        }
      ],
      "stateMutability": "nonpayable",
      "type": "function"
    },
    {
      "inputs": [
        {
          "internalType": "string",
          "name": "_naturalRightsId",
          "type": "string"
        },
        {
          "internalType": "string",
          "name": "_havenName",
          "type": "string"
        },
        {
          "internalType": "bool",
          "name": "_isPrivate",
          "type": "bool"
        }
      ],
      "name": "initHaven",
      "outputs": [
        {
          "internalType": "bool",
          "name": "success",
          "type": "bool"
        }
      ],
      "stateMutability": "nonpayable",
      "type": "function"
    },
    {
      "inputs": [
        {
          "internalType": "string",
          "name": "_naturalRightsId",
          "type": "string"
        },
        {
          "internalType": "string",
          "name": "_newHavenName",
          "type": "string"
        }
      ],
      "name": "updateHavenName",
      "outputs": [
        {
          "internalType": "bool",
          "name": "success",
          "type": "bool"
        }
      ],
      "stateMutability": "nonpayable",
      "type": "function"
    },
    {
      "inputs": [
        {
          "internalType": "string",
          "name": "_fromHaven",
          "type": "string"
        },
        {
          "internalType": "string",
          "name": "_toHaven",
          "type": "string"
        },
        {
          "internalType": "string",
          "name": "_expectedHavenName",
          "type": "string"
        }
      ],
      "name": "initTransferHavenName",
      "outputs": [
        {
          "internalType": "bool",
          "name": "success",
          "type": "bool"
        }
      ],
      "stateMutability": "nonpayable",
      "type": "function"
    },
    {
      "inputs": [
        {
          "internalType": "string",
          "name": "_toHaven",
          "type": "string"
        },
        {
          "internalType": "string",
          "name": "_expectedHavenName",
          "type": "string"
        }
      ],
      "name": "confirmTransferHavenName",
      "outputs": [
        {
          "internalType": "bool",
          "name": "success",
          "type": "bool"
        }
      ],
      "stateMutability": "nonpayable",
      "type": "function"
    },
    {
      "inputs": [
        {
          "internalType": "string",
          "name": "_naturalRightsId",
          "type": "string"
        }
      ],
      "name": "deleteHaven",
      "outputs": [
        {
          "internalType": "bool",
          "name": "success",
          "type": "bool"
        }
      ],
      "stateMutability": "nonpayable",
      "type": "function"
    }
  ],
  "bytecode": "0x60806040523480156200001157600080fd5b506040516200357838038062003578833981810160405260208110156200003757600080fd5b810190808051906020019092919050505060006200005a6200014060201b60201c565b9050806000806101000a81548173ffffffffffffffffffffffffffffffffffffffff021916908373ffffffffffffffffffffffffffffffffffffffff1602179055508073ffffffffffffffffffffffffffffffffffffffff16600073ffffffffffffffffffffffffffffffffffffffff167f8be0079c531659141344cd1fd0a4f28419497f9722a3daafe3b4186f6b6457e060405160405180910390a35080600160006101000a81548173ffffffffffffffffffffffffffffffffffffffff021916908373ffffffffffffffffffffffffffffffffffffffff1602179055505062000148565b600033905090565b61342080620001586000396000f3fe608060405234801561001057600080fd5b50600436106101735760003560e01c806385ccd035116100de578063b01b497711610097578063dfa1544e11610071578063dfa1544e146110f6578063f2fde38b146111c9578063f68553ef1461120d578063faeac1fb146112e057610173565b8063b01b497714610d2f578063ba78ccd314610e22578063d7217ce91461102357610173565b806385ccd035146108ea5780638da5cb5b146109465780638e4306e1146109905780638f32d59b14610ac45780639330e57614610ae6578063a836761914610bb957610173565b806347d94e551161013057806347d94e551461051c5780634de208cb146105785780634fb4a8c8146106e2578063589c1bb41461072c5780636f0c073014610776578063715018a6146108e057610173565b8063099785df146101785780631aae6c7e1461024b5780631bebfee31461028d5780632d325cc41461038857806343186efd146104bc57806344c14217146104fe575b600080fd5b6102316004803603602081101561018e57600080fd5b81019080803590602001906401000000008111156101ab57600080fd5b8201836020820111156101bd57600080fd5b803590602001918460018302840111640100000000831117156101df57600080fd5b91908080601f016020809104026020016040519081016040528093929190818152602001838380828437600081840152601f19601f82011690508083019250505050505050919291929050505061133c565b604051808215151515815260200191505060405180910390f35b6102776004803603602081101561026157600080fd5b810190808035906020019092919050505061137c565b6040518082815260200191505060405180910390f35b610346600480360360208110156102a357600080fd5b81019080803590602001906401000000008111156102c057600080fd5b8201836020820111156102d257600080fd5b803590602001918460018302840111640100000000831117156102f457600080fd5b91908080601f016020809104026020016040519081016040528093929190818152602001838380828437600081840152601f19601f82011690508083019250505050505050919291929050505061139d565b604051808273ffffffffffffffffffffffffffffffffffffffff1673ffffffffffffffffffffffffffffffffffffffff16815260200191505060405180910390f35b6104416004803603602081101561039e57600080fd5b81019080803590602001906401000000008111156103bb57600080fd5b8201836020820111156103cd57600080fd5b803590602001918460018302840111640100000000831117156103ef57600080fd5b91908080601f016020809104026020016040519081016040528093929190818152602001838380828437600081840152601f19601f8201169050808301925050505050505091929192905050506113e9565b6040518080602001828103825283818151815260200191508051906020019080838360005b83811015610481578082015181840152602081019050610466565b50505050905090810190601f1680156104ae5780820380516001836020036101000a031916815260200191505b509250505060405180910390f35b6104e8600480360360208110156104d257600080fd5b810190808035906020019092919050505061151c565b6040518082815260200191505060405180910390f35b61050661153d565b6040518082815260200191505060405180910390f35b61055e6004803603602081101561053257600080fd5b81019080803573ffffffffffffffffffffffffffffffffffffffff16906020019092919050505061154a565b604051808215151515815260200191505060405180910390f35b6106c86004803603604081101561058e57600080fd5b81019080803590602001906401000000008111156105ab57600080fd5b8201836020820111156105bd57600080fd5b803590602001918460018302840111640100000000831117156105df57600080fd5b91908080601f016020809104026020016040519081016040528093929190818152602001838380828437600081840152601f19601f8201169050808301925050505050505091929192908035906020019064010000000081111561064257600080fd5b82018360208201111561065457600080fd5b8035906020019184600183028401116401000000008311171561067657600080fd5b91908080601f016020809104026020016040519081016040528093929190818152602001838380828437600081840152601f19601f82011690508083019250505050505050919291929050505061164a565b604051808215151515815260200191505060405180910390f35b6106ea6118cd565b604051808273ffffffffffffffffffffffffffffffffffffffff1673ffffffffffffffffffffffffffffffffffffffff16815260200191505060405180910390f35b6107346118f3565b604051808273ffffffffffffffffffffffffffffffffffffffff1673ffffffffffffffffffffffffffffffffffffffff16815260200191505060405180910390f35b6108c66004803603604081101561078c57600080fd5b81019080803590602001906401000000008111156107a957600080fd5b8201836020820111156107bb57600080fd5b803590602001918460018302840111640100000000831117156107dd57600080fd5b91908080601f016020809104026020016040519081016040528093929190818152602001838380828437600081840152601f19601f8201169050808301925050505050505091929192908035906020019064010000000081111561084057600080fd5b82018360208201111561085257600080fd5b8035906020019184600183028401116401000000008311171561087457600080fd5b91908080601f016020809104026020016040519081016040528093929190818152602001838380828437600081840152601f19601f820116905080830192505050505050509192919290505050611919565b604051808215151515815260200191505060405180910390f35b6108e8611f2f565b005b61092c6004803603602081101561090057600080fd5b81019080803573ffffffffffffffffffffffffffffffffffffffff169060200190929190505050612068565b604051808215151515815260200191505060405180910390f35b61094e612168565b604051808273ffffffffffffffffffffffffffffffffffffffff1673ffffffffffffffffffffffffffffffffffffffff16815260200191505060405180910390f35b610a49600480360360208110156109a657600080fd5b81019080803590602001906401000000008111156109c357600080fd5b8201836020820111156109d557600080fd5b803590602001918460018302840111640100000000831117156109f757600080fd5b91908080601f016020809104026020016040519081016040528093929190818152602001838380828437600081840152601f19601f820116905080830192505050505050509192919290505050612191565b6040518080602001828103825283818151815260200191508051906020019080838360005b83811015610a89578082015181840152602081019050610a6e565b50505050905090810190601f168015610ab65780820380516001836020036101000a031916815260200191505b509250505060405180910390f35b610acc6122fc565b604051808215151515815260200191505060405180910390f35b610b9f60048036036020811015610afc57600080fd5b8101908080359060200190640100000000811115610b1957600080fd5b820183602082011115610b2b57600080fd5b80359060200191846001830284011164010000000083111715610b4d57600080fd5b91908080601f016020809104026020016040519081016040528093929190818152602001838380828437600081840152601f19601f82011690508083019250505050505050919291929050505061235a565b604051808215151515815260200191505060405180910390f35b610d1560048036036060811015610bcf57600080fd5b8101908080359060200190640100000000811115610bec57600080fd5b820183602082011115610bfe57600080fd5b80359060200191846001830284011164010000000083111715610c2057600080fd5b91908080601f016020809104026020016040519081016040528093929190818152602001838380828437600081840152601f19601f82011690508083019250505050505050919291929080359060200190640100000000811115610c8357600080fd5b820183602082011115610c9557600080fd5b80359060200191846001830284011164010000000083111715610cb757600080fd5b91908080601f016020809104026020016040519081016040528093929190818152602001838380828437600081840152601f19601f8201169050808301925050505050505091929192908035151590602001909291905050506123ba565b604051808215151515815260200191505060405180910390f35b610e0860048036036040811015610d4557600080fd5b8101908080359060200190640100000000811115610d6257600080fd5b820183602082011115610d7457600080fd5b80359060200191846001830284011164010000000083111715610d9657600080fd5b91908080601f016020809104026020016040519081016040528093929190818152602001838380828437600081840152601f19601f820116905080830192505050505050509192919290803573ffffffffffffffffffffffffffffffffffffffff16906020019092919050505061270e565b604051808215151515815260200191505060405180910390f35b61100960048036036060811015610e3857600080fd5b8101908080359060200190640100000000811115610e5557600080fd5b820183602082011115610e6757600080fd5b80359060200191846001830284011164010000000083111715610e8957600080fd5b91908080601f016020809104026020016040519081016040528093929190818152602001838380828437600081840152601f19601f82011690508083019250505050505050919291929080359060200190640100000000811115610eec57600080fd5b820183602082011115610efe57600080fd5b80359060200191846001830284011164010000000083111715610f2057600080fd5b91908080601f016020809104026020016040519081016040528093929190818152602001838380828437600081840152601f19601f82011690508083019250505050505050919291929080359060200190640100000000811115610f8357600080fd5b820183602082011115610f9557600080fd5b80359060200191846001830284011164010000000083111715610fb757600080fd5b91908080601f016020809104026020016040519081016040528093929190818152602001838380828437600081840152601f19601f8201169050808301925050505050505091929192905050506127d6565b604051808215151515815260200191505060405180910390f35b6110dc6004803603602081101561103957600080fd5b810190808035906020019064010000000081111561105657600080fd5b82018360208201111561106857600080fd5b8035906020019184600183028401116401000000008311171561108a57600080fd5b91908080601f016020809104026020016040519081016040528093929190818152602001838380828437600081840152601f19601f8201169050808301925050505050505091929192905050506129d5565b604051808215151515815260200191505060405180910390f35b6111af6004803603602081101561110c57600080fd5b810190808035906020019064010000000081111561112957600080fd5b82018360208201111561113b57600080fd5b8035906020019184600183028401116401000000008311171561115d57600080fd5b91908080601f016020809104026020016040519081016040528093929190818152602001838380828437600081840152601f19601f820116905080830192505050505050509192919290505050612c21565b604051808215151515815260200191505060405180910390f35b61120b600480360360208110156111df57600080fd5b81019080803573ffffffffffffffffffffffffffffffffffffffff169060200190929190505050612d7c565b005b6112c66004803603602081101561122357600080fd5b810190808035906020019064010000000081111561124057600080fd5b82018360208201111561125257600080fd5b8035906020019184600183028401116401000000008311171561127457600080fd5b91908080601f016020809104026020016040519081016040528093929190818152602001838380828437600081840152601f19601f820116905080830192505050505050509192919290505050612e02565b604051808215151515815260200191505060405180910390f35b611322600480360360208110156112f657600080fd5b81019080803573ffffffffffffffffffffffffffffffffffffffff169060200190929190505050612e8e565b604051808215151515815260200191505060405180910390f35b600080828051906020012060001c90506000600660008381526020019081526020016000205414611371576001915050611377565b60009150505b919050565b6008818154811061138957fe5b906000526020600020016000915090505481565b600080828051906020012060001c90506005600082815260200190815260200160002060009054906101000a900473ffffffffffffffffffffffffffffffffffffffff16915050919050565b6060600115156113f88361235a565b151514156114c6576000828051906020012060001c9050600460008281526020019081526020016000206002018054600181600116156101000203166002900480601f0160208091040260200160405190810160405280929190818152602001828054600181600116156101000203166002900480156114b95780601f1061148e576101008083540402835291602001916114b9565b820191906000526020600020905b81548152906001019060200180831161149c57829003601f168201915b5050505050915050611517565b6040517f08c379a00000000000000000000000000000000000000000000000000000000081526004018080602001828103825260338152602001806132c26033913960400191505060405180910390fd5b919050565b600a818154811061152957fe5b906000526020600020016000915090505481565b6000600880549050905090565b60006115546122fc565b6115c6576040517f08c379a00000000000000000000000000000000000000000000000000000000081526004018080602001828103825260208152602001807f4f776e61626c653a2063616c6c6572206973206e6f7420746865206f776e657281525060200191505060405180910390fd5b600073ffffffffffffffffffffffffffffffffffffffff168273ffffffffffffffffffffffffffffffffffffffff16141561160057600080fd5b81600160006101000a81548173ffffffffffffffffffffffffffffffffffffffff021916908373ffffffffffffffffffffffffffffffffffffffff16021790555060019050919050565b60006116558361235a565b6116c7576040517f08c379a000000000000000000000000000000000000000000000000000000000815260040180806020018281038252601e8152602001807f486176656e20686173206e6f74206265656e207365742062792075736572000081525060200191505060405180910390fd5b6116d083612c21565b611725576040517f08c379a000000000000000000000000000000000000000000000000000000000815260040180806020018281038252602381526020018061339b6023913960400191505060405180910390fd5b61172e8261133c565b156117a1576040517f08c379a00000000000000000000000000000000000000000000000000000000081526004018080602001828103825260188152602001807f486176656e206e616d6520616c72656164792074616b656e000000000000000081525060200191505060405180910390fd5b6000828051906020012060001c90506000848051906020012060001c905060006004600083815260200190815260200160002060020160405180828054600181600116156101000203166002900480156118325780601f10611810576101008083540402835291820191611832565b820191906000526020600020905b81548152906001019060200180831161181e575b5050915050604051809103902060001c905060046000838152602001908152602001600020600201600061186691906130f3565b8460046000848152602001908152602001600020600201908051906020019061189092919061313b565b5060066000828152602001908152602001600020600090558160066000858152602001908152602001600020819055506001935050505092915050565b600260009054906101000a900473ffffffffffffffffffffffffffffffffffffffff1681565b600360009054906101000a900473ffffffffffffffffffffffffffffffffffffffff1681565b600061192483612c21565b611979576040517f08c379a000000000000000000000000000000000000000000000000000000000815260040180806020018281038252602381526020018061339b6023913960400191505060405180910390fd5b606060096000858051906020012060001c81526020019081526020016000206000018054600181600116156101000203166002900480601f016020809104026020016040519081016040528092919081815260200182805460018160011615610100020316600290048015611a2f5780601f10611a0457610100808354040283529160200191611a2f565b820191906000526020600020905b815481529060010190602001808311611a1257829003601f168201915b50505050509050611a3f8161235a565b8015611a505750611a4f8461235a565b5b611ac2576040517f08c379a000000000000000000000000000000000000000000000000000000000815260040180806020018281038252601f8152602001807f4f6e65206f7220626f746820486176656e7320646f206e6f742065786973740081525060200191505060405180910390fd5b6000848051906020012060001c90506000828051906020012060001c90508480519060200120600460008381526020019081526020016000206002016040518082805460018160011615610100020316600290048015611b595780601f10611b37576101008083540402835291820191611b59565b820191906000526020600020905b815481529060010190602001808311611b45575b5050915050604051809103902014611bbc576040517f08c379a00000000000000000000000000000000000000000000000000000000081526004018080602001828103825260528152602001806133496052913960600191505060405180910390fd5b600460008381526020019081526020016000206002016040518082805460018160011615610100020316600290048015611c2d5780601f10611c0b576101008083540402835291820191611c2d565b820191906000526020600020905b815481529060010190602001808311611c19575b50509150506040518091039020600960008481526020019081526020016000206001016040518082805460018160011615610100020316600290048015611cab5780601f10611c89576101008083540402835291820191611cab565b820191906000526020600020905b815481529060010190602001808311611c97575b5050915050604051809103902014611d0e576040517f08c379a00000000000000000000000000000000000000000000000000000000081526004018080602001828103825260548152602001806132f56054913960600191505060405180910390fd5b6000858051906020012060001c90506000600460008581526020019081526020016000206002016040518082805460018160011615610100020316600290048015611d905780601f10611d6e576101008083540402835291820191611d90565b820191906000526020600020905b815481529060010190602001808311611d7c575b5050915050604051809103902060001c905082600660008481526020019081526020016000208190555083600660008381526020019081526020016000208190555060046000858152602001908152602001600020600201600460008581526020019081526020016000206002019080546001816001161561010002031660029004611e1d9291906131bb565b5086600460008681526020019081526020016000206002019080519060200190611e4892919061313b565b506000600960008681526020019081526020016000206002015490506009600086815260200190815260200160002060008082016000611e8891906130f3565b600182016000611e9891906130f3565b600282016000905550506000600a6001600a805490500381548110611eb957fe5b9060005260206000200154905080600a8381548110611ed457fe5b9060005260206000200181905550816009600083815260200190815260200160002060020181905550600a805480611f0857fe5b60019003818190600052602060002001600090559055600197505050505050505092915050565b611f376122fc565b611fa9576040517f08c379a00000000000000000000000000000000000000000000000000000000081526004018080602001828103825260208152602001807f4f776e61626c653a2063616c6c6572206973206e6f7420746865206f776e657281525060200191505060405180910390fd5b600073ffffffffffffffffffffffffffffffffffffffff166000809054906101000a900473ffffffffffffffffffffffffffffffffffffffff1673ffffffffffffffffffffffffffffffffffffffff167f8be0079c531659141344cd1fd0a4f28419497f9722a3daafe3b4186f6b6457e060405160405180910390a360008060006101000a81548173ffffffffffffffffffffffffffffffffffffffff021916908373ffffffffffffffffffffffffffffffffffffffff160217905550565b60006120726122fc565b6120e4576040517f08c379a00000000000000000000000000000000000000000000000000000000081526004018080602001828103825260208152602001807f4f776e61626c653a2063616c6c6572206973206e6f7420746865206f776e657281525060200191505060405180910390fd5b600073ffffffffffffffffffffffffffffffffffffffff168273ffffffffffffffffffffffffffffffffffffffff16141561211e57600080fd5b81600260006101000a81548173ffffffffffffffffffffffffffffffffffffffff021916908373ffffffffffffffffffffffffffffffffffffffff16021790555060019050919050565b60008060009054906101000a900473ffffffffffffffffffffffffffffffffffffffff16905090565b60606000828051906020012060001c905060006006600083815260200190815260200160002054141561222c576040517f08c379a00000000000000000000000000000000000000000000000000000000081526004018080602001828103825260198152602001807f486176656e204e616d6520646f6573206e6f742065786973740000000000000081525060200191505060405180910390fd5b600060066000838152602001908152602001600020549050600460008281526020019081526020016000206000018054600181600116156101000203166002900480601f0160208091040260200160405190810160405280929190818152602001828054600181600116156101000203166002900480156122ee5780601f106122c3576101008083540402835291602001916122ee565b820191906000526020600020905b8154815290600101906020018083116122d157829003601f168201915b505050505092505050919050565b60008060009054906101000a900473ffffffffffffffffffffffffffffffffffffffff1673ffffffffffffffffffffffffffffffffffffffff1661233e612fa7565b73ffffffffffffffffffffffffffffffffffffffff1614905090565b600080600880549050141561237257600090506123b5565b6000828051906020012060001c90508060086004600084815260200190815260200160002060040154815481106123a557fe5b9060005260206000200154149150505b919050565b60006123c584612e02565b61241a576040517f08c379a00000000000000000000000000000000000000000000000000000000081526004018080602001828103825260348152602001806132686034913960400191505060405180910390fd5b61242384612c21565b612478576040517f08c379a000000000000000000000000000000000000000000000000000000000815260040180806020018281038252602381526020018061339b6023913960400191505060405180910390fd5b6124818461235a565b156124f4576040517f08c379a000000000000000000000000000000000000000000000000000000000815260040180806020018281038252601a8152602001807f486176656e2068617320616c7265616479206265656e2073657400000000000081525060200191505060405180910390fd5b6124fd8361133c565b15612570576040517f08c379a00000000000000000000000000000000000000000000000000000000081526004018080602001828103825260188152602001807f486176656e206e616d6520616c72656164792074616b656e000000000000000081525060200191505060405180910390fd5b6000848051906020012060001c905060006005600083815260200190815260200160002060009054906101000a900473ffffffffffffffffffffffffffffffffffffffff1690506000858051906020012060001c9050856004600085815260200190815260200160002060020190805190602001906125f092919061313b565b508660046000858152602001908152602001600020600001908051906020019061261b92919061313b565b50816004600085815260200190815260200160002060010160006101000a81548173ffffffffffffffffffffffffffffffffffffffff021916908373ffffffffffffffffffffffffffffffffffffffff160217905550846004600085815260200190815260200160002060030160006101000a81548160ff02191690831515021790555060088054905060046000858152602001908152602001600020600401819055506008839080600181540180825580915050600190039060005260206000200160009091909190915055826006600083815260200190815260200160002081905550600193505050509392505050565b6000600260009054906101000a900473ffffffffffffffffffffffffffffffffffffffff1673ffffffffffffffffffffffffffffffffffffffff163373ffffffffffffffffffffffffffffffffffffffff161461276a57600080fd5b6000838051906020012060001c9050826005600083815260200190815260200160002060006101000a81548173ffffffffffffffffffffffffffffffffffffffff021916908373ffffffffffffffffffffffffffffffffffffffff160217905550600191505092915050565b60006127e18461235a565b80156127f257506127f18361235a565b5b612864576040517f08c379a000000000000000000000000000000000000000000000000000000000815260040180806020018281038252601f8152602001807f4f6e65206f7220626f746820486176656e7320646f206e6f742065786973740081525060200191505060405180910390fd5b61286d84612c21565b6128c2576040517f08c379a000000000000000000000000000000000000000000000000000000000815260040180806020018281038252602381526020018061339b6023913960400191505060405180910390fd5b818051906020012060001c6128d6846113e9565b8051906020012060001c14612936576040517f08c379a000000000000000000000000000000000000000000000000000000000815260040180806020018281038252602d8152602001806133be602d913960400191505060405180910390fd5b6000848051906020012060001c90506000848051906020012060001c90508560096000838152602001908152602001600020600001908051906020019061297e92919061313b565b50600a805490506009600083815260200190815260200160002060020181905550600a8290806001815401808255809150506001900390600052602060002001600090919091909150556001925050509392505050565b60006129e082612c21565b612a35576040517f08c379a000000000000000000000000000000000000000000000000000000000815260040180806020018281038252602381526020018061339b6023913960400191505060405180910390fd5b612a3e8261235a565b612ab0576040517f08c379a00000000000000000000000000000000000000000000000000000000081526004018080602001828103825260148152602001807f486176656e20646f6573206e6f7420657869737400000000000000000000000081525060200191505060405180910390fd5b6000828051906020012060001c90506000600460008381526020019081526020016000206004015490506000600860016008805490500381548110612af157fe5b906000526020600020015490508060088381548110612b0c57fe5b90600052602060002001819055508160046000838152602001908152602001600020600401819055506008805480612b4057fe5b600190038181906000526020600020016000905590556000600460008581526020019081526020016000206002016040518082805460018160011615610100020316600290048015612bc95780601f10612ba7576101008083540402835291820191612bc9565b820191906000526020600020905b815481529060010190602001808311612bb5575b5050915050604051809103902060001c90506006600082815260200190815260200160002060009055600460008581526020019081526020016000206002016000612c1491906130f3565b6001945050505050919050565b600080828051906020012060001c9050600160009054906101000a900473ffffffffffffffffffffffffffffffffffffffff1673ffffffffffffffffffffffffffffffffffffffff1663e56f9af86005600084815260200190815260200160002060009054906101000a900473ffffffffffffffffffffffffffffffffffffffff16336040518363ffffffff1660e01b8152600401808373ffffffffffffffffffffffffffffffffffffffff1673ffffffffffffffffffffffffffffffffffffffff1681526020018273ffffffffffffffffffffffffffffffffffffffff1673ffffffffffffffffffffffffffffffffffffffff16815260200192505050602060405180830381600087803b158015612d3957600080fd5b505af1158015612d4d573d6000803e3d6000fd5b505050506040513d6020811015612d6357600080fd5b8101908080519060200190929190505050915050919050565b612d846122fc565b612df6576040517f08c379a00000000000000000000000000000000000000000000000000000000081526004018080602001828103825260208152602001807f4f776e61626c653a2063616c6c6572206973206e6f7420746865206f776e657281525060200191505060405180910390fd5b612dff81612faf565b50565b600080828051906020012060001c9050600073ffffffffffffffffffffffffffffffffffffffff166005600083815260200190815260200160002060009054906101000a900473ffffffffffffffffffffffffffffffffffffffff1673ffffffffffffffffffffffffffffffffffffffff1614612e83576001915050612e89565b60009150505b919050565b6000600160009054906101000a900473ffffffffffffffffffffffffffffffffffffffff1673ffffffffffffffffffffffffffffffffffffffff1663e56f9af883336040518363ffffffff1660e01b8152600401808373ffffffffffffffffffffffffffffffffffffffff1673ffffffffffffffffffffffffffffffffffffffff1681526020018273ffffffffffffffffffffffffffffffffffffffff1673ffffffffffffffffffffffffffffffffffffffff16815260200192505050602060405180830381600087803b158015612f6557600080fd5b505af1158015612f79573d6000803e3d6000fd5b505050506040513d6020811015612f8f57600080fd5b81019080805190602001909291905050509050919050565b600033905090565b600073ffffffffffffffffffffffffffffffffffffffff168173ffffffffffffffffffffffffffffffffffffffff161415613035576040517f08c379a000000000000000000000000000000000000000000000000000000000815260040180806020018281038252602681526020018061329c6026913960400191505060405180910390fd5b8073ffffffffffffffffffffffffffffffffffffffff166000809054906101000a900473ffffffffffffffffffffffffffffffffffffffff1673ffffffffffffffffffffffffffffffffffffffff167f8be0079c531659141344cd1fd0a4f28419497f9722a3daafe3b4186f6b6457e060405160405180910390a3806000806101000a81548173ffffffffffffffffffffffffffffffffffffffff021916908373ffffffffffffffffffffffffffffffffffffffff16021790555050565b50805460018160011615610100020316600290046000825580601f106131195750613138565b601f0160209004906000526020600020908101906131379190613242565b5b50565b828054600181600116156101000203166002900490600052602060002090601f016020900481019282601f1061317c57805160ff19168380011785556131aa565b828001600101855582156131aa579182015b828111156131a957825182559160200191906001019061318e565b5b5090506131b79190613242565b5090565b828054600181600116156101000203166002900490600052602060002090601f016020900481019282601f106131f45780548555613231565b8280016001018555821561323157600052602060002091601f016020900482015b82811115613230578254825591600101919060010190613215565b5b50905061323e9190613242565b5090565b61326491905b80821115613260576000816000905550600101613248565b5090565b9056fe486176656e204e61747572616c20526967687473204964206973206e6f74204f776e6564206279204c6f6f6d204163636f756e744f776e61626c653a206e6577206f776e657220697320746865207a65726f20616464726573734e61747572616c2052696768747320486176656e20496420646f6573206e6f74206d61746368206120486176656e204e616d65486176656e6e616d65206d69736d617463683a20636f6e6669726d657220686176656e4e616d6520646f6573206e6f74206d6174636820696e69746961746f727320657870656374656420686176656e4e616d65486176656e6e616d65206d69736d617463683a20636f6e6669726d6572206578706563746564486176656e4e616d6520646f6573206e6f74206d6174636820696e69746961746f7220686176656e4e616d656d73672e73656e646572206e6f7420617574686f72697a656420666f7220486176656e457870656374656420486176656e206e616d65206e6f7420657175616c20746f20746f486176656e206e616d65a2646970667358221220ce96e80dc7bc0b8392aff421933bc01ac9d2d7e1e4949c0fb40fd2b29f06a1e164736f6c63430006030033",
  "source": "pragma solidity ^0.6.3;\n\n// import \"openzeppelin-solidity/contracts/ownership/Ownable.sol\";\nimport \"../node_modules/openzeppelin-solidity/contracts/ownership/Ownable.sol\";\n\ncontract AcctCont {\n    function isDevAuthorized(address, address) public returns (bool) {}\n}\n\ncontract Havens is Ownable {\n\n    AcctCont ac;\n    \n    // The address of the Natural Rights Server Testing\n    address public naturalRightsAddress;\n\n    // The address of the Account Contract\n    address public accountContractAddress;\n\n    constructor(address acctContAddr) public {\n        ac = AcctCont(acctContAddr);\n    }\n\n    /// @dev Access modifier for NR-only functionality\n    modifier onlyNR() {\n        require(msg.sender == naturalRightsAddress);\n        _;\n    }\n\n    struct havenStruct {\n        string naturalRightsId; // Natural Rights ID\n        address acctAddr; // Haven owner\n        string havenName; // Haven name\n        bool isPrivate; // Haven private bool\n        uint listPointer;\n    }\n    \n    struct havenNameTransfer {\n        string fromHaven;\n        string initExpectedHavenName;\n        uint listPointer;\n        // bool paymentMade\n    }\n\n    mapping (uint256 => havenStruct) haven; // natural rights Haven ID hash to public identifiers\n    mapping (uint256 => address) havenOwner; // natural rights Haven ID hash to Loom Account address of owner\n    mapping (uint256 => uint256) havenName; // maps haven name hash to natural rights haven id hash\n    \n    mapping (address => uint256[]) havensOwned; // maps Loom Account address to owned Haven natural rights ids \n    \n    uint256[] public havenList; // public Haven index\n    mapping (uint256 => havenNameTransfer) havenNameTransferQueue; // Queues Haven Name transfer from initiator (value) to comfirmer (key)\n    uint256[] public havenNameTransferList; // List of Haven name confirmers\n    \n    \n    // Only contract owner may change Natural Rights Server\n    function setNaturalRightsServer(address _newNaturalRights) public onlyOwner returns(bool success) {\n        require(_newNaturalRights != address(0));\n        naturalRightsAddress = _newNaturalRights;\n        return true;\n    }\n\n    // Only contract owner may change Account Contract Address\n    function setAccountContract(address _newAcctContAddr) public onlyOwner returns(bool success) {\n        require(_newAcctContAddr != address(0));\n        ac = AcctCont(_newAcctContAddr);\n        return true;\n    }\n    \n    // Only Natural Rights server may add havens\n    function addHaven(string memory _naturalRightsId, address _acctAddr) public onlyNR returns(bool success) {\n        uint256 naturalRightsIdHash = uint256(keccak256(bytes(_naturalRightsId)));\n        havenOwner[naturalRightsIdHash] = _acctAddr;\n        return true;\n    }\n    \n    // Is haven added by NR\n    function isHavenOwned(string memory _naturalRightsId) public view returns(bool isIndeed) {\n        uint256 naturalRightsIdHash = uint256(keccak256(bytes(_naturalRightsId)));\n        if(havenOwner[naturalRightsIdHash] != address(0)) {\n            return true;\n        }\n        return false;\n    }\n    \n    // Is haven active\n    function isHavenSet(string memory _naturalRightsId) public view returns(bool isIndeed) {\n        if(havenList.length == 0) return false;\n        uint256 naturalRightsIdHash = uint256(keccak256(bytes(_naturalRightsId)));\n        return (havenList[haven[naturalRightsIdHash].listPointer] == naturalRightsIdHash);\n    }\n    \n    // Loom address of Haven\n    function havenOwnerAddress(string memory _naturalRightsId) public view returns(address loomAddress) {\n        uint256 naturalRightsIdHash = uint256(keccak256(bytes(_naturalRightsId)));\n        return havenOwner[naturalRightsIdHash];\n    }\n\n    // Number of active havens\n    function getHavenCount() public view returns(uint havenCount) {\n        return havenList.length;\n    }\n    \n    function isHavenName(string memory _havenName) public view returns(bool isIndeed) {\n        uint256 havenNameHash = uint256(keccak256(bytes(_havenName)));\n        if(havenName[havenNameHash] != 0) {\n            return true;\n        } else {\n            return false;\n        }\n    }\n    \n    function getHavenName(string memory _naturalRightsId) public view returns(string memory) {\n        if(isHavenSet(_naturalRightsId) == true) {\n            uint256 naturalRightsIdHash = uint256(keccak256(bytes(_naturalRightsId)));\n            return haven[naturalRightsIdHash].havenName;\n        } \n        revert('Natural Rights Haven Id does not match a Haven Name');\n    }\n\n    function getHavenIdFromName(string memory _havenName) public view returns(string memory) {\n        uint256 havenNameHash = uint256(keccak256(bytes(_havenName)));\n        require(havenName[havenNameHash] != 0, 'Haven Name does not exist');\n        uint256 naturalRightsIdHash = havenName[havenNameHash];\n        return haven[naturalRightsIdHash].naturalRightsId;\n    }\n    \n    // Is msg.sender authorized to sign for the account?\n    function isDevAuthorized(address _acctAddr) public returns(bool isIndeed) {\n        return ac.isDevAuthorized(_acctAddr, msg.sender);\n    }\n    \n    // Is msg.sender authorized to sign for the Haven?\n    function isDevHavenAuthorized(string memory _naturalRightsId) public returns(bool isIndeed) {\n        uint256 naturalRightsIdHash = uint256(keccak256(bytes(_naturalRightsId)));\n        return ac.isDevAuthorized(havenOwner[naturalRightsIdHash], msg.sender);\n    }\n    \n    // haven initializes the public havens structs to become active\n    function initHaven(string memory _naturalRightsId, string memory _havenName, bool _isPrivate) public returns(bool success) {\n        require(isHavenOwned(_naturalRightsId), \"Haven Natural Rights Id is not Owned by Loom Account\");\n        require(isDevHavenAuthorized(_naturalRightsId), \"msg.sender not authorized for Haven\");\n        require(!isHavenSet(_naturalRightsId), \"Haven has already been set\");\n        require(!isHavenName(_havenName), \"Haven name already taken\");\n        uint256 naturalRightsIdHash = uint256(keccak256(bytes(_naturalRightsId)));\n        address havenOwnerAcctAddr = havenOwner[naturalRightsIdHash];\n        uint256 havenNameHash = uint256(keccak256(bytes(_havenName)));\n        \n        // Set Storage Values\n        haven[naturalRightsIdHash].havenName = _havenName;\n        haven[naturalRightsIdHash].naturalRightsId = _naturalRightsId;\n        haven[naturalRightsIdHash].acctAddr = havenOwnerAcctAddr;\n        haven[naturalRightsIdHash].isPrivate = _isPrivate;\n        haven[naturalRightsIdHash].listPointer = havenList.length;\n        havenList.push(naturalRightsIdHash);\n        havenName[havenNameHash] = naturalRightsIdHash;\n        return true;\n    }\n\n    // update existing Haven name with new unique name\n    function updateHavenName(string memory _naturalRightsId, string memory _newHavenName) public returns(bool success) {\n        require(isHavenSet(_naturalRightsId), 'Haven has not been set by user');\n        require(isDevHavenAuthorized(_naturalRightsId), 'msg.sender not authorized for Haven');\n        require(!isHavenName(_newHavenName), 'Haven name already taken');\n        uint256 havenNameHash = uint256(keccak256(bytes(_newHavenName)));\n        uint256 naturalRightsIdHash = uint256(keccak256(bytes(_naturalRightsId)));\n        uint256 oldHavenNameHash = uint256(keccak256(bytes(haven[naturalRightsIdHash].havenName)));\n        delete haven[naturalRightsIdHash].havenName;\n        haven[naturalRightsIdHash].havenName = _newHavenName;\n        delete havenName[oldHavenNameHash];\n        havenName[havenNameHash] = naturalRightsIdHash;\n        return true;\n    }\n\n    function initTransferHavenName(string memory _fromHaven, string memory _toHaven, string memory _expectedHavenName) public returns(bool success) {\n        require(isHavenSet(_fromHaven) && isHavenSet(_toHaven), 'One or both Havens do not exist');\n        require(isDevHavenAuthorized(_fromHaven), 'msg.sender not authorized for Haven');\n        require(uint256(keccak256(bytes(getHavenName(_toHaven)))) == uint256(keccak256(bytes(_expectedHavenName))), 'Expected Haven name not equal to toHaven name');\n        uint256 fromHavenHash = uint256(keccak256(bytes(_fromHaven)));\n        uint256 toHavenHash = uint256(keccak256(bytes(_toHaven)));\n        havenNameTransferQueue[toHavenHash].fromHaven = _fromHaven;\n        havenNameTransferQueue[toHavenHash].listPointer = havenNameTransferList.length;\n        havenNameTransferList.push(fromHavenHash);\n        return true;\n    }\n\n    function confirmTransferHavenName(string memory _toHaven, string memory _expectedHavenName) public returns(bool success) {\n        require(isDevHavenAuthorized(_toHaven), 'msg.sender not authorized for Haven');\n        string memory fromHaven = havenNameTransferQueue[uint256(keccak256(bytes(_toHaven)))].fromHaven;\n        require(isHavenSet(fromHaven) && isHavenSet(_toHaven), 'One or both Havens do not exist');\n        uint256 toHavenHash = uint256(keccak256(bytes(_toHaven)));\n        uint256 fromHavenHash = uint256(keccak256(bytes(fromHaven)));\n        require(keccak256(bytes(haven[fromHavenHash].havenName)) == keccak256(bytes(_expectedHavenName)), 'Havenname mismatch: confirmer expectedHavenName does not match initiator havenName');\n        require(keccak256(bytes(havenNameTransferQueue[toHavenHash].initExpectedHavenName)) == keccak256(bytes(haven[toHavenHash].havenName)), 'Havenname mismatch: confirmer havenName does not match initiators expected havenName');\n        uint256 expectedHavenNameHash = uint256(keccak256(bytes(_expectedHavenName)));\n        uint256 confirmHavenNameHash = uint256(keccak256(bytes(haven[toHavenHash].havenName)));\n        havenName[expectedHavenNameHash] = fromHavenHash;\n        havenName[confirmHavenNameHash] = toHavenHash;\n        haven[fromHavenHash].havenName = haven[toHavenHash].havenName;\n        haven[toHavenHash].havenName = _expectedHavenName;\n        // Remove the havenName transfer queue and row in list\n        uint rowToDelete = havenNameTransferQueue[toHavenHash].listPointer;\n        delete havenNameTransferQueue[toHavenHash];\n        uint256 keyToMove = havenNameTransferList[havenNameTransferList.length-1];\n        havenNameTransferList[rowToDelete] = keyToMove;\n        havenNameTransferQueue[keyToMove].listPointer = rowToDelete;\n        havenNameTransferList.pop();\n        return true;\n    }\n\n    // deletes the haven from the havenList and also deletes the havenName. havenPriv and NR account mapping left for recovery\n    function deleteHaven(string memory _naturalRightsId) public returns(bool success) {\n        require(isDevHavenAuthorized(_naturalRightsId), 'msg.sender not authorized for Haven');\n        require(isHavenSet(_naturalRightsId), 'Haven does not exist');\n        uint256 havenHash = uint256(keccak256(bytes(_naturalRightsId)));\n        uint rowToDelete = haven[havenHash].listPointer;\n        uint256 keyToMove = havenList[havenList.length-1];\n        havenList[rowToDelete] = keyToMove;\n        haven[keyToMove].listPointer = rowToDelete;\n        havenList.pop();\n        uint256 havenNameHash = uint256(keccak256(bytes(haven[havenHash].havenName)));\n        delete havenName[havenNameHash];\n        delete haven[havenHash].havenName; \n        return true;\n    }\n}\n",
  "sourcePath": "/home/charles/Projects/gitlab/haven-truffle/contracts/Havens.sol",
  "compiler": {
    "name": "solc",
    "version": "0.6.3+commit.8dda9521.Emscripten.clang"
  },
  "schemaVersion": "3.0.23",
  "updatedAt": "2020-03-02T01:23:41.235Z",
  "networkType": "ethereum",
  "devdoc": {
    "methods": {
      "isOwner()": {
        "details": "Returns true if the caller is the current owner."
      },
      "owner()": {
        "details": "Returns the address of the current owner."
      },
      "renounceOwnership()": {
        "details": "Leaves the contract without owner. It will not be possible to call `onlyOwner` functions anymore. Can only be called by the current owner.     * NOTE: Renouncing ownership will leave the contract without an owner, thereby removing any functionality that is only available to the owner."
      },
      "transferOwnership(address)": {
        "details": "Transfers ownership of the contract to a new account (`newOwner`). Can only be called by the current owner."
      }
    }
  },
  "userdoc": {
    "methods": {}
  }
}