{
  "_format": "hh-sol-artifact-1",
  "contractName": "BondingNOM",
  "sourceName": "contracts/BondingNOM.sol",
  "abi": [
    {
      "inputs": [
        {
          "internalType": "address",
          "name": "NOMContAddr",
          "type": "address"
        }
      ],
      "stateMutability": "nonpayable",
      "type": "constructor"
    },
    {
      "anonymous": false,
      "inputs": [
        {
          "indexed": true,
          "internalType": "address",
          "name": "previousOwner",
          "type": "address"
        },
        {
          "indexed": true,
          "internalType": "address",
          "name": "newOwner",
          "type": "address"
        }
      ],
      "name": "OwnershipTransferred",
      "type": "event"
    },
    {
      "anonymous": false,
      "inputs": [
        {
          "indexed": true,
          "internalType": "address",
          "name": "_by",
          "type": "address"
        },
        {
          "indexed": false,
          "internalType": "uint256",
          "name": "amountNOM",
          "type": "uint256"
        },
        {
          "indexed": false,
          "internalType": "uint256",
          "name": "amountETH",
          "type": "uint256"
        },
        {
          "indexed": false,
          "internalType": "uint256",
          "name": "price",
          "type": "uint256"
        },
        {
          "indexed": false,
          "internalType": "uint256",
          "name": "supply",
          "type": "uint256"
        },
        {
          "indexed": false,
          "internalType": "string",
          "name": "buyOrSell",
          "type": "string"
        },
        {
          "indexed": false,
          "internalType": "int128",
          "name": "slippage",
          "type": "int128"
        }
      ],
      "name": "Transaction",
      "type": "event"
    },
    {
      "inputs": [
        {
          "internalType": "uint256",
          "name": "supplyTop",
          "type": "uint256"
        },
        {
          "internalType": "uint256",
          "name": "supplyBot",
          "type": "uint256"
        }
      ],
      "name": "NOMSupToETH",
      "outputs": [
        {
          "internalType": "uint256",
          "name": "",
          "type": "uint256"
        }
      ],
      "stateMutability": "view",
      "type": "function"
    },
    {
      "inputs": [],
      "name": "NOMTokenContract",
      "outputs": [
        {
          "internalType": "address",
          "name": "",
          "type": "address"
        }
      ],
      "stateMutability": "view",
      "type": "function"
    },
    {
      "inputs": [],
      "name": "a",
      "outputs": [
        {
          "internalType": "uint256",
          "name": "",
          "type": "uint256"
        }
      ],
      "stateMutability": "view",
      "type": "function"
    },
    {
      "inputs": [
        {
          "internalType": "uint256",
          "name": "estAmountNOM",
          "type": "uint256"
        },
        {
          "internalType": "uint256",
          "name": "allowSlip",
          "type": "uint256"
        }
      ],
      "name": "buyNOM",
      "outputs": [],
      "stateMutability": "payable",
      "type": "function"
    },
    {
      "inputs": [
        {
          "internalType": "uint256",
          "name": "amountETH",
          "type": "uint256"
        }
      ],
      "name": "buyQuoteETH",
      "outputs": [
        {
          "internalType": "uint256",
          "name": "",
          "type": "uint256"
        }
      ],
      "stateMutability": "view",
      "type": "function"
    },
    {
      "inputs": [
        {
          "internalType": "uint256",
          "name": "amountNOM",
          "type": "uint256"
        }
      ],
      "name": "buyQuoteNOM",
      "outputs": [
        {
          "internalType": "uint256",
          "name": "",
          "type": "uint256"
        }
      ],
      "stateMutability": "view",
      "type": "function"
    },
    {
      "inputs": [
        {
          "internalType": "int128",
          "name": "x",
          "type": "int128"
        }
      ],
      "name": "cubrt",
      "outputs": [
        {
          "internalType": "int128",
          "name": "",
          "type": "int128"
        }
      ],
      "stateMutability": "pure",
      "type": "function"
    },
    {
      "inputs": [
        {
          "internalType": "uint256",
          "name": "x",
          "type": "uint256"
        }
      ],
      "name": "cubrtu",
      "outputs": [
        {
          "internalType": "uint256",
          "name": "",
          "type": "uint256"
        }
      ],
      "stateMutability": "pure",
      "type": "function"
    },
    {
      "inputs": [],
      "name": "decimals",
      "outputs": [
        {
          "internalType": "uint8",
          "name": "",
          "type": "uint8"
        }
      ],
      "stateMutability": "view",
      "type": "function"
    },
    {
      "inputs": [
        {
          "internalType": "int128",
          "name": "fixed64",
          "type": "int128"
        }
      ],
      "name": "f64ToTok",
      "outputs": [
        {
          "internalType": "uint256",
          "name": "",
          "type": "uint256"
        }
      ],
      "stateMutability": "view",
      "type": "function"
    },
    {
      "inputs": [],
      "name": "getBondPrice",
      "outputs": [
        {
          "internalType": "uint256",
          "name": "",
          "type": "uint256"
        }
      ],
      "stateMutability": "view",
      "type": "function"
    },
    {
      "inputs": [],
      "name": "getNOMAddr",
      "outputs": [
        {
          "internalType": "address",
          "name": "",
          "type": "address"
        }
      ],
      "stateMutability": "view",
      "type": "function"
    },
    {
      "inputs": [],
      "name": "getSupplyNOM",
      "outputs": [
        {
          "internalType": "uint256",
          "name": "",
          "type": "uint256"
        }
      ],
      "stateMutability": "view",
      "type": "function"
    },
    {
      "inputs": [],
      "name": "owner",
      "outputs": [
        {
          "internalType": "address",
          "name": "",
          "type": "address"
        }
      ],
      "stateMutability": "view",
      "type": "function"
    },
    {
      "inputs": [
        {
          "internalType": "uint256",
          "name": "_supplyNOM",
          "type": "uint256"
        }
      ],
      "name": "priceAtSupply",
      "outputs": [
        {
          "internalType": "uint256",
          "name": "",
          "type": "uint256"
        }
      ],
      "stateMutability": "view",
      "type": "function"
    },
    {
      "inputs": [],
      "name": "priceBondCurve",
      "outputs": [
        {
          "internalType": "uint256",
          "name": "",
          "type": "uint256"
        }
      ],
      "stateMutability": "view",
      "type": "function"
    },
    {
      "inputs": [],
      "name": "renounceOwnership",
      "outputs": [],
      "stateMutability": "nonpayable",
      "type": "function"
    },
    {
      "inputs": [
        {
          "internalType": "uint256",
          "name": "amountNOM",
          "type": "uint256"
        },
        {
          "internalType": "uint256",
          "name": "estAmountETH",
          "type": "uint256"
        },
        {
          "internalType": "uint256",
          "name": "allowSlip",
          "type": "uint256"
        }
      ],
      "name": "sellNOM",
      "outputs": [],
      "stateMutability": "payable",
      "type": "function"
    },
    {
      "inputs": [
        {
          "internalType": "uint256",
          "name": "amountNOM",
          "type": "uint256"
        }
      ],
      "name": "sellQuoteNOM",
      "outputs": [
        {
          "internalType": "uint256",
          "name": "",
          "type": "uint256"
        }
      ],
      "stateMutability": "view",
      "type": "function"
    },
    {
      "inputs": [
        {
          "internalType": "uint256",
          "name": "price",
          "type": "uint256"
        }
      ],
      "name": "supplyAtPrice",
      "outputs": [
        {
          "internalType": "uint256",
          "name": "",
          "type": "uint256"
        }
      ],
      "stateMutability": "view",
      "type": "function"
    },
    {
      "inputs": [],
      "name": "supplyNOM",
      "outputs": [
        {
          "internalType": "uint256",
          "name": "",
          "type": "uint256"
        }
      ],
      "stateMutability": "view",
      "type": "function"
    },
    {
      "inputs": [],
      "name": "teamBalance",
      "outputs": [
        {
          "internalType": "uint256",
          "name": "",
          "type": "uint256"
        }
      ],
      "stateMutability": "view",
      "type": "function"
    },
    {
      "inputs": [
        {
          "internalType": "uint256",
          "name": "token",
          "type": "uint256"
        }
      ],
      "name": "tokToF64",
      "outputs": [
        {
          "internalType": "int128",
          "name": "",
          "type": "int128"
        }
      ],
      "stateMutability": "view",
      "type": "function"
    },
    {
      "inputs": [
        {
          "internalType": "address",
          "name": "newOwner",
          "type": "address"
        }
      ],
      "name": "transferOwnership",
      "outputs": [],
      "stateMutability": "nonpayable",
      "type": "function"
    },
    {
      "inputs": [],
      "name": "withdraw",
      "outputs": [
        {
          "internalType": "bool",
          "name": "success",
          "type": "bool"
        }
      ],
      "stateMutability": "nonpayable",
      "type": "function"
    }
  ],
  "bytecode": "0x6080604052600060035560006004556012600560006101000a81548160ff021916908360ff1602179055506200005a6305f5e100600560009054906101000a900460ff1660ff16600a0a620001da60201b62001b431760201c565b6006553480156200006a57600080fd5b5060405162002a4638038062002a46833981810160405260208110156200009057600080fd5b81019080805190602001909291905050506000620000b36200026560201b60201c565b9050806000806101000a81548173ffffffffffffffffffffffffffffffffffffffff021916908373ffffffffffffffffffffffffffffffffffffffff1602179055508073ffffffffffffffffffffffffffffffffffffffff16600073ffffffffffffffffffffffffffffffffffffffff167f8be0079c531659141344cd1fd0a4f28419497f9722a3daafe3b4186f6b6457e060405160405180910390a35080600260006101000a81548173ffffffffffffffffffffffffffffffffffffffff021916908373ffffffffffffffffffffffffffffffffffffffff16021790555080600160006101000a81548173ffffffffffffffffffffffffffffffffffffffff021916908373ffffffffffffffffffffffffffffffffffffffff160217905550506200026d565b600080831415620001ef57600090506200025f565b60008284029050828482816200020157fe5b04146200025a576040517f08c379a000000000000000000000000000000000000000000000000000000000815260040180806020018281038252602181526020018062002a256021913960400191505060405180910390fd5b809150505b92915050565b600033905090565b6127a8806200027d6000396000f3fe6080604052600436106101655760003560e01c806359eaced0116100d15780638e117f6d1161008a578063daff394a11610064578063daff394a14610661578063eb208d6f146106b0578063ec69c417146106f2578063f2fde38b1461074757610165565b80638e117f6d146105b2578063afea5852146105dd578063bc0f023c1461063657610165565b806359eaced014610474578063715018a6146104b55780637abe7448146104cc5780637eda93471461051b57806389e85217146105465780638da5cb5b1461057157610165565b806329b57f881161012357806329b57f8814610309578063313ce5671461035b5780633542a097146103895780633c4df4fc146103ca5780633ccfd60b146103f55780635700f2001461042257610165565b80627f39c71461016a57806302689ad6146101b9578063080d1f82146102085780630dbe671f1461024057806325572aa41461026b57806328904475146102ba575b600080fd5b34801561017657600080fd5b506101a36004803603602081101561018d57600080fd5b8101908080359060200190929190505050610798565b6040518082815260200191505060405180910390f35b3480156101c557600080fd5b506101f2600480360360208110156101dc57600080fd5b8101908080359060200190929190505050610967565b6040518082815260200191505060405180910390f35b61023e6004803603604081101561021e57600080fd5b8101908080359060200190929190803590602001909291905050506109c0565b005b34801561024c57600080fd5b50610255610cc2565b6040518082815260200191505060405180910390f35b34801561027757600080fd5b506102a46004803603602081101561028e57600080fd5b8101908080359060200190929190505050610cc8565b6040518082815260200191505060405180910390f35b3480156102c657600080fd5b506102f3600480360360208110156102dd57600080fd5b8101908080359060200190929190505050610cfd565b6040518082815260200191505060405180910390f35b34801561031557600080fd5b506103426004803603602081101561032c57600080fd5b8101908080359060200190929190505050610d56565b6040518082600f0b815260200191505060405180910390f35b34801561036757600080fd5b50610370610d7e565b604051808260ff16815260200191505060405180910390f35b34801561039557600080fd5b5061039e610d91565b604051808273ffffffffffffffffffffffffffffffffffffffff16815260200191505060405180910390f35b3480156103d657600080fd5b506103df610db7565b6040518082815260200191505060405180910390f35b34801561040157600080fd5b5061040a610dbd565b60405180821515815260200191505060405180910390f35b34801561042e57600080fd5b5061045e6004803603602081101561044557600080fd5b810190808035600f0b9060200190929190505050610ffd565b6040518082815260200191505060405180910390f35b34801561048057600080fd5b50610489611025565b604051808273ffffffffffffffffffffffffffffffffffffffff16815260200191505060405180910390f35b3480156104c157600080fd5b506104ca61104f565b005b3480156104d857600080fd5b50610505600480360360208110156104ef57600080fd5b81019080803590602001909291905050506111bc565b6040518082815260200191505060405180910390f35b34801561052757600080fd5b50610530611286565b6040518082815260200191505060405180910390f35b34801561055257600080fd5b5061055b61128c565b6040518082815260200191505060405180910390f35b34801561057d57600080fd5b50610586611386565b604051808273ffffffffffffffffffffffffffffffffffffffff16815260200191505060405180910390f35b3480156105be57600080fd5b506105c76113af565b6040518082815260200191505060405180910390f35b3480156105e957600080fd5b506106206004803603604081101561060057600080fd5b8101908080359060200190929190803590602001909291905050506113b9565b6040518082815260200191505060405180910390f35b34801561064257600080fd5b5061064b61149c565b6040518082815260200191505060405180910390f35b34801561066d57600080fd5b5061069a6004803603602081101561068457600080fd5b81019080803590602001909291905050506114a6565b6040518082815260200191505060405180910390f35b6106f0600480360360608110156106c657600080fd5b810190808035906020019092919080359060200190929190803590602001909291905050506114dd565b005b3480156106fe57600080fd5b5061072e6004803603602081101561071557600080fd5b810190808035600f0b9060200190929190505050611928565b6040518082600f0b815260200191505060405180910390f35b34801561075357600080fd5b506107966004803603602081101561076a57600080fd5b81019080803573ffffffffffffffffffffffffffffffffffffffff169060200190929190505050611951565b005b6000808214156107ab5760009050610962565b6000829050600060019050720100000000000000000000000000000000000082106107df57609082901c9150603081901b90505b690100000000000000000082106107ff57604882901c9150601881901b90505b641000000000821061081a57602482901c9150600c81901b90505b62040000821061083357601282901c9150600681901b90505b611000821061084b57600c82901c9150600481901b90505b610200821061086357600982901c9150600381901b90505b6040821061087a57600682901c9150600281901b90505b6008821061088a57600181901b90505b6003816002026002830a868161089c57fe5b0401816108a557fe5b0490506003816002026002830a86816108ba57fe5b0401816108c357fe5b0490506003816002026002830a86816108d857fe5b0401816108e157fe5b0490506003816002026002830a86816108f657fe5b0401816108ff57fe5b0490506003816002026002830a868161091457fe5b04018161091d57fe5b0490506003816002026002830a868161093257fe5b04018161093b57fe5b0490506003816002026002830a868161095057fe5b04018161095957fe5b04905080925050505b919050565b60008061097f83600354611bc990919063ffffffff16565b9050600061098f600354836113b9565b90506109b76109a8606483611c4c90919063ffffffff16565b82611bc990919063ffffffff16565b92505050919050565b60003411610a36576040517f08c379a00000000000000000000000000000000000000000000000000000000081526004018080602001828103825260068152602001807f4e6f20455448000000000000000000000000000000000000000000000000000081525060200191505060405180910390fd5b6000610a41346111bc565b90506000610a588285611bc990919063ffffffff16565b90506000600f0b81600f0b1315610b1357610a9083610a8261271087611c4c90919063ffffffff16565b611b4390919063ffffffff16565b600f0b610a9c82611cd5565b600f0b12610b12576040517f08c379a000000000000000000000000000000000000000000000000000000000815260040180806020018281038252601d8152602001807f536c6970706167652067726561746572207468616e20616c6c6f77656400000081525060200191505060405180910390fd5b5b610b2882600354611cf490919063ffffffff16565b600381905550610b396003546114a6565b600481905550600160009054906101000a900473ffffffffffffffffffffffffffffffffffffffff1673ffffffffffffffffffffffffffffffffffffffff1663a9059cbb33846040518363ffffffff1660e01b8152600401808373ffffffffffffffffffffffffffffffffffffffff16815260200182815260200192505050602060405180830381600087803b158015610bd257600080fd5b505af1158015610be6573d6000803e3d6000fd5b505050506040513d6020811015610bfc57600080fd5b8101908080519060200190929190505050503373ffffffffffffffffffffffffffffffffffffffff167fba6e2424b8ff14ca76fa4e03102d82f95f2d8b508b9fd9c81c324382fc95d3d4833460045460035486604051808681526020018581526020018481526020018381526020018060200183600f0b8152602001828103825260038152602001807f6275790000000000000000000000000000000000000000000000000000000000815250602001965050505050505060405180910390a250505050565b60065481565b6000610cf6610cf1610ce1610cdc85610d56565b611d7c565b610cec600654610d56565b611da5565b610ffd565b9050919050565b600080610d1583600354611cf490919063ffffffff16565b90506000610d25826003546113b9565b9050610d4d610d3e606483611c4c90919063ffffffff16565b82611bc990919063ffffffff16565b92505050919050565b6000610d7782600560009054906101000a900460ff1660ff16600a0a611e10565b9050919050565b600560009054906101000a900460ff1681565b600260009054906101000a900473ffffffffffffffffffffffffffffffffffffffff1681565b60035481565b6000610dc7611e78565b73ffffffffffffffffffffffffffffffffffffffff16610de5611386565b73ffffffffffffffffffffffffffffffffffffffff1614610e6e576040517f08c379a00000000000000000000000000000000000000000000000000000000081526004018080602001828103825260208152602001807f4f776e61626c653a2063616c6c6572206973206e6f7420746865206f776e657281525060200191505060405180910390fd5b60006003541415610ec9573373ffffffffffffffffffffffffffffffffffffffff166108fc479081150290604051600060405180830381858888f19350505050158015610ebf573d6000803e3d6000fd5b5060019050610ffa565b6000610f82600160009054906101000a900473ffffffffffffffffffffffffffffffffffffffff1673ffffffffffffffffffffffffffffffffffffffff166318160ddd6040518163ffffffff1660e01b815260040160206040518083038186803b158015610f3657600080fd5b505afa158015610f4a573d6000803e3d6000fd5b505050506040513d6020811015610f6057600080fd5b8101908080519060200190929190505050600654611bc990919063ffffffff16565b90506000610f92600354836113b9565b90506000610fa98247611bc990919063ffffffff16565b90503373ffffffffffffffffffffffffffffffffffffffff166108fc829081150290604051600060405180830381858888f19350505050158015610ff1573d6000803e3d6000fd5b50600193505050505b90565b600061101e82600560009054906101000a900460ff1660ff16600a0a611e80565b9050919050565b6000600260009054906101000a900473ffffffffffffffffffffffffffffffffffffffff16905090565b611057611e78565b73ffffffffffffffffffffffffffffffffffffffff16611075611386565b73ffffffffffffffffffffffffffffffffffffffff16146110fe576040517f08c379a00000000000000000000000000000000000000000000000000000000081526004018080602001828103825260208152602001807f4f776e61626c653a2063616c6c6572206973206e6f7420746865206f776e657281525060200191505060405180910390fd5b600073ffffffffffffffffffffffffffffffffffffffff1660008054906101000a900473ffffffffffffffffffffffffffffffffffffffff1673ffffffffffffffffffffffffffffffffffffffff167f8be0079c531659141344cd1fd0a4f28419497f9722a3daafe3b4186f6b6457e060405160405180910390a360008060006101000a81548173ffffffffffffffffffffffffffffffffffffffff021916908373ffffffffffffffffffffffffffffffffffffffff160217905550565b6000806111e56111d6606485611c4c90919063ffffffff16565b84611bc990919063ffffffff16565b90506000611276611271611206600654600654611b4390919063ffffffff16565b61126c6112676112276112196003611f3b565b61122289610d56565b611da5565b61126261125261124b61123b600354610d56565b611246600654610d56565b611f5e565b6002611fe1565b61125d600354610d56565b611da5565b6122f6565b610ffd565b611b43565b610798565b9050600354810392505050919050565b60045481565b60008060035414156112a057479050611383565b6000611359600160009054906101000a900473ffffffffffffffffffffffffffffffffffffffff1673ffffffffffffffffffffffffffffffffffffffff166318160ddd6040518163ffffffff1660e01b815260040160206040518083038186803b15801561130d57600080fd5b505afa158015611321573d6000803e3d6000fd5b505050506040513d602081101561133757600080fd5b8101908080519060200190929190505050600654611bc990919063ffffffff16565b90506000611369600354836113b9565b905061137e8147611bc990919063ffffffff16565b925050505b90565b60008060009054906101000a900473ffffffffffffffffffffffffffffffffffffffff16905090565b6000600454905090565b6000818311611413576040517f08c379a000000000000000000000000000000000000000000000000000000000815260040180806020018281038252602981526020018061274a6029913960400191505060405180910390fd5b61149461148f611436611427600654610d56565b6114316003611f3b565b611f5e565b61148a61145f61145861144889610d56565b611453600654610d56565b611f5e565b6003611fe1565b61148561147e61146e89610d56565b611479600654610d56565b611f5e565b6003611fe1565b61235d565b611da5565b610ffd565b905092915050565b6000600354905090565b60006114d66114d16114ca6114ba85610d56565b6114c5600654610d56565b611f5e565b6002611fe1565b610ffd565b9050919050565b82600160009054906101000a900473ffffffffffffffffffffffffffffffffffffffff1673ffffffffffffffffffffffffffffffffffffffff1663dd62ed3e33306040518363ffffffff1660e01b8152600401808373ffffffffffffffffffffffffffffffffffffffff1681526020018273ffffffffffffffffffffffffffffffffffffffff16815260200192505050602060405180830381600087803b15801561158757600080fd5b505af115801561159b573d6000803e3d6000fd5b505050506040513d60208110156115b157600080fd5b81019080805190602001909291905050501015611636576040517f08c379a000000000000000000000000000000000000000000000000000000000815260040180806020018281038252601f8152602001807f73656e64657220686173206e6f7420656e6f75676820616c6c6f77616e63650081525060200191505060405180910390fd5b600061164184610967565b905060006116588285611bc990919063ffffffff16565b90506000600f0b81600f0b1315611713576116908361168261271087611c4c90919063ffffffff16565b611b4390919063ffffffff16565b600f0b61169c82611cd5565b600f0b12611712576040517f08c379a000000000000000000000000000000000000000000000000000000000815260040180806020018281038252601d8152602001807f536c6970706167652067726561746572207468616e20616c6c6f77656400000081525060200191505060405180910390fd5b5b600160009054906101000a900473ffffffffffffffffffffffffffffffffffffffff1673ffffffffffffffffffffffffffffffffffffffff166323b872dd3330886040518463ffffffff1660e01b8152600401808473ffffffffffffffffffffffffffffffffffffffff1681526020018373ffffffffffffffffffffffffffffffffffffffff1681526020018281526020019350505050602060405180830381600087803b1580156117c457600080fd5b505af11580156117d8573d6000803e3d6000fd5b505050506040513d60208110156117ee57600080fd5b81019080805190602001909291905050505061181585600354611bc990919063ffffffff16565b6003819055506118266003546114a6565b6004819055503373ffffffffffffffffffffffffffffffffffffffff167fba6e2424b8ff14ca76fa4e03102d82f95f2d8b508b9fd9c81c324382fc95d3d4868460045460035486604051808681526020018581526020018481526020018381526020018060200183600f0b8152602001828103825260048152602001807f73656c6c00000000000000000000000000000000000000000000000000000000815250602001965050505050505060405180910390a23373ffffffffffffffffffffffffffffffffffffffff166108fc839081150290604051600060405180830381858888f19350505050158015611920573d6000803e3d6000fd5b505050505050565b60008082600f0b121561193a57600080fd5b61194a604083600f0b901b610798565b9050919050565b611959611e78565b73ffffffffffffffffffffffffffffffffffffffff16611977611386565b73ffffffffffffffffffffffffffffffffffffffff1614611a00576040517f08c379a00000000000000000000000000000000000000000000000000000000081526004018080602001828103825260208152602001807f4f776e61626c653a2063616c6c6572206973206e6f7420746865206f776e657281525060200191505060405180910390fd5b600073ffffffffffffffffffffffffffffffffffffffff168173ffffffffffffffffffffffffffffffffffffffff161415611a86576040517f08c379a00000000000000000000000000000000000000000000000000000000081526004018080602001828103825260268152602001806127036026913960400191505060405180910390fd5b8073ffffffffffffffffffffffffffffffffffffffff1660008054906101000a900473ffffffffffffffffffffffffffffffffffffffff1673ffffffffffffffffffffffffffffffffffffffff167f8be0079c531659141344cd1fd0a4f28419497f9722a3daafe3b4186f6b6457e060405160405180910390a3806000806101000a81548173ffffffffffffffffffffffffffffffffffffffff021916908373ffffffffffffffffffffffffffffffffffffffff16021790555050565b600080831415611b565760009050611bc3565b6000828402905082848281611b6757fe5b0414611bbe576040517f08c379a00000000000000000000000000000000000000000000000000000000081526004018080602001828103825260218152602001806127296021913960400191505060405180910390fd5b809150505b92915050565b600082821115611c41576040517f08c379a000000000000000000000000000000000000000000000000000000000815260040180806020018281038252601e8152602001807f536166654d6174683a207375627472616374696f6e206f766572666c6f77000081525060200191505060405180910390fd5b818303905092915050565b6000808211611cc3576040517f08c379a000000000000000000000000000000000000000000000000000000000815260040180806020018281038252601a8152602001807f536166654d6174683a206469766973696f6e206279207a65726f00000000000081525060200191505060405180910390fd5b818381611ccc57fe5b04905092915050565b60008082600f0b1215611ceb5781600003611ced565b815b9050919050565b600080828401905083811015611d72576040517f08c379a000000000000000000000000000000000000000000000000000000000815260040180806020018281038252601b8152602001807f536166654d6174683a206164646974696f6e206f766572666c6f77000000000081525060200191505060405180910390fd5b8091505092915050565b60008082600f0b1215611d8e57600080fd5b611d9e604083600f0b901b6123c4565b9050919050565b600080604083600f0b85600f0b02901d90507fffffffffffffffffffffffffffffffff80000000000000000000000000000000600f0b8112158015611dfd57506f7fffffffffffffffffffffffffffffff600f0b8113155b611e0657600080fd5b8091505092915050565b600080821415611e1f57600080fd5b6000611e2b8484612541565b90506f7fffffffffffffffffffffffffffffff6fffffffffffffffffffffffffffffffff16816fffffffffffffffffffffffffffffffff161115611e6e57600080fd5b8091505092915050565b600033905090565b600080821415611e935760009050611f35565b600083600f0b1215611ea457600080fd5b600060406fffffffffffffffffffffffffffffffff841685600f0b02901c90506000608084901c85600f0b02905077ffffffffffffffffffffffffffffffffffffffffffffffff811115611ef757600080fd5b604081901b9050817fffffffffffffffffffffffffffffffffffffffffffffffffffffffffffffffff03811115611f2d57600080fd5b818101925050505b92915050565b6000677fffffffffffffff821115611f5257600080fd5b604082901b9050919050565b60008082600f0b1415611f7057600080fd5b600082600f0b604085600f0b901b81611f8557fe5b0590507fffffffffffffffffffffffffffffffff80000000000000000000000000000000600f0b8112158015611fce57506f7fffffffffffffffffffffffffffffff600f0b8113155b611fd757600080fd5b8091505092915050565b600080600084600f0b128015611ff957506001808416145b905060008085600f0b1261200d5784612012565b846000035b6fffffffffffffffffffffffffffffffff169050600070010000000000000000000000000000000090506801000000000000000082116120ec57603f82901b91505b600085146120e0576000600186161461207157607f828202901c90505b607f828302901c91506000600286161461208f57607f828202901c90505b607f828302901c9150600060048616146120ad57607f828202901c90505b607f828302901c9150600060088616146120cb57607f828202901c90505b607f828302901c9150600485901c9450612054565b604081901c9050612286565b6000603f90506c0100000000000000000000000083101561211557602083901b92506020810390505b6e01000000000000000000000000000083101561213a57601083901b92506010810390505b6f0100000000000000000000000000000083101561216057600883901b92506008810390505b6f1000000000000000000000000000000083101561218657600483901b92506004810390505b6f400000000000000000000000000000008310156121ac57600283901b92506002810390505b6f800000000000000000000000000000008310156121d257600183901b92506001810390505b60005b6000871461226d57604082106121ea57600080fd5b6000600188161461222b57607f848402901c9250818101905070010000000000000000000000000000000083111561222a57600183901c92506001810190505b5b607f848502901c9350600182901b9150700100000000000000000000000000000000841061226157600184901c93506001820191505b600187901c96506121d5565b6040811061227a57600080fd5b8060400383901c925050505b6000836122935781612298565b816000035b90507fffffffffffffffffffffffffffffffff80000000000000000000000000000000600f0b81121580156122e057506f7fffffffffffffffffffffffffffffff600f0b8113155b6122e957600080fd5b8094505050505092915050565b60008082600f0b84600f0b0190507fffffffffffffffffffffffffffffffff80000000000000000000000000000000600f0b811215801561234a57506f7fffffffffffffffffffffffffffffff600f0b8113155b61235357600080fd5b8091505092915050565b60008082600f0b84600f0b0390507fffffffffffffffffffffffffffffffff80000000000000000000000000000000600f0b81121580156123b157506f7fffffffffffffffffffffffffffffff600f0b8113155b6123ba57600080fd5b8091505092915050565b6000808214156123d7576000905061253c565b6000829050600060019050700100000000000000000000000000000000821061240957608082901c9150604081901b90505b68010000000000000000821061242857604082901c9150602081901b90505b640100000000821061244357602082901c9150601081901b90505b62010000821061245c57601082901c9150600881901b90505b610100821061247457600882901c9150600481901b90505b6010821061248b57600482901c9150600281901b90505b6008821061249b57600181901b90505b60018185816124a657fe5b048201901c905060018185816124b857fe5b048201901c905060018185816124ca57fe5b048201901c905060018185816124dc57fe5b048201901c905060018185816124ee57fe5b048201901c9050600181858161250057fe5b048201901c9050600181858161251257fe5b048201901c9050600081858161252457fe5b0490508082106125345780612536565b815b93505050505b919050565b60008082141561255057600080fd5b600077ffffffffffffffffffffffffffffffffffffffffffffffff84116125865782604085901b8161257e57fe5b0490506126db565b600060c09050600060c086901c905064010000000081106125af57602081901c90506020820191505b6201000081106125c757601081901c90506010820191505b61010081106125de57600881901c90506008820191505b601081106125f457600481901c90506004820191505b6004811061260a57600281901c90506002820191505b60028110612619576001820191505b600160bf830360018703901c018260ff0387901b8161263457fe5b0492506fffffffffffffffffffffffffffffffff83111561265457600080fd5b6000608086901c8402905060006fffffffffffffffffffffffffffffffff871685029050600060c089901c9050600060408a901b905082811015612699576001820391505b8281039050608084901b9250828110156126b4576001820391505b8281039050608084901c82146126c657fe5b8881816126cf57fe5b04870196505050505050505b6fffffffffffffffffffffffffffffffff8111156126f857600080fd5b809150509291505056fe4f776e61626c653a206e6577206f776e657220697320746865207a65726f2061646472657373536166654d6174683a206d756c7469706c69636174696f6e206f766572666c6f77537570706c7920546f70206973206e6f742067726561746572207468616e20537570706c7920426f74a26469706673582212206423de7f8d90acaf53c69b20aff8e243520d82d3aac1c371608e1de9cd38636f64736f6c63430007060033536166654d6174683a206d756c7469706c69636174696f6e206f766572666c6f77",
  "linkReferences": {},
  "deployedLinkReferences": {}
}