{
  "_format": "hh-sol-artifact-1",
  "contractName": "BondingNOM",
  "sourceName": "contracts/BondingNOM.sol",
  "abi": [
    {
      "inputs": [
        {
          "internalType": "address",
          "name": "NOMContAddr",
          "type": "address"
        }
      ],
      "stateMutability": "nonpayable",
      "type": "constructor"
    },
    {
      "anonymous": false,
      "inputs": [
        {
          "indexed": true,
          "internalType": "address",
          "name": "previousOwner",
          "type": "address"
        },
        {
          "indexed": true,
          "internalType": "address",
          "name": "newOwner",
          "type": "address"
        }
      ],
      "name": "OwnershipTransferred",
      "type": "event"
    },
    {
      "anonymous": false,
      "inputs": [
        {
          "indexed": true,
          "internalType": "address",
          "name": "_by",
          "type": "address"
        },
        {
          "indexed": false,
          "internalType": "uint256",
          "name": "amountNOM",
          "type": "uint256"
        },
        {
          "indexed": false,
          "internalType": "uint256",
          "name": "amountETH",
          "type": "uint256"
        },
        {
          "indexed": false,
          "internalType": "uint256",
          "name": "price",
          "type": "uint256"
        },
        {
          "indexed": false,
          "internalType": "uint256",
          "name": "supply",
          "type": "uint256"
        },
        {
          "indexed": false,
          "internalType": "string",
          "name": "buyOrSell",
          "type": "string"
        },
        {
          "indexed": false,
          "internalType": "int256",
          "name": "slippage",
          "type": "int256"
        }
      ],
      "name": "Transaction",
      "type": "event"
    },
    {
      "inputs": [
        {
          "internalType": "uint256",
          "name": "supplyTop",
          "type": "uint256"
        },
        {
          "internalType": "uint256",
          "name": "supplyBot",
          "type": "uint256"
        }
      ],
      "name": "NOMSupToETH",
      "outputs": [
        {
          "internalType": "uint256",
          "name": "",
          "type": "uint256"
        }
      ],
      "stateMutability": "view",
      "type": "function"
    },
    {
      "inputs": [],
      "name": "NOMTokenContract",
      "outputs": [
        {
          "internalType": "address",
          "name": "",
          "type": "address"
        }
      ],
      "stateMutability": "view",
      "type": "function"
    },
    {
      "inputs": [],
      "name": "a",
      "outputs": [
        {
          "internalType": "uint256",
          "name": "",
          "type": "uint256"
        }
      ],
      "stateMutability": "view",
      "type": "function"
    },
    {
      "inputs": [
        {
          "internalType": "uint256",
          "name": "estAmountNOM",
          "type": "uint256"
        },
        {
          "internalType": "uint256",
          "name": "allowSlip",
          "type": "uint256"
        }
      ],
      "name": "buyNOM",
      "outputs": [],
      "stateMutability": "payable",
      "type": "function"
    },
    {
      "inputs": [
        {
          "internalType": "uint256",
          "name": "amountETH",
          "type": "uint256"
        }
      ],
      "name": "buyQuoteETH",
      "outputs": [
        {
          "internalType": "uint256",
          "name": "",
          "type": "uint256"
        }
      ],
      "stateMutability": "view",
      "type": "function"
    },
    {
      "inputs": [
        {
          "internalType": "uint256",
          "name": "amountNOM",
          "type": "uint256"
        }
      ],
      "name": "buyQuoteNOM",
      "outputs": [
        {
          "internalType": "uint256",
          "name": "",
          "type": "uint256"
        }
      ],
      "stateMutability": "view",
      "type": "function"
    },
    {
      "inputs": [
        {
          "internalType": "uint256",
          "name": "x",
          "type": "uint256"
        }
      ],
      "name": "cubrtu",
      "outputs": [
        {
          "internalType": "uint256",
          "name": "",
          "type": "uint256"
        }
      ],
      "stateMutability": "pure",
      "type": "function"
    },
    {
      "inputs": [],
      "name": "decimals",
      "outputs": [
        {
          "internalType": "uint8",
          "name": "",
          "type": "uint8"
        }
      ],
      "stateMutability": "view",
      "type": "function"
    },
    {
      "inputs": [
        {
          "internalType": "int128",
          "name": "fixed64",
          "type": "int128"
        }
      ],
      "name": "f64ToTok",
      "outputs": [
        {
          "internalType": "uint256",
          "name": "",
          "type": "uint256"
        }
      ],
      "stateMutability": "view",
      "type": "function"
    },
    {
      "inputs": [],
      "name": "getBondPrice",
      "outputs": [
        {
          "internalType": "uint256",
          "name": "",
          "type": "uint256"
        }
      ],
      "stateMutability": "view",
      "type": "function"
    },
    {
      "inputs": [],
      "name": "getNOMAddr",
      "outputs": [
        {
          "internalType": "address",
          "name": "",
          "type": "address"
        }
      ],
      "stateMutability": "view",
      "type": "function"
    },
    {
      "inputs": [],
      "name": "getSupplyNOM",
      "outputs": [
        {
          "internalType": "uint256",
          "name": "",
          "type": "uint256"
        }
      ],
      "stateMutability": "view",
      "type": "function"
    },
    {
      "inputs": [],
      "name": "owner",
      "outputs": [
        {
          "internalType": "address",
          "name": "",
          "type": "address"
        }
      ],
      "stateMutability": "view",
      "type": "function"
    },
    {
      "inputs": [
        {
          "internalType": "uint256",
          "name": "_supplyNOM",
          "type": "uint256"
        }
      ],
      "name": "priceAtSupply",
      "outputs": [
        {
          "internalType": "uint256",
          "name": "",
          "type": "uint256"
        }
      ],
      "stateMutability": "view",
      "type": "function"
    },
    {
      "inputs": [],
      "name": "priceBondCurve",
      "outputs": [
        {
          "internalType": "uint256",
          "name": "",
          "type": "uint256"
        }
      ],
      "stateMutability": "view",
      "type": "function"
    },
    {
      "inputs": [],
      "name": "renounceOwnership",
      "outputs": [],
      "stateMutability": "nonpayable",
      "type": "function"
    },
    {
      "inputs": [
        {
          "internalType": "uint256",
          "name": "amountNOM",
          "type": "uint256"
        },
        {
          "internalType": "uint256",
          "name": "estAmountETH",
          "type": "uint256"
        },
        {
          "internalType": "uint256",
          "name": "allowSlip",
          "type": "uint256"
        }
      ],
      "name": "sellNOM",
      "outputs": [],
      "stateMutability": "payable",
      "type": "function"
    },
    {
      "inputs": [
        {
          "internalType": "uint256",
          "name": "amountNOM",
          "type": "uint256"
        }
      ],
      "name": "sellQuoteNOM",
      "outputs": [
        {
          "internalType": "uint256",
          "name": "",
          "type": "uint256"
        }
      ],
      "stateMutability": "view",
      "type": "function"
    },
    {
      "inputs": [
        {
          "internalType": "uint256",
          "name": "price",
          "type": "uint256"
        }
      ],
      "name": "supplyAtPrice",
      "outputs": [
        {
          "internalType": "uint256",
          "name": "",
          "type": "uint256"
        }
      ],
      "stateMutability": "view",
      "type": "function"
    },
    {
      "inputs": [],
      "name": "supplyNOM",
      "outputs": [
        {
          "internalType": "uint256",
          "name": "",
          "type": "uint256"
        }
      ],
      "stateMutability": "view",
      "type": "function"
    },
    {
      "inputs": [],
      "name": "teamBalance",
      "outputs": [
        {
          "internalType": "uint256",
          "name": "",
          "type": "uint256"
        }
      ],
      "stateMutability": "view",
      "type": "function"
    },
    {
      "inputs": [
        {
          "internalType": "uint256",
          "name": "token",
          "type": "uint256"
        }
      ],
      "name": "tokToF64",
      "outputs": [
        {
          "internalType": "int128",
          "name": "",
          "type": "int128"
        }
      ],
      "stateMutability": "view",
      "type": "function"
    },
    {
      "inputs": [
        {
          "internalType": "address",
          "name": "newOwner",
          "type": "address"
        }
      ],
      "name": "transferOwnership",
      "outputs": [],
      "stateMutability": "nonpayable",
      "type": "function"
    },
    {
      "inputs": [],
      "name": "withdraw",
      "outputs": [
        {
          "internalType": "bool",
          "name": "success",
          "type": "bool"
        }
      ],
      "stateMutability": "nonpayable",
      "type": "function"
    }
  ],
  "bytecode": "0x6080604052600060035560006004556012600560006101000a81548160ff021916908360ff1602179055506200005a6305f5e100600560009054906101000a900460ff1660ff16600a0a620001da60201b62001a7e1760201c565b6006553480156200006a57600080fd5b506040516200296238038062002962833981810160405260208110156200009057600080fd5b81019080805190602001909291905050506000620000b36200026560201b60201c565b9050806000806101000a81548173ffffffffffffffffffffffffffffffffffffffff021916908373ffffffffffffffffffffffffffffffffffffffff1602179055508073ffffffffffffffffffffffffffffffffffffffff16600073ffffffffffffffffffffffffffffffffffffffff167f8be0079c531659141344cd1fd0a4f28419497f9722a3daafe3b4186f6b6457e060405160405180910390a35080600260006101000a81548173ffffffffffffffffffffffffffffffffffffffff021916908373ffffffffffffffffffffffffffffffffffffffff16021790555080600160006101000a81548173ffffffffffffffffffffffffffffffffffffffff021916908373ffffffffffffffffffffffffffffffffffffffff160217905550506200026d565b600080831415620001ef57600090506200025f565b60008284029050828482816200020157fe5b04146200025a576040517f08c379a0000000000000000000000000000000000000000000000000000000008152600401808060200182810382526021815260200180620029416021913960400191505060405180910390fd5b809150505b92915050565b600033905090565b6126c4806200027d6000396000f3fe60806040526004361061014a5760003560e01c806359eaced0116100b65780638e117f6d1161006f5780638e117f6d14610597578063afea5852146105c2578063bc0f023c1461061b578063daff394a14610646578063eb208d6f14610695578063f2fde38b146106d75761014a565b806359eaced014610459578063715018a61461049a5780637abe7448146104b15780637eda93471461050057806389e852171461052b5780638da5cb5b146105565761014a565b806329b57f881161010857806329b57f88146102ee578063313ce567146103405780633542a0971461036e5780633c4df4fc146103af5780633ccfd60b146103da5780635700f200146104075761014a565b80627f39c71461014f57806302689ad61461019e578063080d1f82146101ed5780630dbe671f1461022557806325572aa414610250578063289044751461029f575b600080fd5b34801561015b57600080fd5b506101886004803603602081101561017257600080fd5b8101908080359060200190929190505050610728565b6040518082815260200191505060405180910390f35b3480156101aa57600080fd5b506101d7600480360360208110156101c157600080fd5b81019080803590602001909291905050506108f7565b6040518082815260200191505060405180910390f35b6102236004803603604081101561020357600080fd5b810190808035906020019092919080359060200190929190505050610950565b005b34801561023157600080fd5b5061023a610c3c565b6040518082815260200191505060405180910390f35b34801561025c57600080fd5b506102896004803603602081101561027357600080fd5b8101908080359060200190929190505050610c42565b6040518082815260200191505060405180910390f35b3480156102ab57600080fd5b506102d8600480360360208110156102c257600080fd5b8101908080359060200190929190505050610c77565b6040518082815260200191505060405180910390f35b3480156102fa57600080fd5b506103276004803603602081101561031157600080fd5b8101908080359060200190929190505050610cd0565b6040518082600f0b815260200191505060405180910390f35b34801561034c57600080fd5b50610355610cf8565b604051808260ff16815260200191505060405180910390f35b34801561037a57600080fd5b50610383610d0b565b604051808273ffffffffffffffffffffffffffffffffffffffff16815260200191505060405180910390f35b3480156103bb57600080fd5b506103c4610d31565b6040518082815260200191505060405180910390f35b3480156103e657600080fd5b506103ef610d37565b60405180821515815260200191505060405180910390f35b34801561041357600080fd5b506104436004803603602081101561042a57600080fd5b810190808035600f0b9060200190929190505050610f77565b6040518082815260200191505060405180910390f35b34801561046557600080fd5b5061046e610f9f565b604051808273ffffffffffffffffffffffffffffffffffffffff16815260200191505060405180910390f35b3480156104a657600080fd5b506104af610fc9565b005b3480156104bd57600080fd5b506104ea600480360360208110156104d457600080fd5b8101908080359060200190929190505050611136565b6040518082815260200191505060405180910390f35b34801561050c57600080fd5b50610515611200565b6040518082815260200191505060405180910390f35b34801561053757600080fd5b50610540611206565b6040518082815260200191505060405180910390f35b34801561056257600080fd5b5061056b611300565b604051808273ffffffffffffffffffffffffffffffffffffffff16815260200191505060405180910390f35b3480156105a357600080fd5b506105ac611329565b6040518082815260200191505060405180910390f35b3480156105ce57600080fd5b50610605600480360360408110156105e557600080fd5b810190808035906020019092919080359060200190929190505050611333565b6040518082815260200191505060405180910390f35b34801561062757600080fd5b50610630611416565b6040518082815260200191505060405180910390f35b34801561065257600080fd5b5061067f6004803603602081101561066957600080fd5b8101908080359060200190929190505050611420565b6040518082815260200191505060405180910390f35b6106d5600480360360608110156106ab57600080fd5b81019080803590602001909291908035906020019092919080359060200190929190505050611457565b005b3480156106e357600080fd5b50610726600480360360208110156106fa57600080fd5b81019080803573ffffffffffffffffffffffffffffffffffffffff16906020019092919050505061188c565b005b60008082141561073b57600090506108f2565b60008290506000600190507201000000000000000000000000000000000000821061076f57609082901c9150603081901b90505b6901000000000000000000821061078f57604882901c9150601881901b90505b64100000000082106107aa57602482901c9150600c81901b90505b6204000082106107c357601282901c9150600681901b90505b61100082106107db57600c82901c9150600481901b90505b61020082106107f357600982901c9150600381901b90505b6040821061080a57600682901c9150600281901b90505b6008821061081a57600181901b90505b6003816002026002830a868161082c57fe5b04018161083557fe5b0490506003816002026002830a868161084a57fe5b04018161085357fe5b0490506003816002026002830a868161086857fe5b04018161087157fe5b0490506003816002026002830a868161088657fe5b04018161088f57fe5b0490506003816002026002830a86816108a457fe5b0401816108ad57fe5b0490506003816002026002830a86816108c257fe5b0401816108cb57fe5b0490506003816002026002830a86816108e057fe5b0401816108e957fe5b04905080925050505b919050565b60008061090f83600354611b0490919063ffffffff16565b9050600061091f60035483611333565b9050610947610938606483611b8790919063ffffffff16565b82611b0490919063ffffffff16565b92505050919050565b600034116109c6576040517f08c379a00000000000000000000000000000000000000000000000000000000081526004018080602001828103825260068152602001807f4e6f20455448000000000000000000000000000000000000000000000000000081525060200191505060405180910390fd5b60006109d134611136565b905080831115610a8957610a02826109f461271086611b8790919063ffffffff16565b611a7e90919063ffffffff16565b610a158285611b0490919063ffffffff16565b10610a88576040517f08c379a000000000000000000000000000000000000000000000000000000000815260040180806020018281038252601d8152602001807f536c6970706167652067726561746572207468616e20616c6c6f77656400000081525060200191505060405180910390fd5b5b60008184039050610aa582600354611c1090919063ffffffff16565b600381905550610ab6600354611420565b600481905550600160009054906101000a900473ffffffffffffffffffffffffffffffffffffffff1673ffffffffffffffffffffffffffffffffffffffff1663a9059cbb33846040518363ffffffff1660e01b8152600401808373ffffffffffffffffffffffffffffffffffffffff16815260200182815260200192505050602060405180830381600087803b158015610b4f57600080fd5b505af1158015610b63573d6000803e3d6000fd5b505050506040513d6020811015610b7957600080fd5b8101908080519060200190929190505050503373ffffffffffffffffffffffffffffffffffffffff167fa70108fc37a77e4fb183df412c5ec85d9c12294d6f4c1634c5d2a594a44db9aa8334600454600354866040518086815260200185815260200184815260200183815260200180602001838152602001828103825260038152602001807f6275790000000000000000000000000000000000000000000000000000000000815250602001965050505050505060405180910390a250505050565b60065481565b6000610c70610c6b610c5b610c5685610cd0565b611c98565b610c66600654610cd0565b611cc1565b610f77565b9050919050565b600080610c8f83600354611c1090919063ffffffff16565b90506000610c9f82600354611333565b9050610cc7610cb8606483611b8790919063ffffffff16565b82611b0490919063ffffffff16565b92505050919050565b6000610cf182600560009054906101000a900460ff1660ff16600a0a611d2c565b9050919050565b600560009054906101000a900460ff1681565b600260009054906101000a900473ffffffffffffffffffffffffffffffffffffffff1681565b60035481565b6000610d41611d94565b73ffffffffffffffffffffffffffffffffffffffff16610d5f611300565b73ffffffffffffffffffffffffffffffffffffffff1614610de8576040517f08c379a00000000000000000000000000000000000000000000000000000000081526004018080602001828103825260208152602001807f4f776e61626c653a2063616c6c6572206973206e6f7420746865206f776e657281525060200191505060405180910390fd5b60006003541415610e43573373ffffffffffffffffffffffffffffffffffffffff166108fc479081150290604051600060405180830381858888f19350505050158015610e39573d6000803e3d6000fd5b5060019050610f74565b6000610efc600160009054906101000a900473ffffffffffffffffffffffffffffffffffffffff1673ffffffffffffffffffffffffffffffffffffffff166318160ddd6040518163ffffffff1660e01b815260040160206040518083038186803b158015610eb057600080fd5b505afa158015610ec4573d6000803e3d6000fd5b505050506040513d6020811015610eda57600080fd5b8101908080519060200190929190505050600654611b0490919063ffffffff16565b90506000610f0c60035483611333565b90506000610f238247611b0490919063ffffffff16565b90503373ffffffffffffffffffffffffffffffffffffffff166108fc829081150290604051600060405180830381858888f19350505050158015610f6b573d6000803e3d6000fd5b50600193505050505b90565b6000610f9882600560009054906101000a900460ff1660ff16600a0a611d9c565b9050919050565b6000600260009054906101000a900473ffffffffffffffffffffffffffffffffffffffff16905090565b610fd1611d94565b73ffffffffffffffffffffffffffffffffffffffff16610fef611300565b73ffffffffffffffffffffffffffffffffffffffff1614611078576040517f08c379a00000000000000000000000000000000000000000000000000000000081526004018080602001828103825260208152602001807f4f776e61626c653a2063616c6c6572206973206e6f7420746865206f776e657281525060200191505060405180910390fd5b600073ffffffffffffffffffffffffffffffffffffffff1660008054906101000a900473ffffffffffffffffffffffffffffffffffffffff1673ffffffffffffffffffffffffffffffffffffffff167f8be0079c531659141344cd1fd0a4f28419497f9722a3daafe3b4186f6b6457e060405160405180910390a360008060006101000a81548173ffffffffffffffffffffffffffffffffffffffff021916908373ffffffffffffffffffffffffffffffffffffffff160217905550565b60008061115f611150606485611b8790919063ffffffff16565b84611b0490919063ffffffff16565b905060006111f06111eb611180600654600654611a7e90919063ffffffff16565b6111e66111e16111a16111936003611e57565b61119c89610cd0565b611cc1565b6111dc6111cc6111c56111b5600354610cd0565b6111c0600654610cd0565b611e7a565b6002611efd565b6111d7600354610cd0565b611cc1565b612212565b610f77565b611a7e565b610728565b9050600354810392505050919050565b60045481565b600080600354141561121a574790506112fd565b60006112d3600160009054906101000a900473ffffffffffffffffffffffffffffffffffffffff1673ffffffffffffffffffffffffffffffffffffffff166318160ddd6040518163ffffffff1660e01b815260040160206040518083038186803b15801561128757600080fd5b505afa15801561129b573d6000803e3d6000fd5b505050506040513d60208110156112b157600080fd5b8101908080519060200190929190505050600654611b0490919063ffffffff16565b905060006112e360035483611333565b90506112f88147611b0490919063ffffffff16565b925050505b90565b60008060009054906101000a900473ffffffffffffffffffffffffffffffffffffffff16905090565b6000600454905090565b600081831161138d576040517f08c379a00000000000000000000000000000000000000000000000000000000081526004018080602001828103825260298152602001806126666029913960400191505060405180910390fd5b61140e6114096113b06113a1600654610cd0565b6113ab6003611e57565b611e7a565b6114046113d96113d26113c289610cd0565b6113cd600654610cd0565b611e7a565b6003611efd565b6113ff6113f86113e889610cd0565b6113f3600654610cd0565b611e7a565b6003611efd565b612279565b611cc1565b610f77565b905092915050565b6000600354905090565b600061145061144b61144461143485610cd0565b61143f600654610cd0565b611e7a565b6002611efd565b610f77565b9050919050565b82600160009054906101000a900473ffffffffffffffffffffffffffffffffffffffff1673ffffffffffffffffffffffffffffffffffffffff1663dd62ed3e33306040518363ffffffff1660e01b8152600401808373ffffffffffffffffffffffffffffffffffffffff1681526020018273ffffffffffffffffffffffffffffffffffffffff16815260200192505050602060405180830381600087803b15801561150157600080fd5b505af1158015611515573d6000803e3d6000fd5b505050506040513d602081101561152b57600080fd5b810190808051906020019092919050505010156115b0576040517f08c379a000000000000000000000000000000000000000000000000000000000815260040180806020018281038252601f8152602001807f73656e64657220686173206e6f7420656e6f75676820616c6c6f77616e63650081525060200191505060405180910390fd5b60006115bb846108f7565b905080831115611673576115ec826115de61271086611b8790919063ffffffff16565b611a7e90919063ffffffff16565b6115ff8285611b0490919063ffffffff16565b10611672576040517f08c379a000000000000000000000000000000000000000000000000000000000815260040180806020018281038252601d8152602001807f536c6970706167652067726561746572207468616e20616c6c6f77656400000081525060200191505060405180910390fd5b5b60008184039050600160009054906101000a900473ffffffffffffffffffffffffffffffffffffffff1673ffffffffffffffffffffffffffffffffffffffff166323b872dd3330886040518463ffffffff1660e01b8152600401808473ffffffffffffffffffffffffffffffffffffffff1681526020018373ffffffffffffffffffffffffffffffffffffffff1681526020018281526020019350505050602060405180830381600087803b15801561172b57600080fd5b505af115801561173f573d6000803e3d6000fd5b505050506040513d602081101561175557600080fd5b81019080805190602001909291905050505061177c85600354611b0490919063ffffffff16565b60038190555061178d600354611420565b6004819055503373ffffffffffffffffffffffffffffffffffffffff167fa70108fc37a77e4fb183df412c5ec85d9c12294d6f4c1634c5d2a594a44db9aa8684600454600354866040518086815260200185815260200184815260200183815260200180602001838152602001828103825260048152602001807f73656c6c00000000000000000000000000000000000000000000000000000000815250602001965050505050505060405180910390a23373ffffffffffffffffffffffffffffffffffffffff166108fc839081150290604051600060405180830381858888f19350505050158015611884573d6000803e3d6000fd5b505050505050565b611894611d94565b73ffffffffffffffffffffffffffffffffffffffff166118b2611300565b73ffffffffffffffffffffffffffffffffffffffff161461193b576040517f08c379a00000000000000000000000000000000000000000000000000000000081526004018080602001828103825260208152602001807f4f776e61626c653a2063616c6c6572206973206e6f7420746865206f776e657281525060200191505060405180910390fd5b600073ffffffffffffffffffffffffffffffffffffffff168173ffffffffffffffffffffffffffffffffffffffff1614156119c1576040517f08c379a000000000000000000000000000000000000000000000000000000000815260040180806020018281038252602681526020018061261f6026913960400191505060405180910390fd5b8073ffffffffffffffffffffffffffffffffffffffff1660008054906101000a900473ffffffffffffffffffffffffffffffffffffffff1673ffffffffffffffffffffffffffffffffffffffff167f8be0079c531659141344cd1fd0a4f28419497f9722a3daafe3b4186f6b6457e060405160405180910390a3806000806101000a81548173ffffffffffffffffffffffffffffffffffffffff021916908373ffffffffffffffffffffffffffffffffffffffff16021790555050565b600080831415611a915760009050611afe565b6000828402905082848281611aa257fe5b0414611af9576040517f08c379a00000000000000000000000000000000000000000000000000000000081526004018080602001828103825260218152602001806126456021913960400191505060405180910390fd5b809150505b92915050565b600082821115611b7c576040517f08c379a000000000000000000000000000000000000000000000000000000000815260040180806020018281038252601e8152602001807f536166654d6174683a207375627472616374696f6e206f766572666c6f77000081525060200191505060405180910390fd5b818303905092915050565b6000808211611bfe576040517f08c379a000000000000000000000000000000000000000000000000000000000815260040180806020018281038252601a8152602001807f536166654d6174683a206469766973696f6e206279207a65726f00000000000081525060200191505060405180910390fd5b818381611c0757fe5b04905092915050565b600080828401905083811015611c8e576040517f08c379a000000000000000000000000000000000000000000000000000000000815260040180806020018281038252601b8152602001807f536166654d6174683a206164646974696f6e206f766572666c6f77000000000081525060200191505060405180910390fd5b8091505092915050565b60008082600f0b1215611caa57600080fd5b611cba604083600f0b901b6122e0565b9050919050565b600080604083600f0b85600f0b02901d90507fffffffffffffffffffffffffffffffff80000000000000000000000000000000600f0b8112158015611d1957506f7fffffffffffffffffffffffffffffff600f0b8113155b611d2257600080fd5b8091505092915050565b600080821415611d3b57600080fd5b6000611d47848461245d565b90506f7fffffffffffffffffffffffffffffff6fffffffffffffffffffffffffffffffff16816fffffffffffffffffffffffffffffffff161115611d8a57600080fd5b8091505092915050565b600033905090565b600080821415611daf5760009050611e51565b600083600f0b1215611dc057600080fd5b600060406fffffffffffffffffffffffffffffffff841685600f0b02901c90506000608084901c85600f0b02905077ffffffffffffffffffffffffffffffffffffffffffffffff811115611e1357600080fd5b604081901b9050817fffffffffffffffffffffffffffffffffffffffffffffffffffffffffffffffff03811115611e4957600080fd5b818101925050505b92915050565b6000677fffffffffffffff821115611e6e57600080fd5b604082901b9050919050565b60008082600f0b1415611e8c57600080fd5b600082600f0b604085600f0b901b81611ea157fe5b0590507fffffffffffffffffffffffffffffffff80000000000000000000000000000000600f0b8112158015611eea57506f7fffffffffffffffffffffffffffffff600f0b8113155b611ef357600080fd5b8091505092915050565b600080600084600f0b128015611f1557506001808416145b905060008085600f0b12611f295784611f2e565b846000035b6fffffffffffffffffffffffffffffffff1690506000700100000000000000000000000000000000905068010000000000000000821161200857603f82901b91505b60008514611ffc5760006001861614611f8d57607f828202901c90505b607f828302901c915060006002861614611fab57607f828202901c90505b607f828302901c915060006004861614611fc957607f828202901c90505b607f828302901c915060006008861614611fe757607f828202901c90505b607f828302901c9150600485901c9450611f70565b604081901c90506121a2565b6000603f90506c0100000000000000000000000083101561203157602083901b92506020810390505b6e01000000000000000000000000000083101561205657601083901b92506010810390505b6f0100000000000000000000000000000083101561207c57600883901b92506008810390505b6f100000000000000000000000000000008310156120a257600483901b92506004810390505b6f400000000000000000000000000000008310156120c857600283901b92506002810390505b6f800000000000000000000000000000008310156120ee57600183901b92506001810390505b60005b60008714612189576040821061210657600080fd5b6000600188161461214757607f848402901c9250818101905070010000000000000000000000000000000083111561214657600183901c92506001810190505b5b607f848502901c9350600182901b9150700100000000000000000000000000000000841061217d57600184901c93506001820191505b600187901c96506120f1565b6040811061219657600080fd5b8060400383901c925050505b6000836121af57816121b4565b816000035b90507fffffffffffffffffffffffffffffffff80000000000000000000000000000000600f0b81121580156121fc57506f7fffffffffffffffffffffffffffffff600f0b8113155b61220557600080fd5b8094505050505092915050565b60008082600f0b84600f0b0190507fffffffffffffffffffffffffffffffff80000000000000000000000000000000600f0b811215801561226657506f7fffffffffffffffffffffffffffffff600f0b8113155b61226f57600080fd5b8091505092915050565b60008082600f0b84600f0b0390507fffffffffffffffffffffffffffffffff80000000000000000000000000000000600f0b81121580156122cd57506f7fffffffffffffffffffffffffffffff600f0b8113155b6122d657600080fd5b8091505092915050565b6000808214156122f35760009050612458565b6000829050600060019050700100000000000000000000000000000000821061232557608082901c9150604081901b90505b68010000000000000000821061234457604082901c9150602081901b90505b640100000000821061235f57602082901c9150601081901b90505b62010000821061237857601082901c9150600881901b90505b610100821061239057600882901c9150600481901b90505b601082106123a757600482901c9150600281901b90505b600882106123b757600181901b90505b60018185816123c257fe5b048201901c905060018185816123d457fe5b048201901c905060018185816123e657fe5b048201901c905060018185816123f857fe5b048201901c9050600181858161240a57fe5b048201901c9050600181858161241c57fe5b048201901c9050600181858161242e57fe5b048201901c9050600081858161244057fe5b0490508082106124505780612452565b815b93505050505b919050565b60008082141561246c57600080fd5b600077ffffffffffffffffffffffffffffffffffffffffffffffff84116124a25782604085901b8161249a57fe5b0490506125f7565b600060c09050600060c086901c905064010000000081106124cb57602081901c90506020820191505b6201000081106124e357601081901c90506010820191505b61010081106124fa57600881901c90506008820191505b6010811061251057600481901c90506004820191505b6004811061252657600281901c90506002820191505b60028110612535576001820191505b600160bf830360018703901c018260ff0387901b8161255057fe5b0492506fffffffffffffffffffffffffffffffff83111561257057600080fd5b6000608086901c8402905060006fffffffffffffffffffffffffffffffff871685029050600060c089901c9050600060408a901b9050828110156125b5576001820391505b8281039050608084901b9250828110156125d0576001820391505b8281039050608084901c82146125e257fe5b8881816125eb57fe5b04870196505050505050505b6fffffffffffffffffffffffffffffffff81111561261457600080fd5b809150509291505056fe4f776e61626c653a206e6577206f776e657220697320746865207a65726f2061646472657373536166654d6174683a206d756c7469706c69636174696f6e206f766572666c6f77537570706c7920546f70206973206e6f742067726561746572207468616e20537570706c7920426f74a2646970667358221220cc6dbccb1bab827fc4df31a294b6f2cbfd9c897193fadfb1d3c831990d474ba864736f6c63430007060033536166654d6174683a206d756c7469706c69636174696f6e206f766572666c6f77",
  "linkReferences": {},
  "deployedLinkReferences": {}
}