{
  "contractName": "BondingNOM",
  "abi": [
    {
      "inputs": [
        {
          "internalType": "address",
          "name": "NOMContAddr",
          "type": "address"
        }
      ],
      "stateMutability": "nonpayable",
      "type": "constructor"
    },
    {
      "anonymous": false,
      "inputs": [
        {
          "indexed": true,
          "internalType": "address",
          "name": "previousOwner",
          "type": "address"
        },
        {
          "indexed": true,
          "internalType": "address",
          "name": "newOwner",
          "type": "address"
        }
      ],
      "name": "OwnershipTransferred",
      "type": "event"
    },
    {
      "anonymous": false,
      "inputs": [
        {
          "indexed": true,
          "internalType": "address",
          "name": "_by",
          "type": "address"
        },
        {
          "indexed": false,
          "internalType": "uint256",
          "name": "amountNOM",
          "type": "uint256"
        },
        {
          "indexed": false,
          "internalType": "uint256",
          "name": "amountETH",
          "type": "uint256"
        },
        {
          "indexed": false,
          "internalType": "uint256",
          "name": "price",
          "type": "uint256"
        },
        {
          "indexed": false,
          "internalType": "uint256",
          "name": "supply",
          "type": "uint256"
        },
        {
          "indexed": false,
          "internalType": "string",
          "name": "buyOrSell",
          "type": "string"
        }
      ],
      "name": "Transaction",
      "type": "event"
    },
    {
      "inputs": [],
      "name": "NOMTokenContract",
      "outputs": [
        {
          "internalType": "address",
          "name": "",
          "type": "address"
        }
      ],
      "stateMutability": "view",
      "type": "function"
    },
    {
      "inputs": [],
      "name": "a",
      "outputs": [
        {
          "internalType": "uint256",
          "name": "",
          "type": "uint256"
        }
      ],
      "stateMutability": "view",
      "type": "function"
    },
    {
      "inputs": [],
      "name": "decimals",
      "outputs": [
        {
          "internalType": "uint8",
          "name": "",
          "type": "uint8"
        }
      ],
      "stateMutability": "view",
      "type": "function"
    },
    {
      "inputs": [],
      "name": "owner",
      "outputs": [
        {
          "internalType": "address",
          "name": "",
          "type": "address"
        }
      ],
      "stateMutability": "view",
      "type": "function"
    },
    {
      "inputs": [],
      "name": "priceBondCurve",
      "outputs": [
        {
          "internalType": "uint256",
          "name": "",
          "type": "uint256"
        }
      ],
      "stateMutability": "view",
      "type": "function"
    },
    {
      "inputs": [],
      "name": "renounceOwnership",
      "outputs": [],
      "stateMutability": "nonpayable",
      "type": "function"
    },
    {
      "inputs": [],
      "name": "supplyNOM",
      "outputs": [
        {
          "internalType": "uint256",
          "name": "",
          "type": "uint256"
        }
      ],
      "stateMutability": "view",
      "type": "function"
    },
    {
      "inputs": [
        {
          "internalType": "address",
          "name": "newOwner",
          "type": "address"
        }
      ],
      "name": "transferOwnership",
      "outputs": [],
      "stateMutability": "nonpayable",
      "type": "function"
    },
    {
      "inputs": [],
      "name": "getNOMAddr",
      "outputs": [
        {
          "internalType": "address",
          "name": "",
          "type": "address"
        }
      ],
      "stateMutability": "view",
      "type": "function"
    },
    {
      "inputs": [],
      "name": "getSupplyNOM",
      "outputs": [
        {
          "internalType": "uint256",
          "name": "",
          "type": "uint256"
        }
      ],
      "stateMutability": "view",
      "type": "function"
    },
    {
      "inputs": [],
      "name": "getBondPrice",
      "outputs": [
        {
          "internalType": "uint256",
          "name": "",
          "type": "uint256"
        }
      ],
      "stateMutability": "view",
      "type": "function"
    },
    {
      "inputs": [
        {
          "internalType": "uint256",
          "name": "token",
          "type": "uint256"
        }
      ],
      "name": "tokToF64",
      "outputs": [
        {
          "internalType": "int128",
          "name": "",
          "type": "int128"
        }
      ],
      "stateMutability": "view",
      "type": "function"
    },
    {
      "inputs": [
        {
          "internalType": "int128",
          "name": "fixed64",
          "type": "int128"
        }
      ],
      "name": "f64ToTok",
      "outputs": [
        {
          "internalType": "uint256",
          "name": "",
          "type": "uint256"
        }
      ],
      "stateMutability": "view",
      "type": "function"
    },
    {
      "inputs": [
        {
          "internalType": "uint256",
          "name": "_supplyNOM",
          "type": "uint256"
        }
      ],
      "name": "priceAtSupply",
      "outputs": [
        {
          "internalType": "uint256",
          "name": "",
          "type": "uint256"
        }
      ],
      "stateMutability": "view",
      "type": "function"
    },
    {
      "inputs": [
        {
          "internalType": "uint256",
          "name": "price",
          "type": "uint256"
        }
      ],
      "name": "supplyAtPrice",
      "outputs": [
        {
          "internalType": "uint256",
          "name": "",
          "type": "uint256"
        }
      ],
      "stateMutability": "view",
      "type": "function"
    },
    {
      "inputs": [
        {
          "internalType": "uint256",
          "name": "supplyTop",
          "type": "uint256"
        },
        {
          "internalType": "uint256",
          "name": "supplyBot",
          "type": "uint256"
        }
      ],
      "name": "NOMSupToETH",
      "outputs": [
        {
          "internalType": "uint256",
          "name": "",
          "type": "uint256"
        }
      ],
      "stateMutability": "view",
      "type": "function"
    },
    {
      "inputs": [
        {
          "internalType": "uint256",
          "name": "amountNOM",
          "type": "uint256"
        }
      ],
      "name": "buyQuoteNOM",
      "outputs": [
        {
          "internalType": "uint256",
          "name": "",
          "type": "uint256"
        }
      ],
      "stateMutability": "view",
      "type": "function"
    },
    {
      "inputs": [
        {
          "internalType": "int128",
          "name": "x",
          "type": "int128"
        }
      ],
      "name": "cubrt",
      "outputs": [
        {
          "internalType": "int128",
          "name": "",
          "type": "int128"
        }
      ],
      "stateMutability": "pure",
      "type": "function"
    },
    {
      "inputs": [
        {
          "internalType": "uint256",
          "name": "x",
          "type": "uint256"
        }
      ],
      "name": "cubrtu",
      "outputs": [
        {
          "internalType": "uint256",
          "name": "",
          "type": "uint256"
        }
      ],
      "stateMutability": "pure",
      "type": "function"
    },
    {
      "inputs": [
        {
          "internalType": "uint256",
          "name": "amountETH",
          "type": "uint256"
        }
      ],
      "name": "buyQuoteETH",
      "outputs": [
        {
          "internalType": "uint256",
          "name": "",
          "type": "uint256"
        }
      ],
      "stateMutability": "view",
      "type": "function"
    },
    {
      "inputs": [],
      "name": "buyNOM",
      "outputs": [],
      "stateMutability": "payable",
      "type": "function"
    },
    {
      "inputs": [
        {
          "internalType": "uint256",
          "name": "amountNOM",
          "type": "uint256"
        }
      ],
      "name": "sellQuoteNOM",
      "outputs": [
        {
          "internalType": "uint256",
          "name": "",
          "type": "uint256"
        }
      ],
      "stateMutability": "view",
      "type": "function"
    },
    {
      "inputs": [
        {
          "internalType": "uint256",
          "name": "amountNOM",
          "type": "uint256"
        }
      ],
      "name": "sellNOM",
      "outputs": [],
      "stateMutability": "nonpayable",
      "type": "function"
    },
    {
      "inputs": [],
      "name": "teamBalance",
      "outputs": [
        {
          "internalType": "uint256",
          "name": "",
          "type": "uint256"
        }
      ],
      "stateMutability": "nonpayable",
      "type": "function"
    },
    {
      "inputs": [],
      "name": "withdraw",
      "outputs": [
        {
          "internalType": "bool",
          "name": "success",
          "type": "bool"
        }
      ],
      "stateMutability": "nonpayable",
      "type": "function"
    }
  ],
  "bytecode": "0x6080604052600060035560006004556012600560006101000a81548160ff021916908360ff1602179055506200005a6305f5e100600560009054906101000a900460ff1660ff16600a0a620001da60201b620018c81760201c565b6006553480156200006a57600080fd5b506040516200280f3803806200280f833981810160405260208110156200009057600080fd5b81019080805190602001909291905050506000620000b36200026560201b60201c565b9050806000806101000a81548173ffffffffffffffffffffffffffffffffffffffff021916908373ffffffffffffffffffffffffffffffffffffffff1602179055508073ffffffffffffffffffffffffffffffffffffffff16600073ffffffffffffffffffffffffffffffffffffffff167f8be0079c531659141344cd1fd0a4f28419497f9722a3daafe3b4186f6b6457e060405160405180910390a35080600260006101000a81548173ffffffffffffffffffffffffffffffffffffffff021916908373ffffffffffffffffffffffffffffffffffffffff16021790555080600160006101000a81548173ffffffffffffffffffffffffffffffffffffffff021916908373ffffffffffffffffffffffffffffffffffffffff160217905550506200026d565b600080831415620001ef57600090506200025f565b60008284029050828482816200020157fe5b04146200025a576040517f08c379a0000000000000000000000000000000000000000000000000000000008152600401808060200182810382526021815260200180620027ee6021913960400191505060405180910390fd5b809150505b92915050565b600033905090565b612571806200027d6000396000f3fe6080604052600436106101655760003560e01c8063715018a6116100d157806396cf4cfa1161008a578063c45067a111610064578063c45067a114610633578063daff394a1461066e578063ec69c417146106bd578063f2fde38b1461071257610165565b806396cf4cfa146105a5578063afea5852146105af578063bc0f023c1461060857610165565b8063715018a61461047d5780637abe7448146104945780637eda9347146104e357806389e852171461050e5780638da5cb5b146105395780638e117f6d1461057a57610165565b8063313ce56711610123578063313ce567146103235780633542a097146103515780633c4df4fc146103925780633ccfd60b146103bd5780635700f200146103ea57806359eaced01461043c57610165565b80627f39c71461016a57806302689ad6146101b95780630dbe671f1461020857806325572aa414610233578063289044751461028257806329b57f88146102d1575b600080fd5b34801561017657600080fd5b506101a36004803603602081101561018d57600080fd5b8101908080359060200190929190505050610763565b6040518082815260200191505060405180910390f35b3480156101c557600080fd5b506101f2600480360360208110156101dc57600080fd5b8101908080359060200190929190505050610932565b6040518082815260200191505060405180910390f35b34801561021457600080fd5b5061021d610969565b6040518082815260200191505060405180910390f35b34801561023f57600080fd5b5061026c6004803603602081101561025657600080fd5b810190808035906020019092919050505061096f565b6040518082815260200191505060405180910390f35b34801561028e57600080fd5b506102bb600480360360208110156102a557600080fd5b81019080803590602001909291905050506109a4565b6040518082815260200191505060405180910390f35b3480156102dd57600080fd5b5061030a600480360360208110156102f457600080fd5b81019080803590602001909291905050506109e2565b6040518082600f0b815260200191505060405180910390f35b34801561032f57600080fd5b50610338610a0a565b604051808260ff16815260200191505060405180910390f35b34801561035d57600080fd5b50610366610a1d565b604051808273ffffffffffffffffffffffffffffffffffffffff16815260200191505060405180910390f35b34801561039e57600080fd5b506103a7610a43565b6040518082815260200191505060405180910390f35b3480156103c957600080fd5b506103d2610a49565b60405180821515815260200191505060405180910390f35b3480156103f657600080fd5b506104266004803603602081101561040d57600080fd5b810190808035600f0b9060200190929190505050610c79565b6040518082815260200191505060405180910390f35b34801561044857600080fd5b50610451610ca1565b604051808273ffffffffffffffffffffffffffffffffffffffff16815260200191505060405180910390f35b34801561048957600080fd5b50610492610ccb565b005b3480156104a057600080fd5b506104cd600480360360208110156104b757600080fd5b8101908080359060200190929190505050610e38565b6040518082815260200191505060405180910390f35b3480156104ef57600080fd5b506104f8610ee7565b6040518082815260200191505060405180910390f35b34801561051a57600080fd5b50610523610eed565b6040518082815260200191505060405180910390f35b34801561054557600080fd5b5061054e610fd7565b604051808273ffffffffffffffffffffffffffffffffffffffff16815260200191505060405180910390f35b34801561058657600080fd5b5061058f611000565b6040518082815260200191505060405180910390f35b6105ad61100a565b005b3480156105bb57600080fd5b506105f2600480360360408110156105d257600080fd5b810190808035906020019092919080359060200190929190505050611225565b6040518082815260200191505060405180910390f35b34801561061457600080fd5b5061061d611308565b6040518082815260200191505060405180910390f35b34801561063f57600080fd5b5061066c6004803603602081101561065657600080fd5b8101908080359060200190929190505050611312565b005b34801561067a57600080fd5b506106a76004803603602081101561069157600080fd5b8101908080359060200190929190505050611676565b6040518082815260200191505060405180910390f35b3480156106c957600080fd5b506106f9600480360360208110156106e057600080fd5b810190808035600f0b90602001909291905050506116ad565b6040518082600f0b815260200191505060405180910390f35b34801561071e57600080fd5b506107616004803603602081101561073557600080fd5b81019080803573ffffffffffffffffffffffffffffffffffffffff1690602001909291905050506116d6565b005b600080821415610776576000905061092d565b6000829050600060019050720100000000000000000000000000000000000082106107aa57609082901c9150603081901b90505b690100000000000000000082106107ca57604882901c9150601881901b90505b64100000000082106107e557602482901c9150600c81901b90505b6204000082106107fe57601282901c9150600681901b90505b611000821061081657600c82901c9150600481901b90505b610200821061082e57600982901c9150600381901b90505b6040821061084557600682901c9150600281901b90505b6008821061085557600181901b90505b6003816002026002830a868161086757fe5b04018161087057fe5b0490506003816002026002830a868161088557fe5b04018161088e57fe5b0490506003816002026002830a86816108a357fe5b0401816108ac57fe5b0490506003816002026002830a86816108c157fe5b0401816108ca57fe5b0490506003816002026002830a86816108df57fe5b0401816108e857fe5b0490506003816002026002830a86816108fd57fe5b04018161090657fe5b0490506003816002026002830a868161091b57fe5b04018161092457fe5b04905080925050505b919050565b60008082600354039050600061094a60035483611225565b90506109608161095b83606461194e565b6119d7565b92505050919050565b60065481565b600061099d610998610988610983856109e2565b611a5a565b6109936006546109e2565b611a83565b610c79565b9050919050565b6000806109b360035484611aee565b905060006109c382600354611225565b90506109d9816109d483606461194e565b6119d7565b92505050919050565b6000610a0382600560009054906101000a900460ff1660ff16600a0a611b76565b9050919050565b600560009054906101000a900460ff1681565b600260009054906101000a900473ffffffffffffffffffffffffffffffffffffffff1681565b60035481565b6000610a53611bde565b73ffffffffffffffffffffffffffffffffffffffff16610a71610fd7565b73ffffffffffffffffffffffffffffffffffffffff1614610afa576040517f08c379a00000000000000000000000000000000000000000000000000000000081526004018080602001828103825260208152602001807f4f776e61626c653a2063616c6c6572206973206e6f7420746865206f776e657281525060200191505060405180910390fd5b60006003541415610b55573373ffffffffffffffffffffffffffffffffffffffff166108fc479081150290604051600060405180830381858888f19350505050158015610b4b573d6000803e3d6000fd5b5060019050610c76565b6000610c07600654600160009054906101000a900473ffffffffffffffffffffffffffffffffffffffff1673ffffffffffffffffffffffffffffffffffffffff166318160ddd6040518163ffffffff1660e01b8152600401602060405180830381600087803b158015610bc757600080fd5b505af1158015610bdb573d6000803e3d6000fd5b505050506040513d6020811015610bf157600080fd5b81019080805190602001909291905050506119d7565b90506000610c1760035483611225565b90506000610c2547836119d7565b90503373ffffffffffffffffffffffffffffffffffffffff166108fc829081150290604051600060405180830381858888f19350505050158015610c6d573d6000803e3d6000fd5b50600193505050505b90565b6000610c9a82600560009054906101000a900460ff1660ff16600a0a611be6565b9050919050565b6000600260009054906101000a900473ffffffffffffffffffffffffffffffffffffffff16905090565b610cd3611bde565b73ffffffffffffffffffffffffffffffffffffffff16610cf1610fd7565b73ffffffffffffffffffffffffffffffffffffffff1614610d7a576040517f08c379a00000000000000000000000000000000000000000000000000000000081526004018080602001828103825260208152602001807f4f776e61626c653a2063616c6c6572206973206e6f7420746865206f776e657281525060200191505060405180910390fd5b600073ffffffffffffffffffffffffffffffffffffffff1660008054906101000a900473ffffffffffffffffffffffffffffffffffffffff1673ffffffffffffffffffffffffffffffffffffffff167f8be0079c531659141344cd1fd0a4f28419497f9722a3daafe3b4186f6b6457e060405160405180910390a360008060006101000a81548173ffffffffffffffffffffffffffffffffffffffff021916908373ffffffffffffffffffffffffffffffffffffffff160217905550565b600080610e4f83610e4a85606461194e565b6119d7565b90506000610ed7610ed2610e676006546006546118c8565b610ecd610ec8610e88610e7a6003611ca1565b610e83896109e2565b611a83565b610ec3610eb3610eac610e9c6003546109e2565b610ea76006546109e2565b611cc4565b6002611d47565b610ebe6003546109e2565b611a83565b611dfd565b610c79565b6118c8565b610763565b9050600354810392505050919050565b60045481565b6000806003541415610f0157479050610fd4565b6000610fb3600654600160009054906101000a900473ffffffffffffffffffffffffffffffffffffffff1673ffffffffffffffffffffffffffffffffffffffff166318160ddd6040518163ffffffff1660e01b8152600401602060405180830381600087803b158015610f7357600080fd5b505af1158015610f87573d6000803e3d6000fd5b505050506040513d6020811015610f9d57600080fd5b81019080805190602001909291905050506119d7565b90506000610fc360035483611225565b9050610fcf47826119d7565b925050505b90565b60008060009054906101000a900473ffffffffffffffffffffffffffffffffffffffff16905090565b6000600454905090565b60003411611080576040517f08c379a00000000000000000000000000000000000000000000000000000000081526004018080602001828103825260068152602001807f4e6f20455448000000000000000000000000000000000000000000000000000081525060200191505060405180910390fd5b600061108b34610e38565b905061109960035482611aee565b6003819055506110aa600354611676565b6004819055503373ffffffffffffffffffffffffffffffffffffffff167f2ea59289e5a853cd8bc417153e38927f3abfb843d2b033fa0f9b1e2843b01f4282346004546003546040518085815260200184815260200183815260200182815260200180602001828103825260038152602001807f62757900000000000000000000000000000000000000000000000000000000008152506020019550505050505060405180910390a2600160009054906101000a900473ffffffffffffffffffffffffffffffffffffffff1673ffffffffffffffffffffffffffffffffffffffff1663a9059cbb33836040518363ffffffff1660e01b8152600401808373ffffffffffffffffffffffffffffffffffffffff16815260200182815260200192505050602060405180830381600087803b1580156111e657600080fd5b505af11580156111fa573d6000803e3d6000fd5b505050506040513d602081101561121057600080fd5b81019080805190602001909291905050505050565b600081831161127f576040517f08c379a00000000000000000000000000000000000000000000000000000000081526004018080602001828103825260298152602001806125136029913960400191505060405180910390fd5b6113006112fb6112a26112936006546109e2565b61129d6003611ca1565b611cc4565b6112f66112cb6112c46112b4896109e2565b6112bf6006546109e2565b611cc4565b6003611d47565b6112f16112ea6112da896109e2565b6112e56006546109e2565b611cc4565b6003611d47565b611e64565b611a83565b610c79565b905092915050565b6000600354905090565b80600160009054906101000a900473ffffffffffffffffffffffffffffffffffffffff1673ffffffffffffffffffffffffffffffffffffffff1663dd62ed3e33306040518363ffffffff1660e01b8152600401808373ffffffffffffffffffffffffffffffffffffffff1681526020018273ffffffffffffffffffffffffffffffffffffffff16815260200192505050602060405180830381600087803b1580156113bc57600080fd5b505af11580156113d0573d6000803e3d6000fd5b505050506040513d60208110156113e657600080fd5b8101908080519060200190929190505050101561146b576040517f08c379a000000000000000000000000000000000000000000000000000000000815260040180806020018281038252601f8152602001807f73656e64657220686173206e6f7420656e6f75676820616c6c6f77616e63650081525060200191505060405180910390fd5b600061147682610932565b9050600160009054906101000a900473ffffffffffffffffffffffffffffffffffffffff1673ffffffffffffffffffffffffffffffffffffffff166323b872dd3330856040518463ffffffff1660e01b8152600401808473ffffffffffffffffffffffffffffffffffffffff1681526020018373ffffffffffffffffffffffffffffffffffffffff1681526020018281526020019350505050602060405180830381600087803b15801561152957600080fd5b505af115801561153d573d6000803e3d6000fd5b505050506040513d602081101561155357600080fd5b810190808051906020019092919050505050611571600354836119d7565b600381905550611582600354611676565b6004819055503373ffffffffffffffffffffffffffffffffffffffff167f2ea59289e5a853cd8bc417153e38927f3abfb843d2b033fa0f9b1e2843b01f4283836004546003546040518085815260200184815260200183815260200182815260200180602001828103825260048152602001807f73656c6c000000000000000000000000000000000000000000000000000000008152506020019550505050505060405180910390a23373ffffffffffffffffffffffffffffffffffffffff166108fc829081150290604051600060405180830381858888f19350505050158015611671573d6000803e3d6000fd5b505050565b60006116a66116a161169a61168a856109e2565b6116956006546109e2565b611cc4565b6002611d47565b610c79565b9050919050565b60008082600f0b12156116bf57600080fd5b6116cf604083600f0b901b610763565b9050919050565b6116de611bde565b73ffffffffffffffffffffffffffffffffffffffff166116fc610fd7565b73ffffffffffffffffffffffffffffffffffffffff1614611785576040517f08c379a00000000000000000000000000000000000000000000000000000000081526004018080602001828103825260208152602001807f4f776e61626c653a2063616c6c6572206973206e6f7420746865206f776e657281525060200191505060405180910390fd5b600073ffffffffffffffffffffffffffffffffffffffff168173ffffffffffffffffffffffffffffffffffffffff16141561180b576040517f08c379a00000000000000000000000000000000000000000000000000000000081526004018080602001828103825260268152602001806124cc6026913960400191505060405180910390fd5b8073ffffffffffffffffffffffffffffffffffffffff1660008054906101000a900473ffffffffffffffffffffffffffffffffffffffff1673ffffffffffffffffffffffffffffffffffffffff167f8be0079c531659141344cd1fd0a4f28419497f9722a3daafe3b4186f6b6457e060405160405180910390a3806000806101000a81548173ffffffffffffffffffffffffffffffffffffffff021916908373ffffffffffffffffffffffffffffffffffffffff16021790555050565b6000808314156118db5760009050611948565b60008284029050828482816118ec57fe5b0414611943576040517f08c379a00000000000000000000000000000000000000000000000000000000081526004018080602001828103825260218152602001806124f26021913960400191505060405180910390fd5b809150505b92915050565b60008082116119c5576040517f08c379a000000000000000000000000000000000000000000000000000000000815260040180806020018281038252601a8152602001807f536166654d6174683a206469766973696f6e206279207a65726f00000000000081525060200191505060405180910390fd5b8183816119ce57fe5b04905092915050565b600082821115611a4f576040517f08c379a000000000000000000000000000000000000000000000000000000000815260040180806020018281038252601e8152602001807f536166654d6174683a207375627472616374696f6e206f766572666c6f77000081525060200191505060405180910390fd5b818303905092915050565b60008082600f0b1215611a6c57600080fd5b611a7c604083600f0b901b611ecb565b9050919050565b600080604083600f0b85600f0b02901d90507fffffffffffffffffffffffffffffffff80000000000000000000000000000000600f0b8112158015611adb57506f7fffffffffffffffffffffffffffffff600f0b8113155b611ae457600080fd5b8091505092915050565b600080828401905083811015611b6c576040517f08c379a000000000000000000000000000000000000000000000000000000000815260040180806020018281038252601b8152602001807f536166654d6174683a206164646974696f6e206f766572666c6f77000000000081525060200191505060405180910390fd5b8091505092915050565b600080821415611b8557600080fd5b6000611b918484612048565b90506f7fffffffffffffffffffffffffffffff6fffffffffffffffffffffffffffffffff16816fffffffffffffffffffffffffffffffff161115611bd457600080fd5b8091505092915050565b600033905090565b600080821415611bf95760009050611c9b565b600083600f0b1215611c0a57600080fd5b600060406fffffffffffffffffffffffffffffffff841685600f0b02901c90506000608084901c85600f0b02905077ffffffffffffffffffffffffffffffffffffffffffffffff811115611c5d57600080fd5b604081901b9050817fffffffffffffffffffffffffffffffffffffffffffffffffffffffffffffffff03811115611c9357600080fd5b818101925050505b92915050565b6000677fffffffffffffff821115611cb857600080fd5b604082901b9050919050565b60008082600f0b1415611cd657600080fd5b600082600f0b604085600f0b901b81611ceb57fe5b0590507fffffffffffffffffffffffffffffffff80000000000000000000000000000000600f0b8112158015611d3457506f7fffffffffffffffffffffffffffffff600f0b8113155b611d3d57600080fd5b8091505092915050565b60008060008085600f0b12611d6e57611d67603f86600f0b901b85612209565b9150611d9d565b611d91603f866000036fffffffffffffffffffffffffffffffff16901b85612209565b91506000600185161190505b603f82901c91508015611dd4576f80000000000000000000000000000000821115611dc757600080fd5b8160000392505050611df7565b6f7fffffffffffffffffffffffffffffff821115611df157600080fd5b81925050505b92915050565b60008082600f0b84600f0b0190507fffffffffffffffffffffffffffffffff80000000000000000000000000000000600f0b8112158015611e5157506f7fffffffffffffffffffffffffffffff600f0b8113155b611e5a57600080fd5b8091505092915050565b60008082600f0b84600f0b0390507fffffffffffffffffffffffffffffffff80000000000000000000000000000000600f0b8112158015611eb857506f7fffffffffffffffffffffffffffffff600f0b8113155b611ec157600080fd5b8091505092915050565b600080821415611ede5760009050612043565b60008290506000600190507001000000000000000000000000000000008210611f1057608082901c9150604081901b90505b680100000000000000008210611f2f57604082901c9150602081901b90505b6401000000008210611f4a57602082901c9150601081901b90505b620100008210611f6357601082901c9150600881901b90505b6101008210611f7b57600882901c9150600481901b90505b60108210611f9257600482901c9150600281901b90505b60088210611fa257600181901b90505b6001818581611fad57fe5b048201901c90506001818581611fbf57fe5b048201901c90506001818581611fd157fe5b048201901c90506001818581611fe357fe5b048201901c90506001818581611ff557fe5b048201901c9050600181858161200757fe5b048201901c9050600181858161201957fe5b048201901c9050600081858161202b57fe5b04905080821061203b578061203d565b815b93505050505b919050565b60008082141561205757600080fd5b600077ffffffffffffffffffffffffffffffffffffffffffffffff841161208d5782604085901b8161208557fe5b0490506121e2565b600060c09050600060c086901c905064010000000081106120b657602081901c90506020820191505b6201000081106120ce57601081901c90506010820191505b61010081106120e557600881901c90506008820191505b601081106120fb57600481901c90506004820191505b6004811061211157600281901c90506002820191505b60028110612120576001820191505b600160bf830360018703901c018260ff0387901b8161213b57fe5b0492506fffffffffffffffffffffffffffffffff83111561215b57600080fd5b6000608086901c8402905060006fffffffffffffffffffffffffffffffff871685029050600060c089901c9050600060408a901b9050828110156121a0576001820391505b8281039050608084901b9250828110156121bb576001820391505b8281039050608084901c82146121cd57fe5b8881816121d657fe5b04870196505050505050505b6fffffffffffffffffffffffffffffffff8111156121ff57600080fd5b8091505092915050565b60008082141561222b576f8000000000000000000000000000000090506124c5565b600083141561223d57600090506124c5565b600080849050700100000000000000000000000000000000811061226957608081901c90506080820191505b68010000000000000000811061228757604081901c90506040820191505b64010000000081106122a157602081901c90506020820191505b6201000081106122b957601081901c90506010820191505b61010081106122d057600881901c90506008820191505b601081106122e657600481901c90506004820191505b600481106122fc57600281901c90506002820191505b6002811061230b576001820191505b6000607f830390506000811315612327578086901c9550612331565b8060000386901b95505b60006f80000000000000000000000000000000905060005b60008711156124945760006001881611156123f757878202915060018703965082810190507f800000000000000000000000000000000000000000000000000000000000000082106123a757608082901c91506001810190506123af565b607f82901c91505b7fffffffffffffffffffffffffffffffffffffffffffffffffffffffffffffff818112156123e5576000955050505050506124c5565b608081126123f257600080fd5b61248f565b8788029750600187901c9650600183901b92507f8000000000000000000000000000000000000000000000000000000000000000881061244357608088901c975060018301925061244b565b607f88901c97505b7fffffffffffffffffffffffffffffffffffffffffffffffffffffffffffffff81831215612481576000955050505050506124c5565b6080831261248e57600080fd5b5b612349565b60008113156124a8578082901b91506124bc565b60008112156124bb578060000382901c91505b5b81955050505050505b9291505056fe4f776e61626c653a206e6577206f776e657220697320746865207a65726f2061646472657373536166654d6174683a206d756c7469706c69636174696f6e206f766572666c6f77537570706c7920546f70206973206e6f742067726561746572207468616e20537570706c7920426f74a264697066735822122089b19b781c4a778b75731f083a8e650873db1769d500efc2783d09222bf023e364736f6c63430007060033536166654d6174683a206d756c7469706c69636174696f6e206f766572666c6f77",
  "immutableReferences": {},
  "source": "// SPDX-License-Identifier: MIT\npragma solidity 0.7.6;\n\nimport \"@openzeppelin/contracts/token/ERC20/ERC20Burnable.sol\";\nimport \"@openzeppelin/contracts/math/SafeMath.sol\";\nimport \"@openzeppelin/contracts/access/Ownable.sol\";\nimport \"abdk-libraries-solidity/ABDKMath64x64.sol\";\n\ninterface ERC20Token {\n  function allowance(address, address) external returns (uint256);\n  function balanceOf(address) external returns (uint256);\n  function totalSupply() external returns (uint256);\n  function transferFrom(address, address, uint256) external returns (bool);\n  function transfer(address, uint256) external returns (bool);\n}\n\ncontract BondingNOM is Ownable {\n    ERC20Token nc; // NOM contract (nc)\n\n    // Address of the nc (NOM ERC20 Contract)\n    address public NOMTokenContract;\n    uint256 public supplyNOM = 0;\n    uint256 public priceBondCurve = 0;\n    uint128 private constant MAX_64x64 = 0x7FFFFFFFFFFFFFFFFFFFFFFFFFFFFFFF;\n    uint8 public decimals = 18;\n    // Bonding Curve parameter\n    uint256 public a = SafeMath.mul(100000000, 10**decimals);\n\n    event Transaction(address indexed _by, uint256 amountNOM, uint256 amountETH, uint256 price, uint256 supply, string buyOrSell);\n   \n\n    constructor (address NOMContAddr) {\n        // Add in the NOM ERC20 contract address\n        NOMTokenContract = NOMContAddr;\n        nc = ERC20Token(NOMContAddr);\n    }\n\n    function getNOMAddr() public view returns (address) {\n        return NOMTokenContract;\n    }\n\n    function getSupplyNOM() public view returns (uint256) {\n        return supplyNOM;\n    }\n\n    function getBondPrice() public view returns (uint256) {\n        return priceBondCurve;\n    }\n\n    // Conversion from token at 18 decimals to 64x64\n    function tokToF64(uint256 token) public view returns(int128) {\n        return ABDKMath64x64.divu(token, 10**uint256(decimals));\n    }\n\n    // Convert Fixed Point 64 to Token UInt256\n    function f64ToTok(int128 fixed64) public view returns(uint256) {\n        return ABDKMath64x64.mulu(fixed64, 10**uint256(decimals));\n    }\n\n    // ETH/NOM = (#NOM Sold/(a))^2\n    function priceAtSupply(uint256 _supplyNOM) public view returns(uint256) {\n        return  f64ToTok(\n            ABDKMath64x64.pow(\n                ABDKMath64x64.div(\n                    tokToF64(_supplyNOM), \n                    tokToF64(a)\n                ),\n                uint256(2)\n            )\n        );  \n    }\n\n    // #NOM Sold = sqrt(ETH/NOM) * a\n    // Input 64.64 fixed point number\n    function supplyAtPrice(uint256 price) public view returns (uint256) {\n        return f64ToTok(  \n            ABDKMath64x64.mul(\n                ABDKMath64x64.sqrt(\n                    tokToF64(price)\n                ),\n                tokToF64(a)\n            )\n        );\n    }\n\n    // NOM supply range to ETH\n    // Integrate over curve to get amount of ETH needed to buy amount of NOM\n    // ETH = a/3((supplyNOM_Top/a)^3 - (supplyNOM_Bot/a)^3)\n    function NOMSupToETH(uint256 supplyTop, uint256 supplyBot) public view returns(uint256) {\n        require(supplyTop > supplyBot, \"Supply Top is not greater than Supply Bot\");\n        return f64ToTok(\n            ABDKMath64x64.mul(\n                // a/3\n                ABDKMath64x64.div(\n                    tokToF64(a), \n                    ABDKMath64x64.fromUInt(uint256(3))\n                ),\n                // ((NomSold_Top/a)^3 - (supplyNOM_Bot/a)^3)\n                ABDKMath64x64.sub(\n                    // (NomSold_Top/a)^3\n                    ABDKMath64x64.pow(\n                        ABDKMath64x64.div(\n                            tokToF64(supplyTop), \n                            tokToF64(a)\n                        ), \n                        uint256(3)\n                    ),\n                    // (NomSold_Bot/a)^3\n                    ABDKMath64x64.pow(\n                        ABDKMath64x64.div(\n                            tokToF64(supplyBot), \n                            tokToF64(a)\n                        ), \n                        uint256(3)\n                    )\n                )\n            )\n        );\n    }\n                \n    \n    // Returns quote for a particular amount of NOM (Dec 18) in ETH (Dec 18)\n    // 1. Determine supply range based on spread and current curve price based on supplyNOM\n    // 2. Integrate over curve to get amount of ETH needed to buy amount of NOM\n    // ETH = a/3((supplyNOM_Top/a)^3 - (supplyNOM_Bot/a)^3)\n    // Parameters:\n    // Input\n    // uint256 buyAmount: amount of NOM to be purchased in 18 decimal\n    // Output\n    // uint256: amount of ETH needed in Wei or ETH 18 decimal\n    function buyQuoteNOM(uint256 amountNOM) public view returns(uint256) {\n        uint256 supplyTop = SafeMath.add(supplyNOM, amountNOM);\n        uint256 amountETH = NOMSupToETH(supplyTop, supplyNOM);\n        return SafeMath.sub(amountETH, SafeMath.div(amountETH, uint256(100)));\n    }\n\n    /**\n    * Calculate cubrt (x) rounding down.  Revert if x < 0.\n    *\n    * @param x signed 64.64-bit fixed point number\n    * @return signed 64.64-bit fixed point number\n    */\n    function cubrt (int128 x) public pure returns (int128) {\n        require (x >= 0);\n        return int128 (cubrtu (uint256 (x) << 64));\n    }\n\n    /**\n    * Calculate cube root cubrtu (x) rounding down, where x is unsigned 256-bit integer\n    * number.\n    *\n    * @param x unsigned 256-bit integer number\n    * @return unsigned 256-bit integer number\n    */\n    function cubrtu (uint256 x) public pure returns (uint256) {\n        if (x == 0) return 0;\n        else {\n        uint256 xx = x;\n        uint256 r = 1;\n        \n        if (xx >= 0x1000000000000000000000000000000000000) { xx >>= 144; r <<= 48; }\n        if (xx >= 0x1000000000000000000) { xx >>= 72; r <<= 24; }\n        if (xx >= 0x1000000000) { xx >>= 36; r <<= 12; }\n        if (xx >= 0x40000) { xx >>= 18; r <<= 6; }\n        if (xx >= 0x1000) { xx >>= 12; r <<= 4; }\n        if (xx >= 0x200) { xx >>= 9; r <<= 3; }\n        if (xx >= 0x40) { xx >>= 6; r <<= 2; }\n        if (xx >= 0x8) { r <<= 1; }\n        r = (x/(r**2) + 2*r)/3;\n        r = (x/(r**2) + 2*r)/3;\n        r = (x/(r**2) + 2*r)/3;\n        r = (x/(r**2) + 2*r)/3;\n        r = (x/(r**2) + 2*r)/3;\n        r = (x/(r**2) + 2*r)/3;\n        r = (x/(r**2) + 2*r)/3; // Seven iterations should be enough\n        return r;\n        }\n    }\n\n    // Returns Buy Quote for the purchase of NOM based on amount of ETH (Dec 18)\n    // 1. Determine supply bottom\n    // 2. Integrate over curve, and solve for supply top\n    // supplyNOM_Top = a*(3*ETH/a + (supplyNOM_Bot/a)^3)^(1/3)\n    // 3. Subtract supply bottom from top to get #NOM for ETH\n    // Parameters:\n    // Input\n    // uint256 amountETH: amount of ETH in 18 decimal\n    // Output\n    // uint256: amount of NOM in 18 decimal\n    function buyQuoteETH(uint256 amountETH) public view returns(uint256) {\n        uint256 amountNet = SafeMath.sub(amountETH, SafeMath.div(amountETH, uint256(100)));\n        \n        \n        uint256 supplyTop = // supplyNOM_Top = (a^2*(3*ETH + (supplyNOM_Bot/a)^2*supplyNOM_Bot))^(1/3)\n            cubrtu(\n                SafeMath.mul(\n                    // a^2               \n                    SafeMath.mul(a, a),    \n                    // (3*ETH + (supplyNOM_Bot/a)^2*supplyNOM_Bot)\n                    f64ToTok(\n                        ABDKMath64x64.add(    \n                            ABDKMath64x64.mul(\n                                ABDKMath64x64.fromUInt(uint256(3)),\n                                tokToF64(amountNet)\n                            ),\n                            ABDKMath64x64.mul(\n                                ABDKMath64x64.pow(\n                                    ABDKMath64x64.div(\n                                        tokToF64(supplyNOM),\n                                        tokToF64(a)\n                                    ),\n                                    uint256(2)\n                                ),\n                                tokToF64(supplyNOM)\n                            )\n                        )\n                    )\n                )\n                \n            );\n        \n        \n        return supplyTop - supplyNOM;\n    }\n\n    function buyNOM() public payable {\n        require(msg.value > 0, \"No ETH\");\n        uint256 amountNOM = buyQuoteETH(msg.value);\n\n        // Update total supply released by Bonding Curve\n        supplyNOM = SafeMath.add(supplyNOM, amountNOM);\n\n        // Update current bond curve price\n        priceBondCurve = priceAtSupply(supplyNOM);\n\n        emit Transaction(msg.sender, amountNOM, msg.value, priceBondCurve, supplyNOM, \"buy\");\n\n        nc.transfer(msg.sender, amountNOM);\n    }\n\n    // Returns Sell Quote: NOM for ETH (Dec 18)\n    // 1. Determine supply top: priceBondCurve - 1% = Top Sale Price\n    // 2. Integrate over curve to find ETH\n    // ETH = a/3((supplyNOM_Top/a)^3 - (supplyNOM_Bot/a)^3)\n    // 3. Subtract supply bottom from top to get #NOM for ETH\n    // Parameters:\n    // Input\n    // uint256 amountNOM: amount of NOM to be sold (18 decimal)\n    // Output\n    // uint256: amount of ETH paid in Wei or ETH (18 decimal)\n    function sellQuoteNOM(uint256 amountNOM) public view returns(uint256) {\n        uint256 supplyBot = supplyNOM - amountNOM;\n        uint256 amountETH = NOMSupToETH(supplyNOM, supplyBot);\n        return SafeMath.sub(amountETH, SafeMath.div(amountETH, uint256(100)));\n    }\n\n    function sellNOM(uint256 amountNOM) public {\n        require(nc.allowance(msg.sender, address(this)) >= amountNOM, \"sender has not enough allowance\");\n\n        uint256 amountETH = sellQuoteNOM(amountNOM);\n\n        // Transfer NOM to contract\n        nc.transferFrom(msg.sender, address(this), amountNOM);\n        \n        // Update persistent contract state variables\n        // Update total supply released by Bonding Curve\n        supplyNOM = SafeMath.sub(supplyNOM, amountNOM);\n        // Update current bond curve price\n        priceBondCurve = priceAtSupply(supplyNOM);\n        \n        emit Transaction(msg.sender, amountNOM, amountETH, priceBondCurve, supplyNOM, \"sell\");\n\n        // Transfer ETH to Sender\n        payable(msg.sender).transfer(amountETH);\n    }\n\n    function teamBalance() public returns(uint256) {\n        if (supplyNOM == 0) {\n            return address(this).balance;\n        }\n        // Determine available ETH for payment\n        // 1. Calculate amount ETH to cover all current NOM outstanding\n        //    based on bonding curve integration.\n        uint256 burnedNOM = SafeMath.sub(a, nc.totalSupply());\n        uint256 lockedETH = NOMSupToETH(supplyNOM, burnedNOM);\n        // 2. Subtraction lockedETH from Contract Balance to get amount \n        //    available for withdrawal.\n        return SafeMath.sub(address(this).balance, lockedETH);\n    }\n\n    function withdraw() public onlyOwner returns(bool success) {\n        if (supplyNOM == 0) {\n            payable(msg.sender).transfer(address(this).balance);\n            return true;\n        }\n        // Determine available ETH for payment\n        // 1. Calculate amount ETH to cover all current NOM outstanding\n        //    based on bonding curve integration.\n        uint256 burnedNOM = SafeMath.sub(a, nc.totalSupply());\n        uint256 lockedETH = NOMSupToETH(supplyNOM, burnedNOM);\n        // 2. Subtraction lockedETH from Contract Balance to get amount \n        //    available for withdrawal.\n        uint256 paymentETH = SafeMath.sub(address(this).balance, lockedETH);\n        // Transfer ETH to Owner\n        payable(msg.sender).transfer(paymentETH);\n        return true;\n    }\n\n}\n\n\n",
  "sourcePath": "/home/djedi/Projects/github/solonomy/contracts/BondingNOM.sol",
  "compiler": {
    "name": "solc",
    "version": "0.7.6+commit.7338295f.Emscripten.clang"
  },
  "schemaVersion": "3.3.4",
  "updatedAt": "2021-03-12T03:28:07.372Z",
  "devdoc": {
    "kind": "dev",
    "methods": {
      "cubrt(int128)": {
        "params": {
          "x": "signed 64.64-bit fixed point number"
        },
        "returns": {
          "_0": "signed 64.64-bit fixed point number"
        }
      },
      "cubrtu(uint256)": {
        "params": {
          "x": "unsigned 256-bit integer number"
        },
        "returns": {
          "_0": "unsigned 256-bit integer number"
        }
      },
      "owner()": {
        "details": "Returns the address of the current owner."
      },
      "renounceOwnership()": {
        "details": "Leaves the contract without owner. It will not be possible to call `onlyOwner` functions anymore. Can only be called by the current owner. NOTE: Renouncing ownership will leave the contract without an owner, thereby removing any functionality that is only available to the owner."
      },
      "transferOwnership(address)": {
        "details": "Transfers ownership of the contract to a new account (`newOwner`). Can only be called by the current owner."
      }
    },
    "version": 1
  },
  "userdoc": {
    "kind": "user",
    "methods": {
      "cubrt(int128)": {
        "notice": "Calculate cubrt (x) rounding down.  Revert if x < 0."
      },
      "cubrtu(uint256)": {
        "notice": "Calculate cube root cubrtu (x) rounding down, where x is unsigned 256-bit integer number."
      }
    },
    "version": 1
  }
}