{
  "_format": "hh-sol-artifact-1",
  "contractName": "BondingNOM",
  "sourceName": "contracts/BondingNOM.sol",
  "abi": [
    {
      "inputs": [
        {
          "internalType": "address",
          "name": "NOMContAddr",
          "type": "address"
        }
      ],
      "stateMutability": "nonpayable",
      "type": "constructor"
    },
    {
      "anonymous": false,
      "inputs": [
        {
          "indexed": true,
          "internalType": "address",
          "name": "previousOwner",
          "type": "address"
        },
        {
          "indexed": true,
          "internalType": "address",
          "name": "newOwner",
          "type": "address"
        }
      ],
      "name": "OwnershipTransferred",
      "type": "event"
    },
    {
      "anonymous": false,
      "inputs": [
        {
          "indexed": true,
          "internalType": "address",
          "name": "_by",
          "type": "address"
        },
        {
          "indexed": false,
          "internalType": "uint256",
          "name": "amountNOM",
          "type": "uint256"
        },
        {
          "indexed": false,
          "internalType": "uint256",
          "name": "amountETH",
          "type": "uint256"
        },
        {
          "indexed": false,
          "internalType": "uint256",
          "name": "price",
          "type": "uint256"
        },
        {
          "indexed": false,
          "internalType": "uint256",
          "name": "supply",
          "type": "uint256"
        },
        {
          "indexed": false,
          "internalType": "string",
          "name": "buyOrSell",
          "type": "string"
        },
        {
          "indexed": false,
          "internalType": "int256",
          "name": "slippage",
          "type": "int256"
        }
      ],
      "name": "Transaction",
      "type": "event"
    },
    {
      "inputs": [
        {
          "internalType": "uint256",
          "name": "supplyTop",
          "type": "uint256"
        },
        {
          "internalType": "uint256",
          "name": "supplyBot",
          "type": "uint256"
        }
      ],
      "name": "NOMSupToETH",
      "outputs": [
        {
          "internalType": "uint256",
          "name": "",
          "type": "uint256"
        }
      ],
      "stateMutability": "view",
      "type": "function"
    },
    {
      "inputs": [],
      "name": "NOMTokenContract",
      "outputs": [
        {
          "internalType": "address",
          "name": "",
          "type": "address"
        }
      ],
      "stateMutability": "view",
      "type": "function"
    },
    {
      "inputs": [],
      "name": "a",
      "outputs": [
        {
          "internalType": "uint256",
          "name": "",
          "type": "uint256"
        }
      ],
      "stateMutability": "view",
      "type": "function"
    },
    {
      "inputs": [
        {
          "internalType": "uint256",
          "name": "estAmountNOM",
          "type": "uint256"
        },
        {
          "internalType": "uint256",
          "name": "allowSlip",
          "type": "uint256"
        }
      ],
      "name": "buyNOM",
      "outputs": [],
      "stateMutability": "payable",
      "type": "function"
    },
    {
      "inputs": [
        {
          "internalType": "uint256",
          "name": "amountETH",
          "type": "uint256"
        }
      ],
      "name": "buyQuoteETH",
      "outputs": [
        {
          "internalType": "uint256",
          "name": "",
          "type": "uint256"
        }
      ],
      "stateMutability": "view",
      "type": "function"
    },
    {
      "inputs": [
        {
          "internalType": "uint256",
          "name": "amountNOM",
          "type": "uint256"
        }
      ],
      "name": "buyQuoteNOM",
      "outputs": [
        {
          "internalType": "uint256",
          "name": "",
          "type": "uint256"
        }
      ],
      "stateMutability": "view",
      "type": "function"
    },
    {
      "inputs": [
        {
          "internalType": "uint256",
          "name": "x",
          "type": "uint256"
        }
      ],
      "name": "cubrtu",
      "outputs": [
        {
          "internalType": "uint256",
          "name": "",
          "type": "uint256"
        }
      ],
      "stateMutability": "pure",
      "type": "function"
    },
    {
      "inputs": [],
      "name": "decimals",
      "outputs": [
        {
          "internalType": "uint8",
          "name": "",
          "type": "uint8"
        }
      ],
      "stateMutability": "view",
      "type": "function"
    },
    {
      "inputs": [
        {
          "internalType": "int128",
          "name": "fixed64",
          "type": "int128"
        }
      ],
      "name": "f64ToTok",
      "outputs": [
        {
          "internalType": "uint256",
          "name": "",
          "type": "uint256"
        }
      ],
      "stateMutability": "view",
      "type": "function"
    },
    {
      "inputs": [],
      "name": "getBondPrice",
      "outputs": [
        {
          "internalType": "uint256",
          "name": "",
          "type": "uint256"
        }
      ],
      "stateMutability": "view",
      "type": "function"
    },
    {
      "inputs": [],
      "name": "getNOMAddr",
      "outputs": [
        {
          "internalType": "address",
          "name": "",
          "type": "address"
        }
      ],
      "stateMutability": "view",
      "type": "function"
    },
    {
      "inputs": [],
      "name": "getSupplyNOM",
      "outputs": [
        {
          "internalType": "uint256",
          "name": "",
          "type": "uint256"
        }
      ],
      "stateMutability": "view",
      "type": "function"
    },
    {
      "inputs": [],
      "name": "owner",
      "outputs": [
        {
          "internalType": "address",
          "name": "",
          "type": "address"
        }
      ],
      "stateMutability": "view",
      "type": "function"
    },
    {
      "inputs": [
        {
          "internalType": "uint256",
          "name": "_supplyNOM",
          "type": "uint256"
        }
      ],
      "name": "priceAtSupply",
      "outputs": [
        {
          "internalType": "uint256",
          "name": "",
          "type": "uint256"
        }
      ],
      "stateMutability": "view",
      "type": "function"
    },
    {
      "inputs": [],
      "name": "priceBondCurve",
      "outputs": [
        {
          "internalType": "uint256",
          "name": "",
          "type": "uint256"
        }
      ],
      "stateMutability": "view",
      "type": "function"
    },
    {
      "inputs": [],
      "name": "renounceOwnership",
      "outputs": [],
      "stateMutability": "nonpayable",
      "type": "function"
    },
    {
      "inputs": [
        {
          "internalType": "uint256",
          "name": "amountNOM",
          "type": "uint256"
        },
        {
          "internalType": "uint256",
          "name": "estAmountETH",
          "type": "uint256"
        },
        {
          "internalType": "uint256",
          "name": "allowSlip",
          "type": "uint256"
        }
      ],
      "name": "sellNOM",
      "outputs": [],
      "stateMutability": "payable",
      "type": "function"
    },
    {
      "inputs": [
        {
          "internalType": "uint256",
          "name": "amountNOM",
          "type": "uint256"
        }
      ],
      "name": "sellQuoteNOM",
      "outputs": [
        {
          "internalType": "uint256",
          "name": "",
          "type": "uint256"
        }
      ],
      "stateMutability": "view",
      "type": "function"
    },
    {
      "inputs": [
        {
          "internalType": "uint256",
          "name": "price",
          "type": "uint256"
        }
      ],
      "name": "supplyAtPrice",
      "outputs": [
        {
          "internalType": "uint256",
          "name": "",
          "type": "uint256"
        }
      ],
      "stateMutability": "view",
      "type": "function"
    },
    {
      "inputs": [],
      "name": "supplyNOM",
      "outputs": [
        {
          "internalType": "uint256",
          "name": "",
          "type": "uint256"
        }
      ],
      "stateMutability": "view",
      "type": "function"
    },
    {
      "inputs": [],
      "name": "teamBalance",
      "outputs": [
        {
          "internalType": "uint256",
          "name": "",
          "type": "uint256"
        }
      ],
      "stateMutability": "view",
      "type": "function"
    },
    {
      "inputs": [
        {
          "internalType": "uint256",
          "name": "token",
          "type": "uint256"
        }
      ],
      "name": "tokToF64",
      "outputs": [
        {
          "internalType": "int128",
          "name": "",
          "type": "int128"
        }
      ],
      "stateMutability": "view",
      "type": "function"
    },
    {
      "inputs": [
        {
          "internalType": "address",
          "name": "newOwner",
          "type": "address"
        }
      ],
      "name": "transferOwnership",
      "outputs": [],
      "stateMutability": "nonpayable",
      "type": "function"
    },
    {
      "inputs": [],
      "name": "withdraw",
      "outputs": [
        {
          "internalType": "bool",
          "name": "success",
          "type": "bool"
        }
      ],
      "stateMutability": "nonpayable",
      "type": "function"
    }
  ],
  "bytecode": "0x6080604052600060035560006004556012600560006101000a81548160ff021916908360ff1602179055506200005a6305f5e100600560009054906101000a900460ff1660ff16600a0a620001da60201b62001aa51760201c565b6006553480156200006a57600080fd5b506040516200298938038062002989833981810160405260208110156200009057600080fd5b81019080805190602001909291905050506000620000b36200026560201b60201c565b9050806000806101000a81548173ffffffffffffffffffffffffffffffffffffffff021916908373ffffffffffffffffffffffffffffffffffffffff1602179055508073ffffffffffffffffffffffffffffffffffffffff16600073ffffffffffffffffffffffffffffffffffffffff167f8be0079c531659141344cd1fd0a4f28419497f9722a3daafe3b4186f6b6457e060405160405180910390a35080600260006101000a81548173ffffffffffffffffffffffffffffffffffffffff021916908373ffffffffffffffffffffffffffffffffffffffff16021790555080600160006101000a81548173ffffffffffffffffffffffffffffffffffffffff021916908373ffffffffffffffffffffffffffffffffffffffff160217905550506200026d565b600080831415620001ef57600090506200025f565b60008284029050828482816200020157fe5b04146200025a576040517f08c379a0000000000000000000000000000000000000000000000000000000008152600401808060200182810382526021815260200180620029686021913960400191505060405180910390fd5b809150505b92915050565b600033905090565b6126eb806200027d6000396000f3fe60806040526004361061014a5760003560e01c806359eaced0116100b65780638e117f6d1161006f5780638e117f6d14610597578063afea5852146105c2578063bc0f023c1461061b578063daff394a14610646578063eb208d6f14610695578063f2fde38b146106d75761014a565b806359eaced014610459578063715018a61461049a5780637abe7448146104b15780637eda93471461050057806389e852171461052b5780638da5cb5b146105565761014a565b806329b57f881161010857806329b57f88146102ee578063313ce567146103405780633542a0971461036e5780633c4df4fc146103af5780633ccfd60b146103da5780635700f200146104075761014a565b80627f39c71461014f57806302689ad61461019e578063080d1f82146101ed5780630dbe671f1461022557806325572aa414610250578063289044751461029f575b600080fd5b34801561015b57600080fd5b506101886004803603602081101561017257600080fd5b8101908080359060200190929190505050610728565b6040518082815260200191505060405180910390f35b3480156101aa57600080fd5b506101d7600480360360208110156101c157600080fd5b81019080803590602001909291905050506108f7565b6040518082815260200191505060405180910390f35b6102236004803603604081101561020357600080fd5b810190808035906020019092919080359060200190929190505050610950565b005b34801561023157600080fd5b5061023a610c3c565b6040518082815260200191505060405180910390f35b34801561025c57600080fd5b506102896004803603602081101561027357600080fd5b8101908080359060200190929190505050610c42565b6040518082815260200191505060405180910390f35b3480156102ab57600080fd5b506102d8600480360360208110156102c257600080fd5b8101908080359060200190929190505050610c77565b6040518082815260200191505060405180910390f35b3480156102fa57600080fd5b506103276004803603602081101561031157600080fd5b8101908080359060200190929190505050610cd0565b6040518082600f0b815260200191505060405180910390f35b34801561034c57600080fd5b50610355610cf8565b604051808260ff16815260200191505060405180910390f35b34801561037a57600080fd5b50610383610d0b565b604051808273ffffffffffffffffffffffffffffffffffffffff16815260200191505060405180910390f35b3480156103bb57600080fd5b506103c4610d31565b6040518082815260200191505060405180910390f35b3480156103e657600080fd5b506103ef610d37565b60405180821515815260200191505060405180910390f35b34801561041357600080fd5b506104436004803603602081101561042a57600080fd5b810190808035600f0b9060200190929190505050610f77565b6040518082815260200191505060405180910390f35b34801561046557600080fd5b5061046e610f9f565b604051808273ffffffffffffffffffffffffffffffffffffffff16815260200191505060405180910390f35b3480156104a657600080fd5b506104af610fc9565b005b3480156104bd57600080fd5b506104ea600480360360208110156104d457600080fd5b8101908080359060200190929190505050611136565b6040518082815260200191505060405180910390f35b34801561050c57600080fd5b50610515611213565b6040518082815260200191505060405180910390f35b34801561053757600080fd5b50610540611219565b6040518082815260200191505060405180910390f35b34801561056257600080fd5b5061056b611313565b604051808273ffffffffffffffffffffffffffffffffffffffff16815260200191505060405180910390f35b3480156105a357600080fd5b506105ac61133c565b6040518082815260200191505060405180910390f35b3480156105ce57600080fd5b50610605600480360360408110156105e557600080fd5b810190808035906020019092919080359060200190929190505050611346565b6040518082815260200191505060405180910390f35b34801561062757600080fd5b5061063061143d565b6040518082815260200191505060405180910390f35b34801561065257600080fd5b5061067f6004803603602081101561066957600080fd5b8101908080359060200190929190505050611447565b6040518082815260200191505060405180910390f35b6106d5600480360360608110156106ab57600080fd5b8101908080359060200190929190803590602001909291908035906020019092919050505061147e565b005b3480156106e357600080fd5b50610726600480360360208110156106fa57600080fd5b81019080803573ffffffffffffffffffffffffffffffffffffffff1690602001909291905050506118b3565b005b60008082141561073b57600090506108f2565b60008290506000600190507201000000000000000000000000000000000000821061076f57609082901c9150603081901b90505b6901000000000000000000821061078f57604882901c9150601881901b90505b64100000000082106107aa57602482901c9150600c81901b90505b6204000082106107c357601282901c9150600681901b90505b61100082106107db57600c82901c9150600481901b90505b61020082106107f357600982901c9150600381901b90505b6040821061080a57600682901c9150600281901b90505b6008821061081a57600181901b90505b6003816002026002830a868161082c57fe5b04018161083557fe5b0490506003816002026002830a868161084a57fe5b04018161085357fe5b0490506003816002026002830a868161086857fe5b04018161087157fe5b0490506003816002026002830a868161088657fe5b04018161088f57fe5b0490506003816002026002830a86816108a457fe5b0401816108ad57fe5b0490506003816002026002830a86816108c257fe5b0401816108cb57fe5b0490506003816002026002830a86816108e057fe5b0401816108e957fe5b04905080925050505b919050565b60008061090f83600354611b2b90919063ffffffff16565b9050600061091f60035483611346565b9050610947610938606483611bae90919063ffffffff16565b82611b2b90919063ffffffff16565b92505050919050565b600034116109c6576040517f08c379a00000000000000000000000000000000000000000000000000000000081526004018080602001828103825260068152602001807f4e6f20455448000000000000000000000000000000000000000000000000000081525060200191505060405180910390fd5b60006109d134611136565b905080831115610a8957610a02826109f461271086611bae90919063ffffffff16565b611aa590919063ffffffff16565b610a158285611b2b90919063ffffffff16565b10610a88576040517f08c379a000000000000000000000000000000000000000000000000000000000815260040180806020018281038252601d8152602001807f536c6970706167652067726561746572207468616e20616c6c6f77656400000081525060200191505060405180910390fd5b5b60008184039050610aa582600354611c3790919063ffffffff16565b600381905550610ab6600354611447565b600481905550600160009054906101000a900473ffffffffffffffffffffffffffffffffffffffff1673ffffffffffffffffffffffffffffffffffffffff1663a9059cbb33846040518363ffffffff1660e01b8152600401808373ffffffffffffffffffffffffffffffffffffffff16815260200182815260200192505050602060405180830381600087803b158015610b4f57600080fd5b505af1158015610b63573d6000803e3d6000fd5b505050506040513d6020811015610b7957600080fd5b8101908080519060200190929190505050503373ffffffffffffffffffffffffffffffffffffffff167fa70108fc37a77e4fb183df412c5ec85d9c12294d6f4c1634c5d2a594a44db9aa8334600454600354866040518086815260200185815260200184815260200183815260200180602001838152602001828103825260038152602001807f6275790000000000000000000000000000000000000000000000000000000000815250602001965050505050505060405180910390a250505050565b60065481565b6000610c70610c6b610c5b610c5685610cd0565b611cbf565b610c66600654610cd0565b611ce8565b610f77565b9050919050565b600080610c8f83600354611c3790919063ffffffff16565b90506000610c9f82600354611346565b9050610cc7610cb8606483611bae90919063ffffffff16565b82611b2b90919063ffffffff16565b92505050919050565b6000610cf182600560009054906101000a900460ff1660ff16600a0a611d53565b9050919050565b600560009054906101000a900460ff1681565b600260009054906101000a900473ffffffffffffffffffffffffffffffffffffffff1681565b60035481565b6000610d41611dbb565b73ffffffffffffffffffffffffffffffffffffffff16610d5f611313565b73ffffffffffffffffffffffffffffffffffffffff1614610de8576040517f08c379a00000000000000000000000000000000000000000000000000000000081526004018080602001828103825260208152602001807f4f776e61626c653a2063616c6c6572206973206e6f7420746865206f776e657281525060200191505060405180910390fd5b60006003541415610e43573373ffffffffffffffffffffffffffffffffffffffff166108fc479081150290604051600060405180830381858888f19350505050158015610e39573d6000803e3d6000fd5b5060019050610f74565b6000610efc600160009054906101000a900473ffffffffffffffffffffffffffffffffffffffff1673ffffffffffffffffffffffffffffffffffffffff166318160ddd6040518163ffffffff1660e01b815260040160206040518083038186803b158015610eb057600080fd5b505afa158015610ec4573d6000803e3d6000fd5b505050506040513d6020811015610eda57600080fd5b8101908080519060200190929190505050600654611b2b90919063ffffffff16565b90506000610f0c60035483611346565b90506000610f238247611b2b90919063ffffffff16565b90503373ffffffffffffffffffffffffffffffffffffffff166108fc829081150290604051600060405180830381858888f19350505050158015610f6b573d6000803e3d6000fd5b50600193505050505b90565b6000610f9882600560009054906101000a900460ff1660ff16600a0a611dc3565b9050919050565b6000600260009054906101000a900473ffffffffffffffffffffffffffffffffffffffff16905090565b610fd1611dbb565b73ffffffffffffffffffffffffffffffffffffffff16610fef611313565b73ffffffffffffffffffffffffffffffffffffffff1614611078576040517f08c379a00000000000000000000000000000000000000000000000000000000081526004018080602001828103825260208152602001807f4f776e61626c653a2063616c6c6572206973206e6f7420746865206f776e657281525060200191505060405180910390fd5b600073ffffffffffffffffffffffffffffffffffffffff1660008054906101000a900473ffffffffffffffffffffffffffffffffffffffff1673ffffffffffffffffffffffffffffffffffffffff167f8be0079c531659141344cd1fd0a4f28419497f9722a3daafe3b4186f6b6457e060405160405180910390a360008060006101000a81548173ffffffffffffffffffffffffffffffffffffffff021916908373ffffffffffffffffffffffffffffffffffffffff160217905550565b600080821415611149576000905061120e565b6000611171611162606485611bae90919063ffffffff16565b84611b2b90919063ffffffff16565b905060006112026111fd611192600654600654611aa590919063ffffffff16565b6111f86111f36111b36111a56003611e7e565b6111ae89610cd0565b611ce8565b6111ee6111de6111d76111c7600354610cd0565b6111d2600654610cd0565b611ea1565b6002611f24565b6111e9600354610cd0565b611ce8565b612239565b610f77565b611aa5565b610728565b90506003548103925050505b919050565b60045481565b600080600354141561122d57479050611310565b60006112e6600160009054906101000a900473ffffffffffffffffffffffffffffffffffffffff1673ffffffffffffffffffffffffffffffffffffffff166318160ddd6040518163ffffffff1660e01b815260040160206040518083038186803b15801561129a57600080fd5b505afa1580156112ae573d6000803e3d6000fd5b505050506040513d60208110156112c457600080fd5b8101908080519060200190929190505050600654611b2b90919063ffffffff16565b905060006112f660035483611346565b905061130b8147611b2b90919063ffffffff16565b925050505b90565b60008060009054906101000a900473ffffffffffffffffffffffffffffffffffffffff16905090565b6000600454905090565b600080828403141561135b5760009050611437565b8183116113b3576040517f08c379a000000000000000000000000000000000000000000000000000000000815260040180806020018281038252602981526020018061268d6029913960400191505060405180910390fd5b61143461142f6113d66113c7600654610cd0565b6113d16003611e7e565b611ea1565b61142a6113ff6113f86113e889610cd0565b6113f3600654610cd0565b611ea1565b6003611f24565b61142561141e61140e89610cd0565b611419600654610cd0565b611ea1565b6003611f24565b6122a0565b611ce8565b610f77565b90505b92915050565b6000600354905090565b600061147761147261146b61145b85610cd0565b611466600654610cd0565b611ea1565b6002611f24565b610f77565b9050919050565b82600160009054906101000a900473ffffffffffffffffffffffffffffffffffffffff1673ffffffffffffffffffffffffffffffffffffffff1663dd62ed3e33306040518363ffffffff1660e01b8152600401808373ffffffffffffffffffffffffffffffffffffffff1681526020018273ffffffffffffffffffffffffffffffffffffffff16815260200192505050602060405180830381600087803b15801561152857600080fd5b505af115801561153c573d6000803e3d6000fd5b505050506040513d602081101561155257600080fd5b810190808051906020019092919050505010156115d7576040517f08c379a000000000000000000000000000000000000000000000000000000000815260040180806020018281038252601f8152602001807f73656e64657220686173206e6f7420656e6f75676820616c6c6f77616e63650081525060200191505060405180910390fd5b60006115e2846108f7565b90508083111561169a576116138261160561271086611bae90919063ffffffff16565b611aa590919063ffffffff16565b6116268285611b2b90919063ffffffff16565b10611699576040517f08c379a000000000000000000000000000000000000000000000000000000000815260040180806020018281038252601d8152602001807f536c6970706167652067726561746572207468616e20616c6c6f77656400000081525060200191505060405180910390fd5b5b60008184039050600160009054906101000a900473ffffffffffffffffffffffffffffffffffffffff1673ffffffffffffffffffffffffffffffffffffffff166323b872dd3330886040518463ffffffff1660e01b8152600401808473ffffffffffffffffffffffffffffffffffffffff1681526020018373ffffffffffffffffffffffffffffffffffffffff1681526020018281526020019350505050602060405180830381600087803b15801561175257600080fd5b505af1158015611766573d6000803e3d6000fd5b505050506040513d602081101561177c57600080fd5b8101908080519060200190929190505050506117a385600354611b2b90919063ffffffff16565b6003819055506117b4600354611447565b6004819055503373ffffffffffffffffffffffffffffffffffffffff167fa70108fc37a77e4fb183df412c5ec85d9c12294d6f4c1634c5d2a594a44db9aa8684600454600354866040518086815260200185815260200184815260200183815260200180602001838152602001828103825260048152602001807f73656c6c00000000000000000000000000000000000000000000000000000000815250602001965050505050505060405180910390a23373ffffffffffffffffffffffffffffffffffffffff166108fc839081150290604051600060405180830381858888f193505050501580156118ab573d6000803e3d6000fd5b505050505050565b6118bb611dbb565b73ffffffffffffffffffffffffffffffffffffffff166118d9611313565b73ffffffffffffffffffffffffffffffffffffffff1614611962576040517f08c379a00000000000000000000000000000000000000000000000000000000081526004018080602001828103825260208152602001807f4f776e61626c653a2063616c6c6572206973206e6f7420746865206f776e657281525060200191505060405180910390fd5b600073ffffffffffffffffffffffffffffffffffffffff168173ffffffffffffffffffffffffffffffffffffffff1614156119e8576040517f08c379a00000000000000000000000000000000000000000000000000000000081526004018080602001828103825260268152602001806126466026913960400191505060405180910390fd5b8073ffffffffffffffffffffffffffffffffffffffff1660008054906101000a900473ffffffffffffffffffffffffffffffffffffffff1673ffffffffffffffffffffffffffffffffffffffff167f8be0079c531659141344cd1fd0a4f28419497f9722a3daafe3b4186f6b6457e060405160405180910390a3806000806101000a81548173ffffffffffffffffffffffffffffffffffffffff021916908373ffffffffffffffffffffffffffffffffffffffff16021790555050565b600080831415611ab85760009050611b25565b6000828402905082848281611ac957fe5b0414611b20576040517f08c379a000000000000000000000000000000000000000000000000000000000815260040180806020018281038252602181526020018061266c6021913960400191505060405180910390fd5b809150505b92915050565b600082821115611ba3576040517f08c379a000000000000000000000000000000000000000000000000000000000815260040180806020018281038252601e8152602001807f536166654d6174683a207375627472616374696f6e206f766572666c6f77000081525060200191505060405180910390fd5b818303905092915050565b6000808211611c25576040517f08c379a000000000000000000000000000000000000000000000000000000000815260040180806020018281038252601a8152602001807f536166654d6174683a206469766973696f6e206279207a65726f00000000000081525060200191505060405180910390fd5b818381611c2e57fe5b04905092915050565b600080828401905083811015611cb5576040517f08c379a000000000000000000000000000000000000000000000000000000000815260040180806020018281038252601b8152602001807f536166654d6174683a206164646974696f6e206f766572666c6f77000000000081525060200191505060405180910390fd5b8091505092915050565b60008082600f0b1215611cd157600080fd5b611ce1604083600f0b901b612307565b9050919050565b600080604083600f0b85600f0b02901d90507fffffffffffffffffffffffffffffffff80000000000000000000000000000000600f0b8112158015611d4057506f7fffffffffffffffffffffffffffffff600f0b8113155b611d4957600080fd5b8091505092915050565b600080821415611d6257600080fd5b6000611d6e8484612484565b90506f7fffffffffffffffffffffffffffffff6fffffffffffffffffffffffffffffffff16816fffffffffffffffffffffffffffffffff161115611db157600080fd5b8091505092915050565b600033905090565b600080821415611dd65760009050611e78565b600083600f0b1215611de757600080fd5b600060406fffffffffffffffffffffffffffffffff841685600f0b02901c90506000608084901c85600f0b02905077ffffffffffffffffffffffffffffffffffffffffffffffff811115611e3a57600080fd5b604081901b9050817fffffffffffffffffffffffffffffffffffffffffffffffffffffffffffffffff03811115611e7057600080fd5b818101925050505b92915050565b6000677fffffffffffffff821115611e9557600080fd5b604082901b9050919050565b60008082600f0b1415611eb357600080fd5b600082600f0b604085600f0b901b81611ec857fe5b0590507fffffffffffffffffffffffffffffffff80000000000000000000000000000000600f0b8112158015611f1157506f7fffffffffffffffffffffffffffffff600f0b8113155b611f1a57600080fd5b8091505092915050565b600080600084600f0b128015611f3c57506001808416145b905060008085600f0b12611f505784611f55565b846000035b6fffffffffffffffffffffffffffffffff1690506000700100000000000000000000000000000000905068010000000000000000821161202f57603f82901b91505b600085146120235760006001861614611fb457607f828202901c90505b607f828302901c915060006002861614611fd257607f828202901c90505b607f828302901c915060006004861614611ff057607f828202901c90505b607f828302901c91506000600886161461200e57607f828202901c90505b607f828302901c9150600485901c9450611f97565b604081901c90506121c9565b6000603f90506c0100000000000000000000000083101561205857602083901b92506020810390505b6e01000000000000000000000000000083101561207d57601083901b92506010810390505b6f010000000000000000000000000000008310156120a357600883901b92506008810390505b6f100000000000000000000000000000008310156120c957600483901b92506004810390505b6f400000000000000000000000000000008310156120ef57600283901b92506002810390505b6f8000000000000000000000000000000083101561211557600183901b92506001810390505b60005b600087146121b0576040821061212d57600080fd5b6000600188161461216e57607f848402901c9250818101905070010000000000000000000000000000000083111561216d57600183901c92506001810190505b5b607f848502901c9350600182901b915070010000000000000000000000000000000084106121a457600184901c93506001820191505b600187901c9650612118565b604081106121bd57600080fd5b8060400383901c925050505b6000836121d657816121db565b816000035b90507fffffffffffffffffffffffffffffffff80000000000000000000000000000000600f0b811215801561222357506f7fffffffffffffffffffffffffffffff600f0b8113155b61222c57600080fd5b8094505050505092915050565b60008082600f0b84600f0b0190507fffffffffffffffffffffffffffffffff80000000000000000000000000000000600f0b811215801561228d57506f7fffffffffffffffffffffffffffffff600f0b8113155b61229657600080fd5b8091505092915050565b60008082600f0b84600f0b0390507fffffffffffffffffffffffffffffffff80000000000000000000000000000000600f0b81121580156122f457506f7fffffffffffffffffffffffffffffff600f0b8113155b6122fd57600080fd5b8091505092915050565b60008082141561231a576000905061247f565b6000829050600060019050700100000000000000000000000000000000821061234c57608082901c9150604081901b90505b68010000000000000000821061236b57604082901c9150602081901b90505b640100000000821061238657602082901c9150601081901b90505b62010000821061239f57601082901c9150600881901b90505b61010082106123b757600882901c9150600481901b90505b601082106123ce57600482901c9150600281901b90505b600882106123de57600181901b90505b60018185816123e957fe5b048201901c905060018185816123fb57fe5b048201901c9050600181858161240d57fe5b048201901c9050600181858161241f57fe5b048201901c9050600181858161243157fe5b048201901c9050600181858161244357fe5b048201901c9050600181858161245557fe5b048201901c9050600081858161246757fe5b0490508082106124775780612479565b815b93505050505b919050565b60008082141561249357600080fd5b600077ffffffffffffffffffffffffffffffffffffffffffffffff84116124c95782604085901b816124c157fe5b04905061261e565b600060c09050600060c086901c905064010000000081106124f257602081901c90506020820191505b62010000811061250a57601081901c90506010820191505b610100811061252157600881901c90506008820191505b6010811061253757600481901c90506004820191505b6004811061254d57600281901c90506002820191505b6002811061255c576001820191505b600160bf830360018703901c018260ff0387901b8161257757fe5b0492506fffffffffffffffffffffffffffffffff83111561259757600080fd5b6000608086901c8402905060006fffffffffffffffffffffffffffffffff871685029050600060c089901c9050600060408a901b9050828110156125dc576001820391505b8281039050608084901b9250828110156125f7576001820391505b8281039050608084901c821461260957fe5b88818161261257fe5b04870196505050505050505b6fffffffffffffffffffffffffffffffff81111561263b57600080fd5b809150509291505056fe4f776e61626c653a206e6577206f776e657220697320746865207a65726f2061646472657373536166654d6174683a206d756c7469706c69636174696f6e206f766572666c6f77537570706c7920546f70206973206e6f742067726561746572207468616e20537570706c7920426f74a2646970667358221220ddc761019d28cfe902af386c2c9bca8732604a803cc2cc28ec752565c9f1b4e864736f6c63430007060033536166654d6174683a206d756c7469706c69636174696f6e206f766572666c6f77",
  "linkReferences": {},
  "deployedLinkReferences": {}
}